{
  "_format": "hh-sol-artifact-1",
  "contractName": "Employee",
  "sourceName": "contracts/Greeter.sol",
  "abi": [
    {
      "inputs": [],
      "stateMutability": "nonpayable",
      "type": "constructor"
    },
    {
      "inputs": [
        {
          "internalType": "string",
          "name": "_name",
          "type": "string"
        },
        {
          "internalType": "uint256",
          "name": "_age",
          "type": "uint256"
        },
        {
          "internalType": "string",
          "name": "_email",
          "type": "string"
        },
        {
          "internalType": "address",
          "name": "_walletAddress",
          "type": "address"
        }
      ],
      "name": "addEmployeeData",
      "outputs": [],
      "stateMutability": "nonpayable",
      "type": "function"
    },
    {
      "inputs": [
        {
          "internalType": "uint256",
          "name": "",
          "type": "uint256"
        }
      ],
      "name": "arr",
      "outputs": [
        {
          "internalType": "string",
          "name": "name",
          "type": "string"
        },
        {
          "internalType": "uint256",
          "name": "age",
          "type": "uint256"
        },
        {
          "internalType": "string",
          "name": "email",
          "type": "string"
        },
        {
          "internalType": "address",
          "name": "walletAddress",
          "type": "address"
        },
        {
          "internalType": "uint256",
          "name": "unique",
          "type": "uint256"
        }
      ],
      "stateMutability": "view",
      "type": "function"
    },
    {
      "inputs": [
        {
          "internalType": "uint256",
          "name": "_id",
          "type": "uint256"
        }
      ],
      "name": "deleteEmployeeData",
      "outputs": [],
      "stateMutability": "nonpayable",
      "type": "function"
    },
    {
      "inputs": [
        {
          "internalType": "uint256",
          "name": "_id",
          "type": "uint256"
        },
        {
          "internalType": "string",
          "name": "_name",
          "type": "string"
        },
        {
          "internalType": "uint256",
          "name": "_age",
          "type": "uint256"
        },
        {
          "internalType": "string",
          "name": "_email",
          "type": "string"
        },
        {
          "internalType": "address",
          "name": "_walletAddress",
          "type": "address"
        }
      ],
      "name": "editEmployeeData",
      "outputs": [],
      "stateMutability": "nonpayable",
      "type": "function"
    },
    {
      "inputs": [],
      "name": "getAllEmployeeData",
      "outputs": [
        {
          "components": [
            {
              "internalType": "string",
              "name": "name",
              "type": "string"
            },
            {
              "internalType": "uint256",
              "name": "age",
              "type": "uint256"
            },
            {
              "internalType": "string",
              "name": "email",
              "type": "string"
            },
            {
              "internalType": "address",
              "name": "walletAddress",
              "type": "address"
            },
            {
              "internalType": "uint256",
              "name": "unique",
              "type": "uint256"
            }
          ],
          "internalType": "struct Employee.EmployeeData[]",
          "name": "",
          "type": "tuple[]"
        }
      ],
      "stateMutability": "view",
      "type": "function"
    },
    {
      "inputs": [
        {
          "internalType": "uint256",
          "name": "_id",
          "type": "uint256"
        }
      ],
      "name": "getOneEmployee",
      "outputs": [
        {
          "components": [
            {
              "internalType": "string",
              "name": "name",
              "type": "string"
            },
            {
              "internalType": "uint256",
              "name": "age",
              "type": "uint256"
            },
            {
              "internalType": "string",
              "name": "email",
              "type": "string"
            },
            {
              "internalType": "address",
              "name": "walletAddress",
              "type": "address"
            },
            {
              "internalType": "uint256",
              "name": "unique",
              "type": "uint256"
            }
          ],
          "internalType": "struct Employee.EmployeeData",
          "name": "",
          "type": "tuple"
        }
      ],
      "stateMutability": "view",
      "type": "function"
    },
    {
      "inputs": [],
      "name": "id",
      "outputs": [
        {
          "internalType": "uint256",
          "name": "",
          "type": "uint256"
        }
      ],
      "stateMutability": "view",
      "type": "function"
    }
  ],
  "bytecode": "0x608060405234801561001057600080fd5b506000600181905550611269806100286000396000f3fe608060405234801561001057600080fd5b506004361061007d5760003560e01c80638da824951161005b5780638da82495146100ee578063af640d0f1461010c578063b48729511461012a578063fc0fbe2c146101465761007d565b80632f510a471461008257806371e5ee5f1461009e57806374c3a39f146100d2575b600080fd5b61009c60048036038101906100979190610bdc565b610176565b005b6100b860048036038101906100b39190610bb3565b610247565b6040516100c9959493929190610ed6565b60405180910390f35b6100ec60048036038101906100e79190610b20565b6103bd565b005b6100f66104de565b6040516101039190610eb4565b60405180910390f35b6101146106cb565b6040516101219190610f59565b60405180910390f35b610144600480360381019061013f9190610bb3565b6106d1565b005b610160600480360381019061015b9190610bb3565b610776565b60405161016d9190610f37565b60405180910390f35b60008086815481106101b1577f4e487b7100000000000000000000000000000000000000000000000000000000600052603260045260246000fd5b90600052602060002090600502019050848160000190805190602001906101d9929190610966565b50838160010181905550828160020190805190602001906101fb929190610966565b50818160030160006101000a81548173ffffffffffffffffffffffffffffffffffffffff021916908373ffffffffffffffffffffffffffffffffffffffff160217905550505050505050565b6000818154811061025757600080fd5b906000526020600020906005020160009150905080600001805461027a90611104565b80601f01602080910402602001604051908101604052809291908181526020018280546102a690611104565b80156102f35780601f106102c8576101008083540402835291602001916102f3565b820191906000526020600020905b8154815290600101906020018083116102d657829003601f168201915b50505050509080600101549080600201805461030e90611104565b80601f016020809104026020016040519081016040528092919081815260200182805461033a90611104565b80156103875780601f1061035c57610100808354040283529160200191610387565b820191906000526020600020905b81548152906001019060200180831161036a57829003601f168201915b5050505050908060030160009054906101000a900473ffffffffffffffffffffffffffffffffffffffff16908060040154905085565b60006040518060a001604052808681526020018581526020018481526020018373ffffffffffffffffffffffffffffffffffffffff168152602001600154815250905060008190806001815401808255809150506001900390600052602060002090600502016000909190919091506000820151816000019080519060200190610448929190610966565b5060208201518160010155604082015181600201908051906020019061046f929190610966565b5060608201518160030160006101000a81548173ffffffffffffffffffffffffffffffffffffffff021916908373ffffffffffffffffffffffffffffffffffffffff160217905550608082015181600401555050600180546104d19190611030565b6001819055505050505050565b60606000805480602002602001604051908101604052809291908181526020016000905b828210156106c257838290600052602060002090600502016040518060a001604052908160008201805461053590611104565b80601f016020809104026020016040519081016040528092919081815260200182805461056190611104565b80156105ae5780601f10610583576101008083540402835291602001916105ae565b820191906000526020600020905b81548152906001019060200180831161059157829003601f168201915b50505050508152602001600182015481526020016002820180546105d190611104565b80601f01602080910402602001604051908101604052809291908181526020018280546105fd90611104565b801561064a5780601f1061061f5761010080835404028352916020019161064a565b820191906000526020600020905b81548152906001019060200180831161062d57829003601f168201915b505050505081526020016003820160009054906101000a900473ffffffffffffffffffffffffffffffffffffffff1673ffffffffffffffffffffffffffffffffffffffff1673ffffffffffffffffffffffffffffffffffffffff16815260200160048201548152505081526020019060010190610502565b50505050905090565b60015481565b6000818154811061070b577f4e487b7100000000000000000000000000000000000000000000000000000000600052603260045260246000fd5b90600052602060002090600502016000808201600061072a91906109ec565b600182016000905560028201600061074291906109ec565b6003820160006101000a81549073ffffffffffffffffffffffffffffffffffffffff02191690556004820160009055505050565b61077e610a2c565b600082815481106107b8577f4e487b7100000000000000000000000000000000000000000000000000000000600052603260045260246000fd5b90600052602060002090600502016040518060a00160405290816000820180546107e190611104565b80601f016020809104026020016040519081016040528092919081815260200182805461080d90611104565b801561085a5780601f1061082f5761010080835404028352916020019161085a565b820191906000526020600020905b81548152906001019060200180831161083d57829003601f168201915b505050505081526020016001820154815260200160028201805461087d90611104565b80601f01602080910402602001604051908101604052809291908181526020018280546108a990611104565b80156108f65780601f106108cb576101008083540402835291602001916108f6565b820191906000526020600020905b8154815290600101906020018083116108d957829003601f168201915b505050505081526020016003820160009054906101000a900473ffffffffffffffffffffffffffffffffffffffff1673ffffffffffffffffffffffffffffffffffffffff1673ffffffffffffffffffffffffffffffffffffffff1681526020016004820154815250509050919050565b82805461097290611104565b90600052602060002090601f01602090048101928261099457600085556109db565b82601f106109ad57805160ff19168380011785556109db565b828001600101855582156109db579182015b828111156109da5782518255916020019190600101906109bf565b5b5090506109e89190610a71565b5090565b5080546109f890611104565b6000825580601f10610a0a5750610a29565b601f016020900490600052602060002090810190610a289190610a71565b5b50565b6040518060a00160405280606081526020016000815260200160608152602001600073ffffffffffffffffffffffffffffffffffffffff168152602001600081525090565b5b80821115610a8a576000816000905550600101610a72565b5090565b6000610aa1610a9c84610f99565b610f74565b905082815260208101848484011115610ab957600080fd5b610ac48482856110c2565b509392505050565b600081359050610adb81611205565b92915050565b600082601f830112610af257600080fd5b8135610b02848260208601610a8e565b91505092915050565b600081359050610b1a8161121c565b92915050565b60008060008060808587031215610b3657600080fd5b600085013567ffffffffffffffff811115610b5057600080fd5b610b5c87828801610ae1565b9450506020610b6d87828801610b0b565b935050604085013567ffffffffffffffff811115610b8a57600080fd5b610b9687828801610ae1565b9250506060610ba787828801610acc565b91505092959194509250565b600060208284031215610bc557600080fd5b6000610bd384828501610b0b565b91505092915050565b600080600080600060a08688031215610bf457600080fd5b6000610c0288828901610b0b565b955050602086013567ffffffffffffffff811115610c1f57600080fd5b610c2b88828901610ae1565b9450506040610c3c88828901610b0b565b935050606086013567ffffffffffffffff811115610c5957600080fd5b610c6588828901610ae1565b9250506080610c7688828901610acc565b9150509295509295909350565b6000610c8f8383610d9c565b905092915050565b610ca081611086565b82525050565b610caf81611086565b82525050565b6000610cc082610fda565b610cca8185610ffd565b935083602082028501610cdc85610fca565b8060005b85811015610d185784840389528151610cf98582610c83565b9450610d0483610ff0565b925060208a01995050600181019050610ce0565b50829750879550505050505092915050565b6000610d3582610fe5565b610d3f818561100e565b9350610d4f8185602086016110d1565b610d58816111f4565b840191505092915050565b6000610d6e82610fe5565b610d78818561101f565b9350610d888185602086016110d1565b610d91816111f4565b840191505092915050565b600060a0830160008301518482036000860152610db98282610d2a565b9150506020830151610dce6020860182610e96565b5060408301518482036040860152610de68282610d2a565b9150506060830151610dfb6060860182610c97565b506080830151610e0e6080860182610e96565b508091505092915050565b600060a0830160008301518482036000860152610e368282610d2a565b9150506020830151610e4b6020860182610e96565b5060408301518482036040860152610e638282610d2a565b9150506060830151610e786060860182610c97565b506080830151610e8b6080860182610e96565b508091505092915050565b610e9f816110b8565b82525050565b610eae816110b8565b82525050565b60006020820190508181036000830152610ece8184610cb5565b905092915050565b600060a0820190508181036000830152610ef08188610d63565b9050610eff6020830187610ea5565b8181036040830152610f118186610d63565b9050610f206060830185610ca6565b610f2d6080830184610ea5565b9695505050505050565b60006020820190508181036000830152610f518184610e19565b905092915050565b6000602082019050610f6e6000830184610ea5565b92915050565b6000610f7e610f8f565b9050610f8a8282611136565b919050565b6000604051905090565b600067ffffffffffffffff821115610fb457610fb36111c5565b5b610fbd826111f4565b9050602081019050919050565b6000819050602082019050919050565b600081519050919050565b600081519050919050565b6000602082019050919050565b600082825260208201905092915050565b600082825260208201905092915050565b600082825260208201905092915050565b600061103b826110b8565b9150611046836110b8565b9250827fffffffffffffffffffffffffffffffffffffffffffffffffffffffffffffffff0382111561107b5761107a611167565b5b828201905092915050565b600061109182611098565b9050919050565b600073ffffffffffffffffffffffffffffffffffffffff82169050919050565b6000819050919050565b82818337600083830152505050565b60005b838110156110ef5780820151818401526020810190506110d4565b838111156110fe576000848401525b50505050565b6000600282049050600182168061111c57607f821691505b602082108114156111305761112f611196565b5b50919050565b61113f826111f4565b810181811067ffffffffffffffff8211171561115e5761115d6111c5565b5b80604052505050565b7f4e487b7100000000000000000000000000000000000000000000000000000000600052601160045260246000fd5b7f4e487b7100000000000000000000000000000000000000000000000000000000600052602260045260246000fd5b7f4e487b7100000000000000000000000000000000000000000000000000000000600052604160045260246000fd5b6000601f19601f8301169050919050565b61120e81611086565b811461121957600080fd5b50565b611225816110b8565b811461123057600080fd5b5056fea26469706673582212204f975492de423fa83785db839172d1d4856ce1f94e97cc2c61992f1496d1a7a364736f6c63430008040033",
  "linkReferences": {},
  "deployedLinkReferences": {}
}