{
  "contractName": "Todo",
  "abi": [
    {
      "anonymous": false,
      "inputs": [
        {
          "indexed": false,
          "internalType": "bool",
          "name": "isDone",
          "type": "bool"
        },
        {
          "indexed": false,
          "internalType": "string",
          "name": "message",
          "type": "string"
        }
      ],
      "name": "Response",
      "type": "event"
    },
    {
      "inputs": [
        {
          "internalType": "string",
          "name": "_title",
          "type": "string"
        }
      ],
      "name": "addTask",
      "outputs": [],
      "stateMutability": "nonpayable",
      "type": "function"
    },
    {
      "inputs": [],
      "name": "getAllTask",
      "outputs": [
        {
          "components": [
            {
              "internalType": "uint256",
              "name": "id",
              "type": "uint256"
            },
            {
              "internalType": "string",
              "name": "title",
              "type": "string"
            },
            {
              "internalType": "bool",
              "name": "isCompleted",
              "type": "bool"
            }
          ],
          "internalType": "struct Todo.Task[]",
          "name": "",
          "type": "tuple[]"
        }
      ],
      "stateMutability": "view",
      "type": "function"
    },
    {
      "inputs": [
        {
          "internalType": "uint256",
          "name": "_id",
          "type": "uint256"
        }
      ],
      "name": "toggleTask",
      "outputs": [
        {
          "internalType": "bool",
          "name": "",
          "type": "bool"
        }
      ],
      "stateMutability": "nonpayable",
      "type": "function"
    },
    {
      "inputs": [
        {
          "internalType": "uint256",
          "name": "_id",
          "type": "uint256"
        }
      ],
      "name": "deleteTask",
      "outputs": [
        {
          "internalType": "bool",
          "name": "",
          "type": "bool"
        }
      ],
      "stateMutability": "nonpayable",
      "type": "function"
    }
  ],
  "bytecode": "0x6080604052600060015534801561001557600080fd5b50610d08806100256000396000f3fe608060405234801561001057600080fd5b506004361061004c5760003560e01c80631bbaf3cf14610051578063560f31921461006f578063613137a41461009f57806367238562146100cf575b600080fd5b6100596100eb565b60405161006691906107ee565b60405180910390f35b61008960048036038101906100849190610850565b610201565b604051610096919061088c565b60405180910390f35b6100b960048036038101906100b49190610850565b610327565b6040516100c6919061088c565b60405180910390f35b6100e960048036038101906100e491906109dc565b610449565b005b60606000805480602002602001604051908101604052809291908181526020016000905b828210156101f857838290600052602060002090600302016040518060600160405290816000820154815260200160018201805461014c90610a54565b80601f016020809104026020016040519081016040528092919081815260200182805461017890610a54565b80156101c55780601f1061019a576101008083540402835291602001916101c5565b820191906000526020600020905b8154815290600101906020018083116101a857829003601f168201915b505050505081526020016002820160009054906101000a900460ff1615151515815250508152602001906001019061010f565b50505050905090565b6000600115156002600084815260200190815260200160002060009054906101000a900460ff16151514156102e5576000828154811061024457610243610a86565b5b906000526020600020906003020160008082016000905560018201600061026b919061052c565b6002820160006101000a81549060ff021916905550506002600083815260200190815260200160002060006101000a81549060ff02191690557fc7055204ed36db5349d262f15f91b6cc7ad9a35590718297a887419f77217e9b60016040516102d49190610b12565b60405180910390a160019050610322565b7fc7055204ed36db5349d262f15f91b6cc7ad9a35590718297a887419f77217e9b60006040516103159190610bb2565b60405180910390a1600090505b919050565b6000600115156002600084815260200190815260200160002060009054906101000a900460ff1615151415610407576000828154811061036a57610369610a86565b5b906000526020600020906003020160020160009054906101000a900460ff16156000838154811061039e5761039d610a86565b5b906000526020600020906003020160020160006101000a81548160ff0219169083151502179055507fc7055204ed36db5349d262f15f91b6cc7ad9a35590718297a887419f77217e9b60016040516103f69190610c2c565b60405180910390a160019050610444565b7fc7055204ed36db5349d262f15f91b6cc7ad9a35590718297a887419f77217e9b60006040516104379190610bb2565b60405180910390a1600090505b919050565b600060405180606001604052806001548152602001838152602001600015158152509050600160026000600154815260200190815260200160002060006101000a81548160ff02191690831515021790555060008190806001815401808255809150506001900390600052602060002090600302016000909190919091506000820151816000015560208201518160010190805190602001906104ed92919061056c565b5060408201518160020160006101000a81548160ff02191690831515021790555050506001600081548092919061052390610c89565b91905055505050565b50805461053890610a54565b6000825580601f1061054a5750610569565b601f01602090049060005260206000209081019061056891906105f2565b5b50565b82805461057890610a54565b90600052602060002090601f01602090048101928261059a57600085556105e1565b82601f106105b357805160ff19168380011785556105e1565b828001600101855582156105e1579182015b828111156105e05782518255916020019190600101906105c5565b5b5090506105ee91906105f2565b5090565b5b8082111561060b5760008160009055506001016105f3565b5090565b600081519050919050565b600082825260208201905092915050565b6000819050602082019050919050565b6000819050919050565b61064e8161063b565b82525050565b600081519050919050565b600082825260208201905092915050565b60005b8381101561068e578082015181840152602081019050610673565b8381111561069d576000848401525b50505050565b6000601f19601f8301169050919050565b60006106bf82610654565b6106c9818561065f565b93506106d9818560208601610670565b6106e2816106a3565b840191505092915050565b60008115159050919050565b610702816106ed565b82525050565b60006060830160008301516107206000860182610645565b506020830151848203602086015261073882826106b4565b915050604083015161074d60408601826106f9565b508091505092915050565b60006107648383610708565b905092915050565b6000602082019050919050565b60006107848261060f565b61078e818561061a565b9350836020820285016107a08561062b565b8060005b858110156107dc57848403895281516107bd8582610758565b94506107c88361076c565b925060208a019950506001810190506107a4565b50829750879550505050505092915050565b600060208201905081810360008301526108088184610779565b905092915050565b6000604051905090565b600080fd5b600080fd5b61082d8161063b565b811461083857600080fd5b50565b60008135905061084a81610824565b92915050565b6000602082840312156108665761086561081a565b5b60006108748482850161083b565b91505092915050565b610886816106ed565b82525050565b60006020820190506108a1600083018461087d565b92915050565b600080fd5b600080fd5b7f4e487b7100000000000000000000000000000000000000000000000000000000600052604160045260246000fd5b6108e9826106a3565b810181811067ffffffffffffffff82111715610908576109076108b1565b5b80604052505050565b600061091b610810565b905061092782826108e0565b919050565b600067ffffffffffffffff821115610947576109466108b1565b5b610950826106a3565b9050602081019050919050565b82818337600083830152505050565b600061097f61097a8461092c565b610911565b90508281526020810184848401111561099b5761099a6108ac565b5b6109a684828561095d565b509392505050565b600082601f8301126109c3576109c26108a7565b5b81356109d384826020860161096c565b91505092915050565b6000602082840312156109f2576109f161081a565b5b600082013567ffffffffffffffff811115610a1057610a0f61081f565b5b610a1c848285016109ae565b91505092915050565b7f4e487b7100000000000000000000000000000000000000000000000000000000600052602260045260246000fd5b60006002820490506001821680610a6c57607f821691505b60208210811415610a8057610a7f610a25565b5b50919050565b7f4e487b7100000000000000000000000000000000000000000000000000000000600052603260045260246000fd5b600082825260208201905092915050565b7f5461736b2069732044656c657465640000000000000000000000000000000000600082015250565b6000610afc600f83610ab5565b9150610b0782610ac6565b602082019050919050565b6000604082019050610b27600083018461087d565b8181036020830152610b3881610aef565b905092915050565b7f5461736b206973206e6f742050726573656e7420696e2074686520446174616260008201527f6173650000000000000000000000000000000000000000000000000000000000602082015250565b6000610b9c602383610ab5565b9150610ba782610b40565b604082019050919050565b6000604082019050610bc7600083018461087d565b8181036020830152610bd881610b8f565b905092915050565b7f5461736b20697320757064617465640000000000000000000000000000000000600082015250565b6000610c16600f83610ab5565b9150610c2182610be0565b602082019050919050565b6000604082019050610c41600083018461087d565b8181036020830152610c5281610c09565b905092915050565b7f4e487b7100000000000000000000000000000000000000000000000000000000600052601160045260246000fd5b6000610c948261063b565b91507fffffffffffffffffffffffffffffffffffffffffffffffffffffffffffffffff821415610cc757610cc6610c5a565b5b60018201905091905056fea26469706673582212209a3fa0b7c2d5af21292e79d3d2b3826e3ff9bcb03bf7e6dbd295bea63d761add64736f6c634300080b0033",
  "immutableReferences": {},
  "source": "// SPDX-License-Identifier: MIT\r\npragma solidity ^0.8.11;\r\n\r\ncontract Todo {\r\n\r\n  struct Task {\r\n    uint id;\r\n    string title;\r\n    bool isCompleted;\r\n  }\r\n\r\n  Task[] tasks;\r\n  uint index = 0;\r\n//   mapping(string => Task) tasks;\r\n  mapping(uint => bool) tasksMap;\r\n\r\n  event Response(bool isDone, string message);\r\n\r\n  function addTask(string memory _title) external {\r\n    Task memory task = Task(index, _title, false);\r\n    tasksMap[index] = true;\r\n    tasks.push(task);\r\n    index ++;\r\n  }\r\n\r\n  function getAllTask() external view returns( Task[] memory) {\r\n    return tasks; \r\n  }\r\n\r\n  function toggleTask(uint _id) external returns(bool){\r\n    if(tasksMap[_id] == true){\r\n      tasks[_id].isCompleted = !tasks[_id].isCompleted;\r\n      emit Response(true, \"Task is updated\");\r\n      return true;\r\n    }\r\n    else {\r\n      emit Response(false, \"Task is not Present in the Database\");\r\n      return false;\r\n    }\r\n  }\r\n\r\n  function deleteTask(uint _id) external returns(bool){\r\n    if(tasksMap[_id] == true){\r\n      delete tasks[_id];\r\n      delete tasksMap[_id];\r\n      emit Response(true, \"Task is Deleted\");\r\n      return true;\r\n    }\r\n    else {\r\n      emit Response(false, \"Task is not Present in the Database\");\r\n      return false;\r\n    }\r\n  }\r\n}",
  "sourcePath": "C:\\Users\\Suman\\Desktop\\Blockchain\\Blockchain\\Chapter-1\\Chapter-1\\Suman_Chakraborty\\Todo_Ethereum_Blockchain\\contracts\\Todo.sol",
  "compiler": {
    "name": "solc",
    "version": "0.8.11+commit.d7f03943.Emscripten.clang"
  },
  "schemaVersion": "3.4.4",
  "updatedAt": "2022-02-12T18:04:47.882Z",
  "devdoc": {
    "kind": "dev",
    "methods": {},
    "version": 1
  },
  "userdoc": {
    "kind": "user",
    "methods": {},
    "version": 1
  }
}