{
  "contractName": "MultiSigner",
  "abi": [
    {
      "inputs": [
        {
          "internalType": "address[]",
          "name": "_owner",
          "type": "address[]"
        },
        {
          "internalType": "uint256",
          "name": "_limit",
          "type": "uint256"
        }
      ],
      "stateMutability": "nonpayable",
      "type": "constructor"
    },
    {
      "inputs": [],
      "name": "approversLimit",
      "outputs": [
        {
          "internalType": "uint256",
          "name": "",
          "type": "uint256"
        }
      ],
      "stateMutability": "view",
      "type": "function",
      "constant": true
    },
    {
      "inputs": [
        {
          "internalType": "uint256",
          "name": "",
          "type": "uint256"
        }
      ],
      "name": "transactions",
      "outputs": [
        {
          "internalType": "address payable",
          "name": "to",
          "type": "address"
        },
        {
          "internalType": "uint256",
          "name": "value",
          "type": "uint256"
        },
        {
          "internalType": "bool",
          "name": "executed",
          "type": "bool"
        },
        {
          "internalType": "uint256",
          "name": "limit",
          "type": "uint256"
        },
        {
          "internalType": "uint256",
          "name": "id",
          "type": "uint256"
        }
      ],
      "stateMutability": "view",
      "type": "function",
      "constant": true
    },
    {
      "inputs": [
        {
          "internalType": "address",
          "name": "_add",
          "type": "address"
        }
      ],
      "name": "addOwner",
      "outputs": [],
      "stateMutability": "nonpayable",
      "type": "function"
    },
    {
      "inputs": [],
      "name": "getAllOwnersList",
      "outputs": [
        {
          "internalType": "address[]",
          "name": "",
          "type": "address[]"
        }
      ],
      "stateMutability": "view",
      "type": "function",
      "constant": true
    },
    {
      "inputs": [],
      "name": "getTransactionDetails",
      "outputs": [
        {
          "components": [
            {
              "internalType": "address",
              "name": "to",
              "type": "address"
            },
            {
              "internalType": "uint256",
              "name": "value",
              "type": "uint256"
            },
            {
              "internalType": "bool",
              "name": "executed",
              "type": "bool"
            },
            {
              "internalType": "uint256",
              "name": "limit",
              "type": "uint256"
            },
            {
              "internalType": "uint256",
              "name": "id",
              "type": "uint256"
            }
          ],
          "internalType": "struct MultiSigner.Temp[]",
          "name": "",
          "type": "tuple[]"
        }
      ],
      "stateMutability": "view",
      "type": "function",
      "constant": true
    },
    {
      "inputs": [
        {
          "internalType": "address payable",
          "name": "_to",
          "type": "address"
        },
        {
          "internalType": "uint256",
          "name": "_value",
          "type": "uint256"
        }
      ],
      "name": "submitTransaction",
      "outputs": [],
      "stateMutability": "nonpayable",
      "type": "function"
    },
    {
      "inputs": [
        {
          "internalType": "uint256",
          "name": "_txId",
          "type": "uint256"
        }
      ],
      "name": "coniformTransaction",
      "outputs": [],
      "stateMutability": "nonpayable",
      "type": "function"
    },
    {
      "inputs": [
        {
          "internalType": "uint256",
          "name": "_txId",
          "type": "uint256"
        }
      ],
      "name": "executeTransaction",
      "outputs": [],
      "stateMutability": "nonpayable",
      "type": "function"
    }
  ],
  "bytecode": "0x60806040523480156200001157600080fd5b5060405162001cd838038062001cd883398181016040528101906200003791906200050f565b60008251116200007e576040517f08c379a00000000000000000000000000000000000000000000000000000000081526004016200007590620005d6565b60405180910390fd5b60008111801562000090575081518111155b620000d2576040517f08c379a0000000000000000000000000000000000000000000000000000000008152600401620000c9906200066e565b60405180910390fd5b60005b8251811015620002d6576000838281518110620000f757620000f662000690565b5b60200260200101519050600073ffffffffffffffffffffffffffffffffffffffff168173ffffffffffffffffffffffffffffffffffffffff16141562000174576040517f08c379a00000000000000000000000000000000000000000000000000000000081526004016200016b906200070f565b60405180910390fd5b600460008273ffffffffffffffffffffffffffffffffffffffff1673ffffffffffffffffffffffffffffffffffffffff16815260200190815260200160002060009054906101000a900460ff161562000204576040517f08c379a0000000000000000000000000000000000000000000000000000000008152600401620001fb9062000781565b60405180910390fd5b6001600460008373ffffffffffffffffffffffffffffffffffffffff1673ffffffffffffffffffffffffffffffffffffffff16815260200190815260200160002060006101000a81548160ff0219169083151502179055506002819080600181540180825580915050600190039060005260206000200160009091909190916101000a81548173ffffffffffffffffffffffffffffffffffffffff021916908373ffffffffffffffffffffffffffffffffffffffff160217905550508080620002cd90620007d2565b915050620000d5565b5080600381905550505062000820565b6000604051905090565b600080fd5b600080fd5b600080fd5b6000601f19601f8301169050919050565b7f4e487b7100000000000000000000000000000000000000000000000000000000600052604160045260246000fd5b6200034a82620002ff565b810181811067ffffffffffffffff821117156200036c576200036b62000310565b5b80604052505050565b600062000381620002e6565b90506200038f82826200033f565b919050565b600067ffffffffffffffff821115620003b257620003b162000310565b5b602082029050602081019050919050565b600080fd5b600073ffffffffffffffffffffffffffffffffffffffff82169050919050565b6000620003f582620003c8565b9050919050565b6200040781620003e8565b81146200041357600080fd5b50565b6000815190506200042781620003fc565b92915050565b6000620004446200043e8462000394565b62000375565b905080838252602082019050602084028301858111156200046a5762000469620003c3565b5b835b8181101562000497578062000482888262000416565b8452602084019350506020810190506200046c565b5050509392505050565b600082601f830112620004b957620004b8620002fa565b5b8151620004cb8482602086016200042d565b91505092915050565b6000819050919050565b620004e981620004d4565b8114620004f557600080fd5b50565b6000815190506200050981620004de565b92915050565b60008060408385031215620005295762000528620002f0565b5b600083015167ffffffffffffffff8111156200054a5762000549620002f5565b5b6200055885828601620004a1565b92505060206200056b85828601620004f8565b9150509250929050565b600082825260208201905092915050565b7f4f776e6572732052657175697265642021000000000000000000000000000000600082015250565b6000620005be60118362000575565b9150620005cb8262000586565b602082019050919050565b60006020820190508181036000830152620005f181620005af565b9050919050565b7f496e76616c6964206e756d626572206f6620726571756972656420617070726f60008201527f7665722773202100000000000000000000000000000000000000000000000000602082015250565b60006200065660278362000575565b91506200066382620005f8565b604082019050919050565b60006020820190508181036000830152620006898162000647565b9050919050565b7f4e487b7100000000000000000000000000000000000000000000000000000000600052603260045260246000fd5b7f496e76616c6964204f776e657220210000000000000000000000000000000000600082015250565b6000620006f7600f8362000575565b91506200070482620006bf565b602082019050919050565b600060208201905081810360008301526200072a81620006e8565b9050919050565b7f4f776e6572206e6f7420756e6971756500000000000000000000000000000000600082015250565b60006200076960108362000575565b9150620007768262000731565b602082019050919050565b600060208201905081810360008301526200079c816200075a565b9050919050565b7f4e487b7100000000000000000000000000000000000000000000000000000000600052601160045260246000fd5b6000620007df82620004d4565b91507fffffffffffffffffffffffffffffffffffffffffffffffffffffffffffffffff821415620008155762000814620007a3565b5b600182019050919050565b6114a880620008306000396000f3fe608060405234801561001057600080fd5b50600436106100885760003560e01c806391e089e51161005b57806391e089e5146101015780639ace38c21461011d578063d8a5cc0314610151578063ee22610b1461016f57610088565b806314cece361461008d5780631d43b653146100ab57806365eaf202146100c75780637065cb48146100e5575b600080fd5b61009561018b565b6040516100a29190610c29565b60405180910390f35b6100c560048036038101906100c09190610cd3565b610191565b005b6100cf6103c5565b6040516100dc9190610de3565b60405180910390f35b6100ff60048036038101906100fa9190610e31565b610453565b005b61011b60048036038101906101169190610e5e565b610545565b005b61013760048036038101906101329190610e5e565b6107e1565b604051610148959493929190610eb5565b60405180910390f35b610159610854565b604051610166919061103d565b60405180910390f35b61018960048036038101906101849190610e5e565b610942565b005b60035481565b600460003373ffffffffffffffffffffffffffffffffffffffff1673ffffffffffffffffffffffffffffffffffffffff16815260200190815260200160002060009054906101000a900460ff1661021d576040517f08c379a0000000000000000000000000000000000000000000000000000000008152600401610214906110bc565b60405180910390fd5b600060018054905090506000600180816001815401808255809150500390600052602060002090600602019050838160000160006101000a81548173ffffffffffffffffffffffffffffffffffffffff021916908373ffffffffffffffffffffffffffffffffffffffff16021790555082816001018190555081816004018190555060008160020160006101000a81548160ff0219169083151502179055506000816003018190555060006040518060a001604052808673ffffffffffffffffffffffffffffffffffffffff16815260200185815260200160001515815260200160008152602001848152509050600081908060018154018082558091505060019003906000526020600020906005020160009091909190915060008201518160000160006101000a81548173ffffffffffffffffffffffffffffffffffffffff021916908373ffffffffffffffffffffffffffffffffffffffff1602179055506020820151816001015560408201518160020160006101000a81548160ff021916908315150217905550606082015181600301556080820151816004015550505050505050565b6060600280548060200260200160405190810160405280929190818152602001828054801561044957602002820191906000526020600020905b8160009054906101000a900473ffffffffffffffffffffffffffffffffffffffff1673ffffffffffffffffffffffffffffffffffffffff16815260200190600101908083116103ff575b5050505050905090565b600460003373ffffffffffffffffffffffffffffffffffffffff1673ffffffffffffffffffffffffffffffffffffffff16815260200190815260200160002060009054906101000a900460ff166104df576040517f08c379a00000000000000000000000000000000000000000000000000000000081526004016104d6906110bc565b60405180910390fd5b6002819080600181540180825580915050600190039060005260206000200160009091909190916101000a81548173ffffffffffffffffffffffffffffffffffffffff021916908373ffffffffffffffffffffffffffffffffffffffff16021790555050565b600460003373ffffffffffffffffffffffffffffffffffffffff1673ffffffffffffffffffffffffffffffffffffffff16815260200190815260200160002060009054906101000a900460ff166105d1576040517f08c379a00000000000000000000000000000000000000000000000000000000081526004016105c8906110bc565b60405180910390fd5b806001805490508110610619576040517f08c379a000000000000000000000000000000000000000000000000000000000815260040161061090611128565b60405180910390fd5b816001818154811061062e5761062d611148565b5b906000526020600020906006020160020160009054906101000a900460ff161561068d576040517f08c379a0000000000000000000000000000000000000000000000000000000008152600401610684906111c3565b60405180910390fd5b82600181815481106106a2576106a1611148565b5b906000526020600020906006020160050160003373ffffffffffffffffffffffffffffffffffffffff1673ffffffffffffffffffffffffffffffffffffffff16815260200190815260200160002060009054906101000a900460ff161561073e576040517f08c379a00000000000000000000000000000000000000000000000000000000081526004016107359061122f565b60405180910390fd5b60006001858154811061075457610753611148565b5b9060005260206000209060060201905060018160050160003373ffffffffffffffffffffffffffffffffffffffff1673ffffffffffffffffffffffffffffffffffffffff16815260200190815260200160002060006101000a81548160ff02191690831515021790555060018160030160008282546107d3919061127e565b925050819055505050505050565b600181815481106107f157600080fd5b90600052602060002090600602016000915090508060000160009054906101000a900473ffffffffffffffffffffffffffffffffffffffff16908060010154908060020160009054906101000a900460ff16908060030154908060040154905085565b60606000805480602002602001604051908101604052809291908181526020016000905b8282101561093957838290600052602060002090600502016040518060a00160405290816000820160009054906101000a900473ffffffffffffffffffffffffffffffffffffffff1673ffffffffffffffffffffffffffffffffffffffff1673ffffffffffffffffffffffffffffffffffffffff168152602001600182015481526020016002820160009054906101000a900460ff161515151581526020016003820154815260200160048201548152505081526020019060010190610878565b50505050905090565b600460003373ffffffffffffffffffffffffffffffffffffffff1673ffffffffffffffffffffffffffffffffffffffff16815260200190815260200160002060009054906101000a900460ff166109ce576040517f08c379a00000000000000000000000000000000000000000000000000000000081526004016109c5906110bc565b60405180910390fd5b806001805490508110610a16576040517f08c379a0000000000000000000000000000000000000000000000000000000008152600401610a0d90611128565b60405180910390fd5b8160018181548110610a2b57610a2a611148565b5b906000526020600020906006020160020160009054906101000a900460ff1615610a8a576040517f08c379a0000000000000000000000000000000000000000000000000000000008152600401610a81906111c3565b60405180910390fd5b600060018481548110610aa057610a9f611148565b5b9060005260206000209060060201905060035481600301541015610af9576040517f08c379a0000000000000000000000000000000000000000000000000000000008152600401610af090611346565b60405180910390fd5b60018160020160006101000a81548160ff0219169083151502179055506000670de0b6b3a76400008260010154610b309190611366565b905060008260000160009054906101000a900473ffffffffffffffffffffffffffffffffffffffff16905060008173ffffffffffffffffffffffffffffffffffffffff1683604051610b81906113f1565b60006040518083038185875af1925050503d8060008114610bbe576040519150601f19603f3d011682016040523d82523d6000602084013e610bc3565b606091505b5050905080610c07576040517f08c379a0000000000000000000000000000000000000000000000000000000008152600401610bfe90611452565b60405180910390fd5b50505050505050565b6000819050919050565b610c2381610c10565b82525050565b6000602082019050610c3e6000830184610c1a565b92915050565b600080fd5b600073ffffffffffffffffffffffffffffffffffffffff82169050919050565b6000610c7482610c49565b9050919050565b610c8481610c69565b8114610c8f57600080fd5b50565b600081359050610ca181610c7b565b92915050565b610cb081610c10565b8114610cbb57600080fd5b50565b600081359050610ccd81610ca7565b92915050565b60008060408385031215610cea57610ce9610c44565b5b6000610cf885828601610c92565b9250506020610d0985828601610cbe565b9150509250929050565b600081519050919050565b600082825260208201905092915050565b6000819050602082019050919050565b6000610d4a82610c49565b9050919050565b610d5a81610d3f565b82525050565b6000610d6c8383610d51565b60208301905092915050565b6000602082019050919050565b6000610d9082610d13565b610d9a8185610d1e565b9350610da583610d2f565b8060005b83811015610dd6578151610dbd8882610d60565b9750610dc883610d78565b925050600181019050610da9565b5085935050505092915050565b60006020820190508181036000830152610dfd8184610d85565b905092915050565b610e0e81610d3f565b8114610e1957600080fd5b50565b600081359050610e2b81610e05565b92915050565b600060208284031215610e4757610e46610c44565b5b6000610e5584828501610e1c565b91505092915050565b600060208284031215610e7457610e73610c44565b5b6000610e8284828501610cbe565b91505092915050565b610e9481610c69565b82525050565b60008115159050919050565b610eaf81610e9a565b82525050565b600060a082019050610eca6000830188610e8b565b610ed76020830187610c1a565b610ee46040830186610ea6565b610ef16060830185610c1a565b610efe6080830184610c1a565b9695505050505050565b600081519050919050565b600082825260208201905092915050565b6000819050602082019050919050565b610f3d81610c10565b82525050565b610f4c81610e9a565b82525050565b60a082016000820151610f686000850182610d51565b506020820151610f7b6020850182610f34565b506040820151610f8e6040850182610f43565b506060820151610fa16060850182610f34565b506080820151610fb46080850182610f34565b50505050565b6000610fc68383610f52565b60a08301905092915050565b6000602082019050919050565b6000610fea82610f08565b610ff48185610f13565b9350610fff83610f24565b8060005b838110156110305781516110178882610fba565b975061102283610fd2565b925050600181019050611003565b5085935050505092915050565b600060208201905081810360008301526110578184610fdf565b905092915050565b600082825260208201905092915050565b7f6e6f74206f776e65720000000000000000000000000000000000000000000000600082015250565b60006110a660098361105f565b91506110b182611070565b602082019050919050565b600060208201905081810360008301526110d581611099565b9050919050565b7f7472616e73616374696f6e20646f6573206e6f74206578697400000000000000600082015250565b600061111260198361105f565b915061111d826110dc565b602082019050919050565b6000602082019050818103600083015261114181611105565b9050919050565b7f4e487b7100000000000000000000000000000000000000000000000000000000600052603260045260246000fd5b7f7472616e73616374696f6e20616c726561647920657865637574656400000000600082015250565b60006111ad601c8361105f565b91506111b882611177565b602082019050919050565b600060208201905081810360008301526111dc816111a0565b9050919050565b7f7472616e73616374696f6e20616c726561647920636f6e69666f726d65640000600082015250565b6000611219601e8361105f565b9150611224826111e3565b602082019050919050565b600060208201905081810360008301526112488161120c565b9050919050565b7f4e487b7100000000000000000000000000000000000000000000000000000000600052601160045260246000fd5b600061128982610c10565b915061129483610c10565b9250827fffffffffffffffffffffffffffffffffffffffffffffffffffffffffffffffff038211156112c9576112c861124f565b5b828201905092915050565b7f636f6e6e6f7420657865637574652c20736f6d6520617070726f76657227732060008201527f6e6f7420617070726f7665207472616e73616374696f6e202100000000000000602082015250565b600061133060398361105f565b915061133b826112d4565b604082019050919050565b6000602082019050818103600083015261135f81611323565b9050919050565b600061137182610c10565b915061137c83610c10565b9250817fffffffffffffffffffffffffffffffffffffffffffffffffffffffffffffffff04831182151516156113b5576113b461124f565b5b828202905092915050565b600081905092915050565b50565b60006113db6000836113c0565b91506113e6826113cb565b600082019050919050565b60006113fc826113ce565b9150819050919050565b7f7472616e73666572206661696c65640000000000000000000000000000000000600082015250565b600061143c600f8361105f565b915061144782611406565b602082019050919050565b6000602082019050818103600083015261146b8161142f565b905091905056fea26469706673582212204d40b5a25e8f5a8207bef7479057c06f1564bc7b96918ef5021bb97c3ee6a34b64736f6c634300080b0033",
  "immutableReferences": {},
  "source": "// SPDX-License-Identifier: GPL-3.0\n\npragma solidity >=0.7.0 <0.9.0;\n\n/**\n * @title Storage\n * @dev Store & retrieve value in a variable\n */\ncontract MultiSigner {\n\n    struct Transaction {\n        address payable to;\n        uint value;\n        bool executed;\n        uint limit;\n        uint id;\n        mapping(address => bool) isConiformed;\n    }\n\n    struct Temp {\n        address to;\n        uint value;\n        bool executed;\n        uint limit;\n        uint id;\n    }\n     Temp[] temp;\n    Transaction[] public transactions;\n    address[] owners;\n    uint public approversLimit;\n    mapping(address => bool) isOwner;\n\n    constructor(address[] memory _owner, uint _limit){\n        require(_owner.length > 0, \"Owners Required !\");\n        require(_limit > 0 && _limit <= _owner.length, \"Invalid number of required approver's !\");\n        for(uint i = 0; i < _owner.length; i++){\n            address owner = _owner[i];\n            require(owner != address(0), \"Invalid Owner !\");\n            require(!isOwner[owner], \"Owner not unique\");\n            isOwner[owner] = true;\n            owners.push(owner);\n        }\n        approversLimit = _limit;\n    }\n\n    modifier onlyOwner(){\n        require(isOwner[msg.sender], \"not owner\");\n        _;\n    }\n\n    modifier txExits(uint _txId){\n        require(_txId < transactions.length, \"transaction does not exit\");\n        _;\n    }\n\n    modifier notExecuted(uint _txId){\n        require(!transactions[_txId].executed, \"transaction already executed\");\n        _;\n    }\n\n    modifier notConiform(uint _txId){\n        require(!transactions[_txId].isConiformed[msg.sender], \"transaction already coniformed\");\n        _;\n    }\n\n    function addOwner(address _add) public onlyOwner{\n        owners.push(_add);\n    }\n\n    function getAllOwnersList() public view returns(address[] memory){\n        return owners;\n    }\n\n    function getTransactionDetails() public view returns(Temp[] memory){\n        return temp;\n    }\n\n    function submitTransaction(address payable _to, uint _value) public onlyOwner {\n        uint nextId = transactions.length;\n        Transaction storage txd = transactions.push();\n        txd.to = _to;\n        txd.value = _value;\n        txd.id = nextId;\n        txd.executed = false;\n        txd.limit = 0;\n\n        Temp memory t1 = Temp(_to, _value, false, 0, nextId);\n        temp.push(t1);\n    }\n\n    function coniformTransaction(uint _txId) public onlyOwner txExits(_txId) notExecuted(_txId) notConiform(_txId) {\n        Transaction storage txd = transactions[_txId];\n        txd.isConiformed[msg.sender] = true;\n        txd.limit += 1;\n    }\n\n    function executeTransaction(uint _txId) public onlyOwner txExits(_txId) notExecuted(_txId){\n        Transaction storage txd = transactions[_txId];\n        require(txd.limit >= approversLimit, \"connot execute, some approver's not approve transaction !\");\n        txd.executed = true;\n        uint amount = txd.value * 10 ** 18;\n        address payable to = txd.to;\n        (bool sent, ) = to.call{value: amount}(\"\");\n        require(sent, \"transfer failed\");\n    }\n}\n",
  "sourcePath": "/Users/rohan1.ranjan/Desktop/BlockC/Chapter-1/Rohan Ranjan/Truffle-MultiSigner/contracts/MultiSigner.sol",
  "compiler": {
    "name": "solc",
    "version": "0.8.11+commit.d7f03943.Emscripten.clang"
  },
  "schemaVersion": "3.4.4",
  "updatedAt": "2022-02-07T06:06:35.876Z",
  "networkType": "ethereum",
  "devdoc": {
    "details": "Store & retrieve value in a variable",
    "kind": "dev",
    "methods": {},
    "title": "Storage",
    "version": 1
  },
  "userdoc": {
    "kind": "user",
    "methods": {},
    "version": 1
  }
}