{
    "contractName": "MultiSigner",
    "abi": [
        {
            "inputs": [],
            "stateMutability": "nonpayable",
            "type": "constructor"
        },
        {
            "inputs": [
                {
                    "internalType": "uint256",
                    "name": "",
                    "type": "uint256"
                }
            ],
            "name": "owner",
            "outputs": [
                {
                    "internalType": "address",
                    "name": "ownerAddress",
                    "type": "address"
                },
                {
                    "internalType": "bool",
                    "name": "status",
                    "type": "bool"
                },
                {
                    "internalType": "uint256",
                    "name": "id",
                    "type": "uint256"
                }
            ],
            "stateMutability": "view",
            "type": "function",
            "constant": true
        },
        {
            "inputs": [],
            "name": "uniqueId",
            "outputs": [
                {
                    "internalType": "uint256",
                    "name": "",
                    "type": "uint256"
                }
            ],
            "stateMutability": "view",
            "type": "function",
            "constant": true
        },
        {
            "inputs": [
                {
                    "internalType": "address",
                    "name": "_add",
                    "type": "address"
                }
            ],
            "name": "addOwner",
            "outputs": [
                {
                    "internalType": "string",
                    "name": "",
                    "type": "string"
                }
            ],
            "stateMutability": "nonpayable",
            "type": "function"
        },
        {
            "inputs": [],
            "name": "approveTransaction",
            "outputs": [
                {
                    "internalType": "string",
                    "name": "",
                    "type": "string"
                }
            ],
            "stateMutability": "nonpayable",
            "type": "function"
        },
        {
            "inputs": [],
            "name": "getAllOwnerList",
            "outputs": [
                {
                    "components": [
                        {
                            "internalType": "address",
                            "name": "ownerAddress",
                            "type": "address"
                        },
                        {
                            "internalType": "bool",
                            "name": "status",
                            "type": "bool"
                        },
                        {
                            "internalType": "uint256",
                            "name": "id",
                            "type": "uint256"
                        }
                    ],
                    "internalType": "struct MultiSigner.OwnerList[]",
                    "name": "",
                    "type": "tuple[]"
                }
            ],
            "stateMutability": "view",
            "type": "function",
            "constant": true
        },
        {
            "inputs": [
                {
                    "internalType": "address payable",
                    "name": "reciver",
                    "type": "address"
                },
                {
                    "internalType": "uint256",
                    "name": "_amount",
                    "type": "uint256"
                }
            ],
            "name": "transaction",
            "outputs": [
                {
                    "internalType": "string",
                    "name": "",
                    "type": "string"
                }
            ],
            "stateMutability": "payable",
            "type": "function",
            "payable": true
        }
    ],
    "bytecode": "0x608060405234801561001057600080fd5b506000600181905550610d99806100286000396000f3fe6080604052600436106100555760003560e01c806333b7a6741461005a578063629c52a9146100855780637065cb48146100b0578063a088ceb6146100ed578063a123c33e1461011d578063d0b317b81461015c575b600080fd5b34801561006657600080fd5b5061006f610187565b60405161007c91906108bc565b60405180910390f35b34801561009157600080fd5b5061009a610203565b6040516100a791906108f7565b60405180910390f35b3480156100bc57600080fd5b506100d760048036038101906100d29190610975565b610209565b6040516100e491906108bc565b60405180910390f35b61010760048036038101906101029190610a0c565b61038d565b60405161011491906108bc565b60405180910390f35b34801561012957600080fd5b50610144600480360381019061013f9190610a4c565b610471565b60405161015393929190610aa3565b60405180910390f35b34801561016857600080fd5b506101716104d8565b60405161017e9190610bf8565b60405180910390f35b60606000610194336105b2565b905080156101e3576101a533610668565b6040518060400160405280600881526020017f417070726f766564000000000000000000000000000000000000000000000000815250915050610200565b604051806060016040528060258152602001610d3f602591399150505b90565b60015481565b60606000610216836105b2565b9050801561025c576040518060400160405280601f81526020017f596f752061726520616c726561647920696e206f776e6572206c697374202100815250915050610388565b600060405180606001604052808573ffffffffffffffffffffffffffffffffffffffff1681526020016000151581526020016001548152509050600081908060018154018082558091505060019003906000526020600020906002020160009091909190915060008201518160000160006101000a81548173ffffffffffffffffffffffffffffffffffffffff021916908373ffffffffffffffffffffffffffffffffffffffff16021790555060208201518160000160146101000a81548160ff0219169083151502179055506040820151816001015550506001600081548092919061034890610c49565b91905055506040518060400160405280601a81526020017f4f776e6572206164646564207375636365737366756c6c792021000000000000815250925050505b919050565b60606000610399610747565b9050600080549050811415610431576000670de0b6b3a7640000846103be9190610c92565b90508473ffffffffffffffffffffffffffffffffffffffff166108fc829081150290604051600060405180830381858888f19350505050158015610406573d6000803e3d6000fd5b5061040f6107c7565b604051806060016040528060238152602001610d1c602391399250505061046b565b6040518060400160405280601981526020017f536f6d65206f776e65722773206e6f7420617070726f766564000000000000008152509150505b92915050565b6000818154811061048157600080fd5b90600052602060002090600202016000915090508060000160009054906101000a900473ffffffffffffffffffffffffffffffffffffffff16908060000160149054906101000a900460ff16908060010154905083565b60606000805480602002602001604051908101604052809291908181526020016000905b828210156105a957838290600052602060002090600202016040518060600160405290816000820160009054906101000a900473ffffffffffffffffffffffffffffffffffffffff1673ffffffffffffffffffffffffffffffffffffffff1673ffffffffffffffffffffffffffffffffffffffff1681526020016000820160149054906101000a900460ff16151515158152602001600182015481525050815260200190600101906104fc565b50505050905090565b600080600090505b60008054905081101561065d578273ffffffffffffffffffffffffffffffffffffffff16600082815481106105f2576105f1610cec565b5b906000526020600020906002020160000160009054906101000a900473ffffffffffffffffffffffffffffffffffffffff1673ffffffffffffffffffffffffffffffffffffffff16141561064a576001915050610663565b808061065590610c49565b9150506105ba565b50600090505b919050565b60005b600080549050811015610743578173ffffffffffffffffffffffffffffffffffffffff16600082815481106106a3576106a2610cec565b5b906000526020600020906002020160000160009054906101000a900473ffffffffffffffffffffffffffffffffffffffff1673ffffffffffffffffffffffffffffffffffffffff1614156107305760016000828154811061070757610706610cec565b5b906000526020600020906002020160000160146101000a81548160ff0219169083151502179055505b808061073b90610c49565b91505061066b565b5050565b6000806000905060005b6000805490508110156107bf57600115156000828154811061077657610775610cec565b5b906000526020600020906002020160000160149054906101000a900460ff16151514156107ac5781806107a890610c49565b9250505b80806107b790610c49565b915050610751565b508091505090565b60005b6000805490508110156108205760001515600082815481106107ef576107ee610cec565b5b906000526020600020906002020160000160149054906101000a90505050808061081890610c49565b9150506107ca565b50565b600081519050919050565b600082825260208201905092915050565b60005b8381101561085d578082015181840152602081019050610842565b8381111561086c576000848401525b50505050565b6000601f19601f8301169050919050565b600061088e82610823565b610898818561082e565b93506108a881856020860161083f565b6108b181610872565b840191505092915050565b600060208201905081810360008301526108d68184610883565b905092915050565b6000819050919050565b6108f1816108de565b82525050565b600060208201905061090c60008301846108e8565b92915050565b600080fd5b600073ffffffffffffffffffffffffffffffffffffffff82169050919050565b600061094282610917565b9050919050565b61095281610937565b811461095d57600080fd5b50565b60008135905061096f81610949565b92915050565b60006020828403121561098b5761098a610912565b5b600061099984828501610960565b91505092915050565b60006109ad82610917565b9050919050565b6109bd816109a2565b81146109c857600080fd5b50565b6000813590506109da816109b4565b92915050565b6109e9816108de565b81146109f457600080fd5b50565b600081359050610a06816109e0565b92915050565b60008060408385031215610a2357610a22610912565b5b6000610a31858286016109cb565b9250506020610a42858286016109f7565b9150509250929050565b600060208284031215610a6257610a61610912565b5b6000610a70848285016109f7565b91505092915050565b610a8281610937565b82525050565b60008115159050919050565b610a9d81610a88565b82525050565b6000606082019050610ab86000830186610a79565b610ac56020830185610a94565b610ad260408301846108e8565b949350505050565b600081519050919050565b600082825260208201905092915050565b6000819050602082019050919050565b610b0f81610937565b82525050565b610b1e81610a88565b82525050565b610b2d816108de565b82525050565b606082016000820151610b496000850182610b06565b506020820151610b5c6020850182610b15565b506040820151610b6f6040850182610b24565b50505050565b6000610b818383610b33565b60608301905092915050565b6000602082019050919050565b6000610ba582610ada565b610baf8185610ae5565b9350610bba83610af6565b8060005b83811015610beb578151610bd28882610b75565b9750610bdd83610b8d565b925050600181019050610bbe565b5085935050505092915050565b60006020820190508181036000830152610c128184610b9a565b905092915050565b7f4e487b7100000000000000000000000000000000000000000000000000000000600052601160045260246000fd5b6000610c54826108de565b91507fffffffffffffffffffffffffffffffffffffffffffffffffffffffffffffffff821415610c8757610c86610c1a565b5b600182019050919050565b6000610c9d826108de565b9150610ca8836108de565b9250817fffffffffffffffffffffffffffffffffffffffffffffffffffffffffffffffff0483118215151615610ce157610ce0610c1a565b5b828202905092915050565b7f4e487b7100000000000000000000000000000000000000000000000000000000600052603260045260246000fdfe5472616e73616374696f6e2073756365737366756c6c7920636f6d706c657465642021596f7520617265206e6f7420696e206f776572206c6973742c20616464796f757273656c66a264697066735822122049edfdfbbb6257b1c8499fbdae2dc02f5464f0702cd37f05080a4a035f2993b164736f6c634300080b0033",
    "immutableReferences": {},
    "source": "// SPDX-License-Identifier: GPL-3.0\n\npragma solidity >=0.7.0 <0.9.0;\n\n/**\n * @title Storage\n * @dev Store & retrieve value in a variable\n */\ncontract MultiSigner {\n\n    struct OwnerList {\n        address ownerAddress;\n        bool status;\n        uint id;\n    }\n\n    OwnerList[] public owner;\n    uint public uniqueId;\n\n    constructor(){\n        uniqueId = 0;\n    }\n\n    function isOnOwnerList(address _add) private view returns(bool){\n        for(uint i = 0; i < owner.length; i++){\n            if(owner[i].ownerAddress ==  _add){\n                return true;\n            }\n        }\n        return false;\n    }\n\n    function addOwner(address _add) public returns(string memory){\n        bool status = isOnOwnerList(_add);\n        if(status){\n            return \"You are already in owner list !\";\n        }\n        OwnerList memory temp = OwnerList(_add, false, uniqueId);\n        owner.push(temp);\n        uniqueId++;\n        return \"Owner added successfully !\";\n    }\n\n    modifier onlyOwner(){\n        bool status = isOnOwnerList(msg.sender);\n        require(status == true, \"You are not in owner list !\");\n        _;\n    }\n\n    modifier isOnOwnerListThere(){\n        require(owner.length != 0, \"There should be minimum one owner list\");\n        _;\n    }\n\n    function approved(address _add) private {\n        for(uint i = 0; i < owner.length; i++){\n            if(owner[i].ownerAddress ==  _add){\n                owner[i].status = true;\n            }\n        }\n    }\n\n    function approveTransaction() public returns(string memory){\n        bool status = isOnOwnerList(msg.sender);\n        if(status){\n            approved(msg.sender);\n            return \"Approved\";\n        }else{\n             return \"You are not in ower list, addyourself\";\n        }\n    }\n\n    function allOwnersAreApproved() private view returns(uint){\n        uint count = 0;\n        for(uint i = 0; i < owner.length; i++){\n            if(owner[i].status == true){\n                count++;\n            }\n        }\n\n        return count;\n    }\n\n    function setStatusBack() private view {\n        for(uint i = 0; i < owner.length; i++){\n            owner[i].status == false;\n        }\n    }\n\n    function getAllOwnerList() public view returns(OwnerList[] memory){\n        return owner;\n    }\n\n    function transaction(address payable reciver, uint _amount) public payable returns(string memory){\n        uint count = allOwnersAreApproved();\n        if(count == owner.length){\n             uint price = _amount * (1 ether);\n            reciver.transfer(price);\n            setStatusBack();\n            return \"Transaction sucessfully completed !\";\n        }else{\n            return \"Some owner's not approved\";\n        }\n\n    }\n\n}\n",
    "sourcePath": "/Users/rohan1.ranjan/Desktop/BlockC/Chapter-1/Rohan Ranjan/Truffle-MultiSigner/contracts/MultiSigner.sol",
    "compiler": {
        "name": "solc",
        "version": "0.8.11+commit.d7f03943.Emscripten.clang"
    },
    "schemaVersion": "3.4.4",
    "updatedAt": "2022-02-06T09:29:23.226Z",
    "networkType": "ethereum",
    "devdoc": {
        "details": "Store & retrieve value in a variable",
        "kind": "dev",
        "methods": {},
        "title": "Storage",
        "version": 1
    },
    "userdoc": {
        "kind": "user",
        "methods": {},
        "version": 1
    }
}