{
  "_format": "hh-sol-artifact-1",
  "contractName": "EmployeeDictionary",
  "sourceName": "contracts/EmployeeDictionary.sol",
  "abi": [
    {
      "inputs": [
        {
          "internalType": "string",
          "name": "_name",
          "type": "string"
        },
        {
          "internalType": "string",
          "name": "_email",
          "type": "string"
        },
        {
          "internalType": "uint256",
          "name": "_age",
          "type": "uint256"
        },
        {
          "internalType": "address",
          "name": "_walletAddress",
          "type": "address"
        }
      ],
      "name": "addEmployee",
      "outputs": [
        {
          "internalType": "uint256",
          "name": "",
          "type": "uint256"
        }
      ],
      "stateMutability": "nonpayable",
      "type": "function"
    },
    {
      "inputs": [
        {
          "internalType": "uint256",
          "name": "_id",
          "type": "uint256"
        }
      ],
      "name": "deleteEmployee",
      "outputs": [],
      "stateMutability": "nonpayable",
      "type": "function"
    },
    {
      "inputs": [],
      "name": "getAllEmployees",
      "outputs": [
        {
          "components": [
            {
              "internalType": "string",
              "name": "name",
              "type": "string"
            },
            {
              "internalType": "string",
              "name": "email",
              "type": "string"
            },
            {
              "internalType": "uint256",
              "name": "age",
              "type": "uint256"
            },
            {
              "internalType": "address",
              "name": "walletAddress",
              "type": "address"
            }
          ],
          "internalType": "struct EmployeeDictionary.Emp[]",
          "name": "",
          "type": "tuple[]"
        }
      ],
      "stateMutability": "view",
      "type": "function"
    },
    {
      "inputs": [
        {
          "internalType": "uint256",
          "name": "_id",
          "type": "uint256"
        }
      ],
      "name": "getEmployee",
      "outputs": [
        {
          "components": [
            {
              "internalType": "string",
              "name": "name",
              "type": "string"
            },
            {
              "internalType": "string",
              "name": "email",
              "type": "string"
            },
            {
              "internalType": "uint256",
              "name": "age",
              "type": "uint256"
            },
            {
              "internalType": "address",
              "name": "walletAddress",
              "type": "address"
            }
          ],
          "internalType": "struct EmployeeDictionary.Emp",
          "name": "",
          "type": "tuple"
        }
      ],
      "stateMutability": "view",
      "type": "function"
    },
    {
      "inputs": [
        {
          "internalType": "uint256",
          "name": "_id",
          "type": "uint256"
        },
        {
          "internalType": "string",
          "name": "_name",
          "type": "string"
        },
        {
          "internalType": "string",
          "name": "_email",
          "type": "string"
        },
        {
          "internalType": "uint256",
          "name": "_age",
          "type": "uint256"
        },
        {
          "internalType": "address",
          "name": "_walletAddress",
          "type": "address"
        }
      ],
      "name": "modifyEmployee",
      "outputs": [],
      "stateMutability": "nonpayable",
      "type": "function"
    }
  ],
  "bytecode": "0x608060405234801561001057600080fd5b50611083806100206000396000f3fe608060405234801561001057600080fd5b50600436106100575760003560e01c80631cbc90c71461005c57806335d69642146100785780635d7a8e60146100a8578063bca9a5c5146100c4578063e3366fed146100f4575b600080fd5b61007660048036038101906100719190610acf565b610112565b005b610092600480360381019061008d9190610a3c565b6101bb565b60405161009f9190610da6565b60405180910390f35b6100c260048036038101906100bd9190610af8565b6102e3565b005b6100de60048036038101906100d99190610acf565b6104b4565b6040516100eb9190610d84565b60405180910390f35b6100fc6106a6565b6040516101099190610d62565b60405180910390f35b60006001826101219190610e6c565b81548110610158577f4e487b7100000000000000000000000000000000000000000000000000000000600052603260045260246000fd5b9060005260206000209060040201600080820160006101779190610889565b6001820160006101879190610889565b60028201600090556003820160006101000a81549073ffffffffffffffffffffffffffffffffffffffff0219169055505050565b60006101c56108c9565b8581600001819052508481602001819052508381604001818152505082816060019073ffffffffffffffffffffffffffffffffffffffff16908173ffffffffffffffffffffffffffffffffffffffff168152505060008190806001815401808255809150506001900390600052602060002090600402016000909190919091506000820151816000019080519060200190610261929190610907565b50602082015181600101908051906020019061027e929190610907565b506040820151816002015560608201518160030160006101000a81548173ffffffffffffffffffffffffffffffffffffffff021916908373ffffffffffffffffffffffffffffffffffffffff1602179055505050600080549050915050949350505050565b8360006001876102f39190610e6c565b8154811061032a577f4e487b7100000000000000000000000000000000000000000000000000000000600052603260045260246000fd5b9060005260206000209060040201600001908051906020019061034e929190610907565b5082600060018761035f9190610e6c565b81548110610396577f4e487b7100000000000000000000000000000000000000000000000000000000600052603260045260246000fd5b906000526020600020906004020160010190805190602001906103ba929190610907565b508160006001876103cb9190610e6c565b81548110610402577f4e487b7100000000000000000000000000000000000000000000000000000000600052603260045260246000fd5b9060005260206000209060040201600201819055508060006001876104279190610e6c565b8154811061045e577f4e487b7100000000000000000000000000000000000000000000000000000000600052603260045260246000fd5b906000526020600020906004020160030160006101000a81548173ffffffffffffffffffffffffffffffffffffffff021916908373ffffffffffffffffffffffffffffffffffffffff1602179055505050505050565b6104bc6108c9565b60006001836104cb9190610e6c565b81548110610502577f4e487b7100000000000000000000000000000000000000000000000000000000600052603260045260246000fd5b906000526020600020906004020160405180608001604052908160008201805461052b90610f1e565b80601f016020809104026020016040519081016040528092919081815260200182805461055790610f1e565b80156105a45780601f10610579576101008083540402835291602001916105a4565b820191906000526020600020905b81548152906001019060200180831161058757829003601f168201915b505050505081526020016001820180546105bd90610f1e565b80601f01602080910402602001604051908101604052809291908181526020018280546105e990610f1e565b80156106365780601f1061060b57610100808354040283529160200191610636565b820191906000526020600020905b81548152906001019060200180831161061957829003601f168201915b50505050508152602001600282015481526020016003820160009054906101000a900473ffffffffffffffffffffffffffffffffffffffff1673ffffffffffffffffffffffffffffffffffffffff1673ffffffffffffffffffffffffffffffffffffffff16815250509050919050565b60606000805480602002602001604051908101604052809291908181526020016000905b8282101561088057838290600052602060002090600402016040518060800160405290816000820180546106fd90610f1e565b80601f016020809104026020016040519081016040528092919081815260200182805461072990610f1e565b80156107765780601f1061074b57610100808354040283529160200191610776565b820191906000526020600020905b81548152906001019060200180831161075957829003601f168201915b5050505050815260200160018201805461078f90610f1e565b80601f01602080910402602001604051908101604052809291908181526020018280546107bb90610f1e565b80156108085780601f106107dd57610100808354040283529160200191610808565b820191906000526020600020905b8154815290600101906020018083116107eb57829003601f168201915b50505050508152602001600282015481526020016003820160009054906101000a900473ffffffffffffffffffffffffffffffffffffffff1673ffffffffffffffffffffffffffffffffffffffff1673ffffffffffffffffffffffffffffffffffffffff1681525050815260200190600101906106ca565b50505050905090565b50805461089590610f1e565b6000825580601f106108a757506108c6565b601f0160209004906000526020600020908101906108c5919061098d565b5b50565b6040518060800160405280606081526020016060815260200160008152602001600073ffffffffffffffffffffffffffffffffffffffff1681525090565b82805461091390610f1e565b90600052602060002090601f016020900481019282610935576000855561097c565b82601f1061094e57805160ff191683800117855561097c565b8280016001018555821561097c579182015b8281111561097b578251825591602001919060010190610960565b5b509050610989919061098d565b5090565b5b808211156109a657600081600090555060010161098e565b5090565b60006109bd6109b884610de6565b610dc1565b9050828152602081018484840111156109d557600080fd5b6109e0848285610edc565b509392505050565b6000813590506109f78161101f565b92915050565b600082601f830112610a0e57600080fd5b8135610a1e8482602086016109aa565b91505092915050565b600081359050610a3681611036565b92915050565b60008060008060808587031215610a5257600080fd5b600085013567ffffffffffffffff811115610a6c57600080fd5b610a78878288016109fd565b945050602085013567ffffffffffffffff811115610a9557600080fd5b610aa1878288016109fd565b9350506040610ab287828801610a27565b9250506060610ac3878288016109e8565b91505092959194509250565b600060208284031215610ae157600080fd5b6000610aef84828501610a27565b91505092915050565b600080600080600060a08688031215610b1057600080fd5b6000610b1e88828901610a27565b955050602086013567ffffffffffffffff811115610b3b57600080fd5b610b47888289016109fd565b945050604086013567ffffffffffffffff811115610b6457600080fd5b610b70888289016109fd565b9350506060610b8188828901610a27565b9250506080610b92888289016109e8565b9150509295509295909350565b6000610bab8383610c70565b905092915050565b610bbc81610ea0565b82525050565b6000610bcd82610e27565b610bd78185610e4a565b935083602082028501610be985610e17565b8060005b85811015610c255784840389528151610c068582610b9f565b9450610c1183610e3d565b925060208a01995050600181019050610bed565b50829750879550505050505092915050565b6000610c4282610e32565b610c4c8185610e5b565b9350610c5c818560208601610eeb565b610c658161100e565b840191505092915050565b60006080830160008301518482036000860152610c8d8282610c37565b91505060208301518482036020860152610ca78282610c37565b9150506040830151610cbc6040860182610d44565b506060830151610ccf6060860182610bb3565b508091505092915050565b60006080830160008301518482036000860152610cf78282610c37565b91505060208301518482036020860152610d118282610c37565b9150506040830151610d266040860182610d44565b506060830151610d396060860182610bb3565b508091505092915050565b610d4d81610ed2565b82525050565b610d5c81610ed2565b82525050565b60006020820190508181036000830152610d7c8184610bc2565b905092915050565b60006020820190508181036000830152610d9e8184610cda565b905092915050565b6000602082019050610dbb6000830184610d53565b92915050565b6000610dcb610ddc565b9050610dd78282610f50565b919050565b6000604051905090565b600067ffffffffffffffff821115610e0157610e00610fdf565b5b610e0a8261100e565b9050602081019050919050565b6000819050602082019050919050565b600081519050919050565b600081519050919050565b6000602082019050919050565b600082825260208201905092915050565b600082825260208201905092915050565b6000610e7782610ed2565b9150610e8283610ed2565b925082821015610e9557610e94610f81565b5b828203905092915050565b6000610eab82610eb2565b9050919050565b600073ffffffffffffffffffffffffffffffffffffffff82169050919050565b6000819050919050565b82818337600083830152505050565b60005b83811015610f09578082015181840152602081019050610eee565b83811115610f18576000848401525b50505050565b60006002820490506001821680610f3657607f821691505b60208210811415610f4a57610f49610fb0565b5b50919050565b610f598261100e565b810181811067ffffffffffffffff82111715610f7857610f77610fdf565b5b80604052505050565b7f4e487b7100000000000000000000000000000000000000000000000000000000600052601160045260246000fd5b7f4e487b7100000000000000000000000000000000000000000000000000000000600052602260045260246000fd5b7f4e487b7100000000000000000000000000000000000000000000000000000000600052604160045260246000fd5b6000601f19601f8301169050919050565b61102881610ea0565b811461103357600080fd5b50565b61103f81610ed2565b811461104a57600080fd5b5056fea2646970667358221220c73227955a24c23df02172dbd719099fa19f68ed4aa835833e8530c329664a0e64736f6c63430008040033",
  "linkReferences": {},
  "deployedLinkReferences": {}
}