{
  "_format": "hh-sol-artifact-1",
  "contractName": "Employe",
  "sourceName": "contracts/Greeter.sol",
  "abi": [
    {
      "inputs": [
        {
          "internalType": "uint256",
          "name": "_id",
          "type": "uint256"
        },
        {
          "internalType": "string",
          "name": "_name",
          "type": "string"
        },
        {
          "internalType": "string",
          "name": "_email",
          "type": "string"
        },
        {
          "internalType": "uint256",
          "name": "_age",
          "type": "uint256"
        },
        {
          "internalType": "address",
          "name": "_walletAddress",
          "type": "address"
        }
      ],
      "name": "Employee",
      "outputs": [],
      "stateMutability": "nonpayable",
      "type": "function"
    },
    {
      "inputs": [],
      "name": "deleteDetails",
      "outputs": [],
      "stateMutability": "nonpayable",
      "type": "function"
    },
    {
      "inputs": [],
      "name": "getDetails",
      "outputs": [
        {
          "internalType": "uint256",
          "name": "",
          "type": "uint256"
        },
        {
          "internalType": "string",
          "name": "",
          "type": "string"
        },
        {
          "internalType": "string",
          "name": "",
          "type": "string"
        },
        {
          "internalType": "uint256",
          "name": "",
          "type": "uint256"
        },
        {
          "internalType": "address",
          "name": "",
          "type": "address"
        }
      ],
      "stateMutability": "view",
      "type": "function"
    },
    {
      "inputs": [
        {
          "internalType": "uint256",
          "name": "_id",
          "type": "uint256"
        }
      ],
      "name": "getEmployee",
      "outputs": [
        {
          "internalType": "uint256",
          "name": "",
          "type": "uint256"
        },
        {
          "internalType": "string",
          "name": "",
          "type": "string"
        },
        {
          "internalType": "string",
          "name": "",
          "type": "string"
        },
        {
          "internalType": "uint256",
          "name": "",
          "type": "uint256"
        },
        {
          "internalType": "address",
          "name": "",
          "type": "address"
        }
      ],
      "stateMutability": "view",
      "type": "function"
    },
    {
      "inputs": [
        {
          "internalType": "string",
          "name": "_name",
          "type": "string"
        }
      ],
      "name": "getId",
      "outputs": [
        {
          "internalType": "uint256",
          "name": "",
          "type": "uint256"
        }
      ],
      "stateMutability": "view",
      "type": "function"
    }
  ],
  "bytecode": "0x608060405234801561001057600080fd5b50610a67806100206000396000f3fe608060405234801561001057600080fd5b50600436106100575760003560e01c8063405b769e1461005c5780638dff391f14610066578063bca9a5c514610082578063bee51f3b146100b6578063fbbf93a0146100e6575b600080fd5b610064610108565b005b610080600480360381019061007b91906106a7565b6101a7565b005b61009c6004803603810190610097919061067a565b61022b565b6040516100ad9594939291906107cc565b60405180910390f35b6100d060048036038101906100cb9190610631565b61038b565b6040516100dd91906107b1565b60405180910390f35b6100ee610396565b6040516100ff9594939291906107cc565b60405180910390f35b6000808190555060405180602001604052806000815250600190805190602001906101349291906104f4565b50604051806020016040528060008152506002908051906020019061015a9291906104f4565b5060006003819055506000600460006101000a81548173ffffffffffffffffffffffffffffffffffffffff021916908373ffffffffffffffffffffffffffffffffffffffff160217905550565b8460008190555083600190805190602001906101c49291906104f4565b508160038190555082600290805190602001906101e29291906104f4565b5080600460006101000a81548173ffffffffffffffffffffffffffffffffffffffff021916908373ffffffffffffffffffffffffffffffffffffffff1602179055505050505050565b600060608060008060005460016002600354600460009054906101000a900473ffffffffffffffffffffffffffffffffffffffff1683805461026c9061091d565b80601f01602080910402602001604051908101604052809291908181526020018280546102989061091d565b80156102e55780601f106102ba576101008083540402835291602001916102e5565b820191906000526020600020905b8154815290600101906020018083116102c857829003601f168201915b505050505093508280546102f89061091d565b80601f01602080910402602001604051908101604052809291908181526020018280546103249061091d565b80156103715780601f1061034657610100808354040283529160200191610371565b820191906000526020600020905b81548152906001019060200180831161035457829003601f168201915b505050505092509450945094509450945091939590929450565b600080549050919050565b600060608060008060005460016002600354600460009054906101000a900473ffffffffffffffffffffffffffffffffffffffff168380546103d79061091d565b80601f01602080910402602001604051908101604052809291908181526020018280546104039061091d565b80156104505780601f1061042557610100808354040283529160200191610450565b820191906000526020600020905b81548152906001019060200180831161043357829003601f168201915b505050505093508280546104639061091d565b80601f016020809104026020016040519081016040528092919081815260200182805461048f9061091d565b80156104dc5780601f106104b1576101008083540402835291602001916104dc565b820191906000526020600020905b8154815290600101906020018083116104bf57829003601f168201915b50505050509250945094509450945094509091929394565b8280546105009061091d565b90600052602060002090601f0160209004810192826105225760008555610569565b82601f1061053b57805160ff1916838001178555610569565b82800160010185558215610569579182015b8281111561056857825182559160200191906001019061054d565b5b509050610576919061057a565b5090565b5b8082111561059357600081600090555060010161057b565b5090565b60006105aa6105a584610852565b61082d565b9050828152602081018484840111156105c6576105c56109e3565b5b6105d18482856108db565b509392505050565b6000813590506105e881610a03565b92915050565b600082601f830112610603576106026109de565b5b8135610613848260208601610597565b91505092915050565b60008135905061062b81610a1a565b92915050565b600060208284031215610647576106466109ed565b5b600082013567ffffffffffffffff811115610665576106646109e8565b5b610671848285016105ee565b91505092915050565b6000602082840312156106905761068f6109ed565b5b600061069e8482850161061c565b91505092915050565b600080600080600060a086880312156106c3576106c26109ed565b5b60006106d18882890161061c565b955050602086013567ffffffffffffffff8111156106f2576106f16109e8565b5b6106fe888289016105ee565b945050604086013567ffffffffffffffff81111561071f5761071e6109e8565b5b61072b888289016105ee565b935050606061073c8882890161061c565b925050608061074d888289016105d9565b9150509295509295909350565b6107638161089f565b82525050565b600061077482610883565b61077e818561088e565b935061078e8185602086016108ea565b610797816109f2565b840191505092915050565b6107ab816108d1565b82525050565b60006020820190506107c660008301846107a2565b92915050565b600060a0820190506107e160008301886107a2565b81810360208301526107f38187610769565b905081810360408301526108078186610769565b905061081660608301856107a2565b610823608083018461075a565b9695505050505050565b6000610837610848565b9050610843828261094f565b919050565b6000604051905090565b600067ffffffffffffffff82111561086d5761086c6109af565b5b610876826109f2565b9050602081019050919050565b600081519050919050565b600082825260208201905092915050565b60006108aa826108b1565b9050919050565b600073ffffffffffffffffffffffffffffffffffffffff82169050919050565b6000819050919050565b82818337600083830152505050565b60005b838110156109085780820151818401526020810190506108ed565b83811115610917576000848401525b50505050565b6000600282049050600182168061093557607f821691505b6020821081141561094957610948610980565b5b50919050565b610958826109f2565b810181811067ffffffffffffffff82111715610977576109766109af565b5b80604052505050565b7f4e487b7100000000000000000000000000000000000000000000000000000000600052602260045260246000fd5b7f4e487b7100000000000000000000000000000000000000000000000000000000600052604160045260246000fd5b600080fd5b600080fd5b600080fd5b600080fd5b6000601f19601f8301169050919050565b610a0c8161089f565b8114610a1757600080fd5b50565b610a23816108d1565b8114610a2e57600080fd5b5056fea26469706673582212200dd2edb0ef8fa46aa7167aa8afb13c50d84b8b4ed7d51ee6f0825512dc70f15664736f6c63430008060033",
  "linkReferences": {},
  "deployedLinkReferences": {}
}