{
  "contractName": "Price",
  "abi": [
    {
      "inputs": [
        {
          "internalType": "uint256",
          "name": "_price",
          "type": "uint256"
        }
      ],
      "stateMutability": "nonpayable",
      "type": "constructor"
    },
    {
      "inputs": [],
      "name": "owner",
      "outputs": [
        {
          "internalType": "address",
          "name": "",
          "type": "address"
        }
      ],
      "stateMutability": "view",
      "type": "function",
      "constant": true
    },
    {
      "inputs": [],
      "name": "price",
      "outputs": [
        {
          "internalType": "uint256",
          "name": "",
          "type": "uint256"
        }
      ],
      "stateMutability": "view",
      "type": "function",
      "constant": true
    },
    {
      "inputs": [
        {
          "internalType": "uint256",
          "name": "_price",
          "type": "uint256"
        }
      ],
      "name": "updatePrice",
      "outputs": [],
      "stateMutability": "nonpayable",
      "type": "function"
    }
  ],
  "bytecode": "0x608060405234801561001057600080fd5b506040516102ef3803806102ef833981810160405281019061003291906100bb565b8060008190555033600160006101000a81548173ffffffffffffffffffffffffffffffffffffffff021916908373ffffffffffffffffffffffffffffffffffffffff160217905550506100e8565b600080fd5b6000819050919050565b61009881610085565b81146100a357600080fd5b50565b6000815190506100b58161008f565b92915050565b6000602082840312156100d1576100d0610080565b5b60006100df848285016100a6565b91505092915050565b6101f8806100f76000396000f3fe608060405234801561001057600080fd5b50600436106100415760003560e01c80638d6cc56d146100465780638da5cb5b14610062578063a035b1fe14610080575b600080fd5b610060600480360381019061005b919061010f565b61009e565b005b61006a6100a8565b604051610077919061017d565b60405180910390f35b6100886100ce565b60405161009591906101a7565b60405180910390f35b8060008190555050565b600160009054906101000a900473ffffffffffffffffffffffffffffffffffffffff1681565b60005481565b600080fd5b6000819050919050565b6100ec816100d9565b81146100f757600080fd5b50565b600081359050610109816100e3565b92915050565b600060208284031215610125576101246100d4565b5b6000610133848285016100fa565b91505092915050565b600073ffffffffffffffffffffffffffffffffffffffff82169050919050565b60006101678261013c565b9050919050565b6101778161015c565b82525050565b6000602082019050610192600083018461016e565b92915050565b6101a1816100d9565b82525050565b60006020820190506101bc6000830184610198565b9291505056fea264697066735822122090f7a6b30cd7cb6c2da15c8f93a484acbdfbb562f6ff6e16527e6a276a4e585464736f6c634300080b0033",
  "immutableReferences": {},
  "source": "// SPDX-License-Identifier: MIT\r\npragma solidity ^0.8.9;\r\n\r\ncontract Price {\r\n\tuint256 public price;\r\n  address public owner;\r\n\t\r\n\tconstructor(uint256 _price) {\r\n\t\tprice = _price;\r\n    owner = msg.sender;\r\n\t}\r\n\r\n\tfunction updatePrice(uint256 _price) external {\r\n\t\tprice = _price;\r\n\t}\r\n}",
  "sourcePath": "C:\\Users\\Suman\\Desktop\\Blockchain\\Blockchain\\Chapter-1\\Chapter-1\\Suman_Chakraborty\\Week8AccessControlTesting\\AccessControl\\contracts\\Price.sol",
  "compiler": {
    "name": "solc",
    "version": "0.8.11+commit.d7f03943.Emscripten.clang"
  },
  "schemaVersion": "3.4.5",
  "updatedAt": "2022-03-02T15:10:31.770Z",
  "networkType": "ethereum",
  "devdoc": {
    "kind": "dev",
    "methods": {},
    "version": 1
  },
  "userdoc": {
    "kind": "user",
    "methods": {},
    "version": 1
  }
}