{
  "_format": "hh-sol-artifact-1",
  "contractName": "Employee",
  "sourceName": "contracts/Employee.sol",
  "abi": [
    {
      "inputs": [],
      "stateMutability": "nonpayable",
      "type": "constructor"
    },
    {
      "inputs": [
        {
          "components": [
            {
              "internalType": "uint256",
              "name": "id",
              "type": "uint256"
            },
            {
              "internalType": "string",
              "name": "name",
              "type": "string"
            },
            {
              "internalType": "string",
              "name": "email",
              "type": "string"
            },
            {
              "internalType": "uint256",
              "name": "age",
              "type": "uint256"
            },
            {
              "internalType": "string",
              "name": "wallet",
              "type": "string"
            }
          ],
          "internalType": "struct Employee.EmployeeStruct",
          "name": "_Employee",
          "type": "tuple"
        }
      ],
      "name": "createEmployee",
      "outputs": [
        {
          "internalType": "uint256",
          "name": "",
          "type": "uint256"
        }
      ],
      "stateMutability": "nonpayable",
      "type": "function"
    },
    {
      "inputs": [
        {
          "internalType": "uint256",
          "name": "id",
          "type": "uint256"
        }
      ],
      "name": "deleteEmp",
      "outputs": [
        {
          "internalType": "string",
          "name": "",
          "type": "string"
        }
      ],
      "stateMutability": "nonpayable",
      "type": "function"
    },
    {
      "inputs": [],
      "name": "getAllEmployee",
      "outputs": [
        {
          "components": [
            {
              "internalType": "uint256",
              "name": "id",
              "type": "uint256"
            },
            {
              "internalType": "string",
              "name": "name",
              "type": "string"
            },
            {
              "internalType": "string",
              "name": "email",
              "type": "string"
            },
            {
              "internalType": "uint256",
              "name": "age",
              "type": "uint256"
            },
            {
              "internalType": "string",
              "name": "wallet",
              "type": "string"
            }
          ],
          "internalType": "struct Employee.EmployeeStruct[]",
          "name": "",
          "type": "tuple[]"
        }
      ],
      "stateMutability": "view",
      "type": "function"
    },
    {
      "inputs": [
        {
          "internalType": "uint256",
          "name": "id",
          "type": "uint256"
        }
      ],
      "name": "getEmployee",
      "outputs": [
        {
          "components": [
            {
              "internalType": "uint256",
              "name": "id",
              "type": "uint256"
            },
            {
              "internalType": "string",
              "name": "name",
              "type": "string"
            },
            {
              "internalType": "string",
              "name": "email",
              "type": "string"
            },
            {
              "internalType": "uint256",
              "name": "age",
              "type": "uint256"
            },
            {
              "internalType": "string",
              "name": "wallet",
              "type": "string"
            }
          ],
          "internalType": "struct Employee.EmployeeStruct",
          "name": "",
          "type": "tuple"
        }
      ],
      "stateMutability": "view",
      "type": "function"
    },
    {
      "inputs": [
        {
          "internalType": "uint256",
          "name": "id",
          "type": "uint256"
        },
        {
          "components": [
            {
              "internalType": "uint256",
              "name": "id",
              "type": "uint256"
            },
            {
              "internalType": "string",
              "name": "name",
              "type": "string"
            },
            {
              "internalType": "string",
              "name": "email",
              "type": "string"
            },
            {
              "internalType": "uint256",
              "name": "age",
              "type": "uint256"
            },
            {
              "internalType": "string",
              "name": "wallet",
              "type": "string"
            }
          ],
          "internalType": "struct Employee.EmployeeStruct",
          "name": "_UpdatedEmployee",
          "type": "tuple"
        }
      ],
      "name": "updateEmployee",
      "outputs": [
        {
          "components": [
            {
              "internalType": "uint256",
              "name": "id",
              "type": "uint256"
            },
            {
              "internalType": "string",
              "name": "name",
              "type": "string"
            },
            {
              "internalType": "string",
              "name": "email",
              "type": "string"
            },
            {
              "internalType": "uint256",
              "name": "age",
              "type": "uint256"
            },
            {
              "internalType": "string",
              "name": "wallet",
              "type": "string"
            }
          ],
          "internalType": "struct Employee.EmployeeStruct",
          "name": "",
          "type": "tuple"
        }
      ],
      "stateMutability": "nonpayable",
      "type": "function"
    }
  ],
  "bytecode": "0x60806040523480156200001157600080fd5b506200005d6040518060400160405280600681526020017f69742072616e00000000000000000000000000000000000000000000000000008152506200006360201b62000ba81760201c565b620001f7565b62000103816040516024016200007a919062000170565b6040516020818303038152906040527f41304fac000000000000000000000000000000000000000000000000000000007bffffffffffffffffffffffffffffffffffffffffffffffffffffffff19166020820180517bffffffffffffffffffffffffffffffffffffffffffffffffffffffff83818316178352505050506200010660201b60201c565b50565b60008151905060006a636f6e736f6c652e6c6f679050602083016000808483855afa5050505050565b60006200013c8262000194565b6200014881856200019f565b93506200015a818560208601620001b0565b6200016581620001e6565b840191505092915050565b600060208201905081810360008301526200018c81846200012f565b905092915050565b600081519050919050565b600082825260208201905092915050565b60005b83811015620001d0578082015181840152602081019050620001b3565b83811115620001e0576000848401525b50505050565b6000601f19601f8301169050919050565b6115ee80620002076000396000f3fe608060405234801561001057600080fd5b50600436106100575760003560e01c8063021629c11461005c57806348ce16ba1461008c5780636cff9c7b146100bc578063bca9a5c5146100da578063c73a18641461010a575b600080fd5b61007660048036038101906100719190611030565b61013a565b60405161008391906112f0565b60405180910390f35b6100a660048036038101906100a19190610fef565b61020e565b6040516100b39190611334565b60405180910390f35b6100c4610373565b6040516100d191906112ce565b60405180910390f35b6100f460048036038101906100ef9190611030565b61059c565b6040516101019190611312565b60405180910390f35b610124600480360381019061011f9190611059565b610846565b6040516101319190611312565b60405180910390f35b606061014582610c41565b6001600281548110610180577f4e487b7100000000000000000000000000000000000000000000000000000000600052603260045260246000fd5b90600052602060002090600502016000808201600090556001820160006101a79190610d03565b6002820160006101b79190610d03565b60038201600090556004820160006101cf9190610d03565b50506040518060400160405280601481526020017f656d706c6f79656520676f742064656c657465640000000000000000000000008152509050919050565b600081600001516000819055506040518060a00160405280836000015181526020018360200151815260200183604001518152602001836060015181526020018360800151815250600260008201518160000155602082015181600101908051906020019061027e929190610d43565b50604082015181600201908051906020019061029b929190610d43565b506060820151816003015560808201518160040190805190602001906102c2929190610d43565b5090505060016002908060018154018082558091505060019003906000526020600020906005020160009091909190915060008201548160000155600182018160010190805461031190611457565b61031c929190610dc9565b50600282018160020190805461033190611457565b61033c929190610dc9565b5060038201548160030155600482018160040190805461035b90611457565b610366929190610dc9565b5050506000549050919050565b60606001805480602002602001604051908101604052809291908181526020016000905b8282101561059357838290600052602060002090600502016040518060a0016040529081600082015481526020016001820180546103d490611457565b80601f016020809104026020016040519081016040528092919081815260200182805461040090611457565b801561044d5780601f106104225761010080835404028352916020019161044d565b820191906000526020600020905b81548152906001019060200180831161043057829003601f168201915b5050505050815260200160028201805461046690611457565b80601f016020809104026020016040519081016040528092919081815260200182805461049290611457565b80156104df5780601f106104b4576101008083540402835291602001916104df565b820191906000526020600020905b8154815290600101906020018083116104c257829003601f168201915b505050505081526020016003820154815260200160048201805461050290611457565b80601f016020809104026020016040519081016040528092919081815260200182805461052e90611457565b801561057b5780601f106105505761010080835404028352916020019161057b565b820191906000526020600020905b81548152906001019060200180831161055e57829003601f168201915b50505050508152505081526020019060010190610397565b50505050905090565b6105a4610e56565b60005b60018054905081101561083f5782600182815481106105ef577f4e487b7100000000000000000000000000000000000000000000000000000000600052603260045260246000fd5b906000526020600020906005020160000154141561082c5760018181548110610641577f4e487b7100000000000000000000000000000000000000000000000000000000600052603260045260246000fd5b90600052602060002090600502016040518060a00160405290816000820154815260200160018201805461067490611457565b80601f01602080910402602001604051908101604052809291908181526020018280546106a090611457565b80156106ed5780601f106106c2576101008083540402835291602001916106ed565b820191906000526020600020905b8154815290600101906020018083116106d057829003601f168201915b5050505050815260200160028201805461070690611457565b80601f016020809104026020016040519081016040528092919081815260200182805461073290611457565b801561077f5780601f106107545761010080835404028352916020019161077f565b820191906000526020600020905b81548152906001019060200180831161076257829003601f168201915b50505050508152602001600382015481526020016004820180546107a290611457565b80601f01602080910402602001604051908101604052809291908181526020018280546107ce90611457565b801561081b5780601f106107f05761010080835404028352916020019161081b565b820191906000526020600020905b8154815290600101906020018083116107fe57829003601f168201915b505050505081525050915050610841565b8080610837906114ba565b9150506105a7565b505b919050565b61084e610e56565b60005b600180549050811015610ba0578360018281548110610899577f4e487b7100000000000000000000000000000000000000000000000000000000600052603260045260246000fd5b9060005260206000209060050201600001541415610b8d5782600182815481106108ec577f4e487b7100000000000000000000000000000000000000000000000000000000600052603260045260246000fd5b9060005260206000209060050201600082015181600001556020820151816001019080519060200190610920929190610d43565b50604082015181600201908051906020019061093d929190610d43565b50606082015181600301556080820151816004019080519060200190610964929190610d43565b50905050600181815481106109a2577f4e487b7100000000000000000000000000000000000000000000000000000000600052603260045260246000fd5b90600052602060002090600502016040518060a0016040529081600082015481526020016001820180546109d590611457565b80601f0160208091040260200160405190810160405280929190818152602001828054610a0190611457565b8015610a4e5780601f10610a2357610100808354040283529160200191610a4e565b820191906000526020600020905b815481529060010190602001808311610a3157829003601f168201915b50505050508152602001600282018054610a6790611457565b80601f0160208091040260200160405190810160405280929190818152602001828054610a9390611457565b8015610ae05780601f10610ab557610100808354040283529160200191610ae0565b820191906000526020600020905b815481529060010190602001808311610ac357829003601f168201915b5050505050815260200160038201548152602001600482018054610b0390611457565b80601f0160208091040260200160405190810160405280929190818152602001828054610b2f90611457565b8015610b7c5780601f10610b5157610100808354040283529160200191610b7c565b820191906000526020600020905b815481529060010190602001808311610b5f57829003601f168201915b505050505081525050915050610ba2565b8080610b98906114ba565b915050610851565b505b92915050565b610c3e81604051602401610bbc91906112f0565b6040516020818303038152906040527f41304fac000000000000000000000000000000000000000000000000000000007bffffffffffffffffffffffffffffffffffffffffffffffffffffffff19166020820180517bffffffffffffffffffffffffffffffffffffffffffffffffffffffff8381831617835250505050610cda565b50565b610cd781604051602401610c559190611334565b6040516020818303038152906040527ff5b1bba9000000000000000000000000000000000000000000000000000000007bffffffffffffffffffffffffffffffffffffffffffffffffffffffff19166020820180517bffffffffffffffffffffffffffffffffffffffffffffffffffffffff8381831617835250505050610cda565b50565b60008151905060006a636f6e736f6c652e6c6f679050602083016000808483855afa5050505050565b508054610d0f90611457565b6000825580601f10610d215750610d40565b601f016020900490600052602060002090810190610d3f9190610e85565b5b50565b828054610d4f90611457565b90600052602060002090601f016020900481019282610d715760008555610db8565b82601f10610d8a57805160ff1916838001178555610db8565b82800160010185558215610db8579182015b82811115610db7578251825591602001919060010190610d9c565b5b509050610dc59190610e85565b5090565b828054610dd590611457565b90600052602060002090601f016020900481019282610df75760008555610e45565b82601f10610e085780548555610e45565b82800160010185558215610e4557600052602060002091601f016020900482015b82811115610e44578254825591600101919060010190610e29565b5b509050610e529190610e85565b5090565b6040518060a0016040528060008152602001606081526020016060815260200160008152602001606081525090565b5b80821115610e9e576000816000905550600101610e86565b5090565b6000610eb5610eb084611374565b61134f565b905082815260208101848484011115610ecd57600080fd5b610ed8848285611415565b509392505050565b600082601f830112610ef157600080fd5b8135610f01848260208601610ea2565b91505092915050565b600060a08284031215610f1c57600080fd5b610f2660a061134f565b90506000610f3684828501610fda565b600083015250602082013567ffffffffffffffff811115610f5657600080fd5b610f6284828501610ee0565b602083015250604082013567ffffffffffffffff811115610f8257600080fd5b610f8e84828501610ee0565b6040830152506060610fa284828501610fda565b606083015250608082013567ffffffffffffffff811115610fc257600080fd5b610fce84828501610ee0565b60808301525092915050565b600081359050610fe9816115a1565b92915050565b60006020828403121561100157600080fd5b600082013567ffffffffffffffff81111561101b57600080fd5b61102784828501610f0a565b91505092915050565b60006020828403121561104257600080fd5b600061105084828501610fda565b91505092915050565b6000806040838503121561106c57600080fd5b600061107a85828601610fda565b925050602083013567ffffffffffffffff81111561109757600080fd5b6110a385828601610f0a565b9150509250929050565b60006110b983836111a8565b905092915050565b60006110cc826113b5565b6110d681856113d8565b9350836020820285016110e8856113a5565b8060005b85811015611124578484038952815161110585826110ad565b9450611110836113cb565b925060208a019950506001810190506110ec565b50829750879550505050505092915050565b6000611141826113c0565b61114b81856113e9565b935061115b818560208601611424565b61116481611590565b840191505092915050565b600061117a826113c0565b61118481856113fa565b9350611194818560208601611424565b61119d81611590565b840191505092915050565b600060a0830160008301516111c060008601826112b0565b50602083015184820360208601526111d88282611136565b915050604083015184820360408601526111f28282611136565b915050606083015161120760608601826112b0565b506080830151848203608086015261121f8282611136565b9150508091505092915050565b600060a08301600083015161124460008601826112b0565b506020830151848203602086015261125c8282611136565b915050604083015184820360408601526112768282611136565b915050606083015161128b60608601826112b0565b50608083015184820360808601526112a38282611136565b9150508091505092915050565b6112b98161140b565b82525050565b6112c88161140b565b82525050565b600060208201905081810360008301526112e881846110c1565b905092915050565b6000602082019050818103600083015261130a818461116f565b905092915050565b6000602082019050818103600083015261132c818461122c565b905092915050565b600060208201905061134960008301846112bf565b92915050565b600061135961136a565b90506113658282611489565b919050565b6000604051905090565b600067ffffffffffffffff82111561138f5761138e611561565b5b61139882611590565b9050602081019050919050565b6000819050602082019050919050565b600081519050919050565b600081519050919050565b6000602082019050919050565b600082825260208201905092915050565b600082825260208201905092915050565b600082825260208201905092915050565b6000819050919050565b82818337600083830152505050565b60005b83811015611442578082015181840152602081019050611427565b83811115611451576000848401525b50505050565b6000600282049050600182168061146f57607f821691505b6020821081141561148357611482611532565b5b50919050565b61149282611590565b810181811067ffffffffffffffff821117156114b1576114b0611561565b5b80604052505050565b60006114c58261140b565b91507fffffffffffffffffffffffffffffffffffffffffffffffffffffffffffffffff8214156114f8576114f7611503565b5b600182019050919050565b7f4e487b7100000000000000000000000000000000000000000000000000000000600052601160045260246000fd5b7f4e487b7100000000000000000000000000000000000000000000000000000000600052602260045260246000fd5b7f4e487b7100000000000000000000000000000000000000000000000000000000600052604160045260246000fd5b6000601f19601f8301169050919050565b6115aa8161140b565b81146115b557600080fd5b5056fea2646970667358221220b7bf5294638cf070761d81862973223875726d6552e4e8f14f0fb53c0c96690464736f6c63430008040033",
  "linkReferences": {},
  "deployedLinkReferences": {}
}