{
  "contractName": "MultiSignWallet",
  "abi": [
    {
      "inputs": [],
      "stateMutability": "nonpayable",
      "type": "constructor"
    },
    {
      "inputs": [],
      "name": "addFund",
      "outputs": [],
      "stateMutability": "payable",
      "type": "function",
      "payable": true
    },
    {
      "inputs": [
        {
          "internalType": "address",
          "name": "_newOwner",
          "type": "address"
        }
      ],
      "name": "addOwner",
      "outputs": [],
      "stateMutability": "nonpayable",
      "type": "function"
    },
    {
      "inputs": [
        {
          "internalType": "uint256",
          "name": "_id",
          "type": "uint256"
        }
      ],
      "name": "getTransaction",
      "outputs": [
        {
          "internalType": "uint256",
          "name": "",
          "type": "uint256"
        },
        {
          "internalType": "address",
          "name": "",
          "type": "address"
        },
        {
          "internalType": "uint256[]",
          "name": "",
          "type": "uint256[]"
        },
        {
          "internalType": "bool",
          "name": "",
          "type": "bool"
        },
        {
          "internalType": "uint256",
          "name": "",
          "type": "uint256"
        }
      ],
      "stateMutability": "view",
      "type": "function",
      "constant": true
    },
    {
      "inputs": [
        {
          "internalType": "uint256",
          "name": "_amount",
          "type": "uint256"
        },
        {
          "internalType": "uint256",
          "name": "_threshold",
          "type": "uint256"
        },
        {
          "internalType": "address payable",
          "name": "_to",
          "type": "address"
        }
      ],
      "name": "addTransaction",
      "outputs": [],
      "stateMutability": "nonpayable",
      "type": "function"
    },
    {
      "inputs": [
        {
          "internalType": "uint256",
          "name": "_id",
          "type": "uint256"
        }
      ],
      "name": "approveTransaction",
      "outputs": [],
      "stateMutability": "payable",
      "type": "function",
      "payable": true
    }
  ],
  "bytecode": "0x608060405234801561001057600080fd5b5060006040518060400160405280600181526020013373ffffffffffffffffffffffffffffffffffffffff1681525090806001815401808255809150506001900390600052602060002090600202016000909190919091506000820151816000015560208201518160010160006101000a81548173ffffffffffffffffffffffffffffffffffffffff021916908373ffffffffffffffffffffffffffffffffffffffff160217905550505061121c806100ca6000396000f3fe60806040526004361061004a5760003560e01c8063242232d11461004f57806333ea3dc81461006b578063484a6609146100ac5780637065cb48146100d5578063a2f09dfa146100fe575b600080fd5b61006960048036038101906100649190610c1c565b610108565b005b34801561007757600080fd5b50610092600480360381019061008d9190610c1c565b610528565b6040516100a3959493929190610d72565b60405180910390f35b3480156100b857600080fd5b506100d360048036038101906100ce9190610e0a565b61067f565b005b3480156100e157600080fd5b506100fc60048036038101906100f79190610e89565b6107fc565b005b6101066109af565b005b6000805b6000805490508110156101af573373ffffffffffffffffffffffffffffffffffffffff166000828154811061014457610143610eb6565b5b906000526020600020906002020160010160009054906101000a900473ffffffffffffffffffffffffffffffffffffffff1673ffffffffffffffffffffffffffffffffffffffff16141561019b576001915061019c565b5b80806101a790610f14565b91505061010c565b5060011515811515146101f7576040517f08c379a00000000000000000000000000000000000000000000000000000000081526004016101ee90610fe0565b60405180910390fd5b8160001515600182815481106102105761020f610eb6565b5b906000526020600020906006020160040160009054906101000a900460ff16151514610271576040517f08c379a00000000000000000000000000000000000000000000000000000000081526004016102689061104c565b60405180910390fd5b826000806001838154811061028957610288610eb6565b5b90600052602060002090600602016003018054806020026020016040519081016040528092919081815260200182805480156102e457602002820191906000526020600020905b8154815260200190600101908083116102d0575b5050505050905060006102f633610aa1565b905060005b8251811015610374578183828151811061031857610317610eb6565b5b60200260200101511415610361576040517f08c379a0000000000000000000000000000000000000000000000000000000008152600401610358906110de565b60405180910390fd5b808061036c90610f14565b9150506102fb565b50600061038033610aa1565b90506001888154811061039657610395610eb6565b5b9060005260206000209060060201600301819080600181540180825580915050600190039060005260206000200160009091909190915055600188815481106103e2576103e1610eb6565b5b9060005260206000209060060201600501546001898154811061040857610407610eb6565b5b906000526020600020906006020160030180549050141561051e5760006001898154811061043957610438610eb6565b5b906000526020600020906006020160020160009054906101000a900473ffffffffffffffffffffffffffffffffffffffff169050600060018a8154811061048357610482610eb6565b5b90600052602060002090600602016001015490508173ffffffffffffffffffffffffffffffffffffffff166108fc829081150290604051600060405180830381858888f193505050501580156104dd573d6000803e3d6000fd5b506001808b815481106104f3576104f2610eb6565b5b906000526020600020906006020160040160006101000a81548160ff02191690831515021790555050505b5050505050505050565b60008060606000806001868154811061054457610543610eb6565b5b9060005260206000209060060201600101546001878154811061056a57610569610eb6565b5b906000526020600020906006020160020160009054906101000a900473ffffffffffffffffffffffffffffffffffffffff16600188815481106105b0576105af610eb6565b5b9060005260206000209060060201600301600189815481106105d5576105d4610eb6565b5b906000526020600020906006020160040160009054906101000a900460ff1660018a8154811061060857610607610eb6565b5b9060005260206000209060060201600501548280548060200260200160405190810160405280929190818152602001828054801561066557602002820191906000526020600020905b815481526020019060010190808311610651575b505050505092509450945094509450945091939590929450565b816000805490508111156106c8576040517f08c379a00000000000000000000000000000000000000000000000000000000081526004016106bf90611170565b60405180910390fd5b6000600180805490506106db9190611190565b9050606060016040518060c001604052808481526020018881526020018673ffffffffffffffffffffffffffffffffffffffff168152602001838152602001600015158152602001878152509080600181540180825580915050600190039060005260206000209060060201600090919091909150600082015181600001556020820151816001015560408201518160020160006101000a81548173ffffffffffffffffffffffffffffffffffffffff021916908373ffffffffffffffffffffffffffffffffffffffff16021790555060608201518160030190805190602001906107c7929190610b77565b5060808201518160040160006101000a81548160ff02191690831515021790555060a082015181600501555050505050505050565b6000805b6000805490508110156108a3573373ffffffffffffffffffffffffffffffffffffffff166000828154811061083857610837610eb6565b5b906000526020600020906002020160010160009054906101000a900473ffffffffffffffffffffffffffffffffffffffff1673ffffffffffffffffffffffffffffffffffffffff16141561088f5760019150610890565b5b808061089b90610f14565b915050610800565b5060011515811515146108eb576040517f08c379a00000000000000000000000000000000000000000000000000000000081526004016108e290610fe0565b60405180910390fd5b600060016000805490506108ff9190611190565b9050600060405180604001604052808381526020018573ffffffffffffffffffffffffffffffffffffffff1681525090806001815401808255809150506001900390600052602060002090600202016000909190919091506000820151816000015560208201518160010160006101000a81548173ffffffffffffffffffffffffffffffffffffffff021916908373ffffffffffffffffffffffffffffffffffffffff1602179055505050505050565b6000805b600080549050811015610a56573373ffffffffffffffffffffffffffffffffffffffff16600082815481106109eb576109ea610eb6565b5b906000526020600020906002020160010160009054906101000a900473ffffffffffffffffffffffffffffffffffffffff1673ffffffffffffffffffffffffffffffffffffffff161415610a425760019150610a43565b5b8080610a4e90610f14565b9150506109b3565b506001151581151514610a9e576040517f08c379a0000000000000000000000000000000000000000000000000000000008152600401610a9590610fe0565b60405180910390fd5b50565b600080600090505b600080549050811015610b70578273ffffffffffffffffffffffffffffffffffffffff1660008281548110610ae157610ae0610eb6565b5b906000526020600020906002020160010160009054906101000a900473ffffffffffffffffffffffffffffffffffffffff1673ffffffffffffffffffffffffffffffffffffffff161415610b5d5760008181548110610b4357610b42610eb6565b5b906000526020600020906002020160000154915050610b72565b8080610b6890610f14565b915050610aa9565b505b919050565b828054828255906000526020600020908101928215610bb3579160200282015b82811115610bb2578251825591602001919060010190610b97565b5b509050610bc09190610bc4565b5090565b5b80821115610bdd576000816000905550600101610bc5565b5090565b600080fd5b6000819050919050565b610bf981610be6565b8114610c0457600080fd5b50565b600081359050610c1681610bf0565b92915050565b600060208284031215610c3257610c31610be1565b5b6000610c4084828501610c07565b91505092915050565b610c5281610be6565b82525050565b600073ffffffffffffffffffffffffffffffffffffffff82169050919050565b6000610c8382610c58565b9050919050565b610c9381610c78565b82525050565b600081519050919050565b600082825260208201905092915050565b6000819050602082019050919050565b610cce81610be6565b82525050565b6000610ce08383610cc5565b60208301905092915050565b6000602082019050919050565b6000610d0482610c99565b610d0e8185610ca4565b9350610d1983610cb5565b8060005b83811015610d4a578151610d318882610cd4565b9750610d3c83610cec565b925050600181019050610d1d565b5085935050505092915050565b60008115159050919050565b610d6c81610d57565b82525050565b600060a082019050610d876000830188610c49565b610d946020830187610c8a565b8181036040830152610da68186610cf9565b9050610db56060830185610d63565b610dc26080830184610c49565b9695505050505050565b6000610dd782610c58565b9050919050565b610de781610dcc565b8114610df257600080fd5b50565b600081359050610e0481610dde565b92915050565b600080600060608486031215610e2357610e22610be1565b5b6000610e3186828701610c07565b9350506020610e4286828701610c07565b9250506040610e5386828701610df5565b9150509250925092565b610e6681610c78565b8114610e7157600080fd5b50565b600081359050610e8381610e5d565b92915050565b600060208284031215610e9f57610e9e610be1565b5b6000610ead84828501610e74565b91505092915050565b7f4e487b7100000000000000000000000000000000000000000000000000000000600052603260045260246000fd5b7f4e487b7100000000000000000000000000000000000000000000000000000000600052601160045260246000fd5b6000610f1f82610be6565b91507fffffffffffffffffffffffffffffffffffffffffffffffffffffffffffffffff821415610f5257610f51610ee5565b5b600182019050919050565b600082825260208201905092915050565b7f4e6f7420616e20617574686f72697a656420706572736f6e20746f207065726660008201527f6f726d207468697320616374696f6e2021210000000000000000000000000000602082015250565b6000610fca603283610f5d565b9150610fd582610f6e565b604082019050919050565b60006020820190508181036000830152610ff981610fbd565b9050919050565b7f5472616e73616374696f6e20416c726561647920436f6d706c65746564212100600082015250565b6000611036601f83610f5d565b915061104182611000565b602082019050919050565b6000602082019050818103600083015261106581611029565b9050919050565b7f5472616e73616374696f6e20416c726561647920417070726f7665642062792060008201527f596f752121000000000000000000000000000000000000000000000000000000602082015250565b60006110c8602583610f5d565b91506110d38261106c565b604082019050919050565b600060208201905081810360008301526110f7816110bb565b9050919050565b7f5468726573686f6c642073686f756c64206e6f74206265206d6f72652074686160008201527f6e206f776e657220636f756e7420212100000000000000000000000000000000602082015250565b600061115a603083610f5d565b9150611165826110fe565b604082019050919050565b600060208201905081810360008301526111898161114d565b9050919050565b600061119b82610be6565b91506111a683610be6565b9250827fffffffffffffffffffffffffffffffffffffffffffffffffffffffffffffffff038211156111db576111da610ee5565b5b82820190509291505056fea26469706673582212201bff0b0c5288eff9e516f4ebf846825367d07980c9dc3b239b906b208c2bf68864736f6c634300080b0033",
  "immutableReferences": {},
  "source": "//SPDX-License-Identifier: Unlicense\n\npragma solidity ^0.8.6;\n\ncontract MultiSignWallet {\n\n    struct Owner {\n        uint id;\n        address ownerAddress;\n    }\n\n    struct Transaction{\n        uint id;\n        uint amount;\n        address payable to;\n        uint[] approvedBy;\n        bool isCompleted;\n        uint threshold;\n    }\n\n    Owner[] internal ownersArr;\n    Transaction[] internal transactionArr;\n\n    constructor () public {\n        ownersArr.push(Owner(1, msg.sender));\n    }\n\n    function addFund() public checkIfOwner payable {\n    }\n\n    function addOwner (address _newOwner) public checkIfOwner {\n        uint newID = ownersArr.length + 1;\n        ownersArr.push(Owner(newID, _newOwner));\n        return;\n    }\n\n    function getTransaction (uint _id) public view returns (uint, address, uint[] memory, bool, uint) {\n        return (transactionArr[_id].amount, transactionArr[_id].to, transactionArr[_id].approvedBy, transactionArr[_id].isCompleted, transactionArr[_id].threshold);\n    }\n\n    function addTransaction (uint _amount, uint _threshold, address payable _to) public checkPossibleThreshold(_threshold) {\n        uint newID = transactionArr.length + 1;\n        uint[] memory approvalArr;\n        transactionArr.push(Transaction(newID, _amount, _to, approvalArr, false, _threshold));\n        return;\n    }\n\n    function approveTransaction (uint _id) public checkIfOwner checkStatus(_id) checkIfAlreadyApproved(_id) payable {\n        uint ownerID = searchOwner(msg.sender);\n        transactionArr[_id].approvedBy.push(ownerID);\n\n        if(transactionArr[_id].approvedBy.length == transactionArr[_id].threshold){\n            address payable txAddress = transactionArr[_id].to;\n            uint txAmount = transactionArr[_id].amount;\n\n            txAddress.transfer(txAmount);\n            transactionArr[_id].isCompleted = true;\n        }\n        return;\n    }\n\n    modifier checkIfAlreadyApproved(uint _id) {\n        bool status = false;\n        uint[] memory txAppr = transactionArr[_id].approvedBy;\n        uint ownerID = searchOwner(msg.sender);\n        \n        for(uint i = 0; i < txAppr.length; i++){\n            if(txAppr[i] == ownerID){\n                revert(\"Transaction Already Approved by You!!\");\n            }\n        }\n        \n        _;\n    }\n\n    modifier checkStatus(uint _id){\n        require(transactionArr[_id].isCompleted == false, \"Transaction Already Completed!!\");\n        _;\n    }\n\n    modifier checkIfOwner (){\n        bool owner = false;\n        for(uint i = 0; i < ownersArr.length; i++){\n            if(ownersArr[i].ownerAddress == msg.sender){\n                owner = true;\n                continue;\n            }\n        }\n\n        require(owner == true, \"Not an authorized person to perform this action !!\");\n        _;\n    }\n\n    modifier checkPossibleThreshold (uint _threshold){\n        if(_threshold > ownersArr.length){\n            revert(\"Threshold should not be more than owner count !!\");\n        }\n\n        _;\n    }\n\n    function searchOwner(address _address) internal returns (uint) {\n        for(uint i = 0; i < ownersArr.length; i++){\n            if(ownersArr[i].ownerAddress == _address){\n                return ownersArr[i].id;\n            }\n        }\n    }\n}",
  "sourcePath": "/home/akash/Desktop/Chapter-1/Akash_Vaghela/Projects/project-2 Multi-Sign-Waleet/contracts/MultiSignWallet.sol",
  "compiler": {
    "name": "solc",
    "version": "0.8.11+commit.d7f03943.Emscripten.clang"
  },
  "schemaVersion": "3.4.4",
  "updatedAt": "2022-02-08T13:08:18.205Z",
  "networkType": "ethereum",
  "devdoc": {
    "kind": "dev",
    "methods": {},
    "version": 1
  },
  "userdoc": {
    "kind": "user",
    "methods": {},
    "version": 1
  }
}