{
    "contractName": "wallet",
    "abi": [
        {
            "inputs": [],
            "stateMutability": "payable",
            "type": "constructor"
        },
        {
            "anonymous": false,
            "inputs": [
                {
                    "indexed": false,
                    "internalType": "address",
                    "name": "sender",
                    "type": "address"
                },
                {
                    "indexed": false,
                    "internalType": "uint256",
                    "name": "amount",
                    "type": "uint256"
                },
                {
                    "indexed": false,
                    "internalType": "uint256",
                    "name": "balance",
                    "type": "uint256"
                }
            ],
            "name": "Deposit",
            "type": "event"
        },
        {
            "anonymous": false,
            "inputs": [
                {
                    "indexed": false,
                    "internalType": "address",
                    "name": "from",
                    "type": "address"
                },
                {
                    "indexed": false,
                    "internalType": "uint256",
                    "name": "amount",
                    "type": "uint256"
                },
                {
                    "indexed": false,
                    "internalType": "address",
                    "name": "balance",
                    "type": "address"
                }
            ],
            "name": "Transfer",
            "type": "event"
        },
        {
            "anonymous": false,
            "inputs": [
                {
                    "indexed": false,
                    "internalType": "uint256",
                    "name": "amount",
                    "type": "uint256"
                },
                {
                    "indexed": false,
                    "internalType": "uint256",
                    "name": "balance",
                    "type": "uint256"
                }
            ],
            "name": "Withdraw",
            "type": "event"
        },
        {
            "inputs": [],
            "name": "balance",
            "outputs": [
                {
                    "internalType": "uint256",
                    "name": "",
                    "type": "uint256"
                }
            ],
            "stateMutability": "view",
            "type": "function"
        },
        {
            "inputs": [
                {
                    "internalType": "address payable",
                    "name": "",
                    "type": "address"
                },
                {
                    "internalType": "uint256",
                    "name": "",
                    "type": "uint256"
                }
            ],
            "name": "deposit",
            "outputs": [],
            "stateMutability": "payable",
            "type": "function"
        },
        {
            "inputs": [
                {
                    "internalType": "address",
                    "name": "",
                    "type": "address"
                }
            ],
            "name": "getBalance",
            "outputs": [
                {
                    "internalType": "uint256",
                    "name": "",
                    "type": "uint256"
                }
            ],
            "stateMutability": "view",
            "type": "function"
        },
        {
            "inputs": [],
            "name": "owner",
            "outputs": [
                {
                    "internalType": "address",
                    "name": "",
                    "type": "address"
                }
            ],
            "stateMutability": "view",
            "type": "function"
        },
        {
            "inputs": [
                {
                    "internalType": "address payable",
                    "name": "_to",
                    "type": "address"
                },
                {
                    "internalType": "uint256",
                    "name": "amount",
                    "type": "uint256"
                }
            ],
            "name": "transfer",
            "outputs": [],
            "stateMutability": "nonpayable",
            "type": "function"
        },
        {
            "inputs": [
                {
                    "internalType": "uint256",
                    "name": "_amount",
                    "type": "uint256"
                }
            ],
            "name": "withdrawfunds",
            "outputs": [],
            "stateMutability": "nonpayable",
            "type": "function"
        }
    ],
    "bytecode": "6080604052600080546001600160a01b03191633179055610348806100256000396000f3fe6080604052600436106100555760003560e01c806347e7ef241461005a5780638da5cb5b1461006f578063a9059cbb146100ac578063b69ef8a8146100cc578063f8b2cb4f146100f0578063fc8c20b814610110575b600080fd5b61006d6100683660046102a9565b610130565b005b34801561007b57600080fd5b5060005461008f906001600160a01b031681565b6040516001600160a01b0390911681526020015b60405180910390f35b3480156100b857600080fd5b5061006d6100c73660046102a9565b610172565b3480156100d857600080fd5b506100e260015481565b6040519081526020016100a3565b3480156100fc57600080fd5b506100e261010b3660046102d5565b504790565b34801561011c57600080fd5b5061006d61012b3660046102f9565b610204565b60408051338152346020820152478183015290517f90890809c654f11d6e72a28fa60149770a0d11ec6c92319d6ceb2bb0a4ea1a159181900360600190a15050565b6000546001600160a01b031633146101c95760405162461bcd60e51b81526020600482015260156024820152743cb7ba9030b932902727ba103a34329037bbb732b960591b60448201526064015b60405180910390fd5b6040516001600160a01b0383169082156108fc029083906000818181858888f193505050501580156101ff573d6000803e3d6000fd5b505050565b6000546001600160a01b031633146102565760405162461bcd60e51b81526020600482015260156024820152743cb7ba9030b932902727ba103a34329037bbb732b960591b60448201526064016101c0565b604080518281524760208201527f56ca301a9219608c91e7bcee90e083c19671d2cdcc96752c7af291cee5f9c8c8910160405180910390a150565b6001600160a01b03811681146102a657600080fd5b50565b600080604083850312156102bc57600080fd5b82356102c781610291565b946020939093013593505050565b6000602082840312156102e757600080fd5b81356102f281610291565b9392505050565b60006020828403121561030b57600080fd5b503591905056fea2646970667358221220f6e0d338108acb1c344f4c49d4880d79ed8b10a28b50a8f48bd5542c48b60a0564736f6c634300080c0033",
    "sourcePath": "/Users/vikashpathak/works/Chapter-1/Vikash-Pathak/week-1/Blockstudio/contracts/wallet.sol",
    "compiler": {
        "name": "solc",
        "version": "0.8.12+commit.f00d7308"
    },
    "functionHashes": {
        "balance()": "b69ef8a8",
        "deposit(address,uint256)": "47e7ef24",
        "getBalance(address)": "f8b2cb4f",
        "owner()": "8da5cb5b",
        "transfer(address,uint256)": "a9059cbb",
        "withdrawfunds(uint256)": "fc8c20b8"
    },
    "gasEstimates": {
        "creation": {
            "codeDepositCost": "168000",
            "executionCost": "24425",
            "totalCost": "192425"
        },
        "external": {
            "balance()": "2339",
            "deposit(address,uint256)": "1883",
            "getBalance(address)": "417",
            "owner()": "2326",
            "transfer(address,uint256)": "infinite",
            "withdrawfunds(uint256)": "3784"
        }
    }
}