{
  "_format": "hh-sol-artifact-1",
  "contractName": "Employee",
  "sourceName": "contracts/Greeter.sol",
  "abi": [
    {
      "inputs": [],
      "stateMutability": "nonpayable",
      "type": "constructor"
    },
    {
      "inputs": [
        {
          "internalType": "string",
          "name": "_name",
          "type": "string"
        },
        {
          "internalType": "uint256",
          "name": "_age",
          "type": "uint256"
        },
        {
          "internalType": "string",
          "name": "_email",
          "type": "string"
        },
        {
          "internalType": "address",
          "name": "_walletAddress",
          "type": "address"
        }
      ],
      "name": "addEmployeeData",
      "outputs": [],
      "stateMutability": "nonpayable",
      "type": "function"
    },
    {
      "inputs": [
        {
          "internalType": "uint256",
          "name": "",
          "type": "uint256"
        }
      ],
      "name": "arr",
      "outputs": [
        {
          "internalType": "string",
          "name": "name",
          "type": "string"
        },
        {
          "internalType": "uint256",
          "name": "age",
          "type": "uint256"
        },
        {
          "internalType": "string",
          "name": "email",
          "type": "string"
        },
        {
          "internalType": "address",
          "name": "walletAddress",
          "type": "address"
        },
        {
          "internalType": "uint256",
          "name": "unique",
          "type": "uint256"
        }
      ],
      "stateMutability": "view",
      "type": "function"
    },
    {
      "inputs": [
        {
          "internalType": "uint256",
          "name": "_id",
          "type": "uint256"
        }
      ],
      "name": "deleteEmployeeData",
      "outputs": [],
      "stateMutability": "nonpayable",
      "type": "function"
    },
    {
      "inputs": [
        {
          "internalType": "uint256",
          "name": "_id",
          "type": "uint256"
        },
        {
          "internalType": "string",
          "name": "_name",
          "type": "string"
        },
        {
          "internalType": "uint256",
          "name": "_age",
          "type": "uint256"
        },
        {
          "internalType": "string",
          "name": "_email",
          "type": "string"
        },
        {
          "internalType": "address",
          "name": "_walletAddress",
          "type": "address"
        }
      ],
      "name": "editEmployeeData",
      "outputs": [],
      "stateMutability": "nonpayable",
      "type": "function"
    },
    {
      "inputs": [],
      "name": "getAllEmployeeData",
      "outputs": [
        {
          "components": [
            {
              "internalType": "string",
              "name": "name",
              "type": "string"
            },
            {
              "internalType": "uint256",
              "name": "age",
              "type": "uint256"
            },
            {
              "internalType": "string",
              "name": "email",
              "type": "string"
            },
            {
              "internalType": "address",
              "name": "walletAddress",
              "type": "address"
            },
            {
              "internalType": "uint256",
              "name": "unique",
              "type": "uint256"
            }
          ],
          "internalType": "struct Employee.EmployeeData[]",
          "name": "",
          "type": "tuple[]"
        }
      ],
      "stateMutability": "view",
      "type": "function"
    },
    {
      "inputs": [
        {
          "internalType": "uint256",
          "name": "_id",
          "type": "uint256"
        }
      ],
      "name": "getOneEmployee",
      "outputs": [
        {
          "components": [
            {
              "internalType": "string",
              "name": "name",
              "type": "string"
            },
            {
              "internalType": "uint256",
              "name": "age",
              "type": "uint256"
            },
            {
              "internalType": "string",
              "name": "email",
              "type": "string"
            },
            {
              "internalType": "address",
              "name": "walletAddress",
              "type": "address"
            },
            {
              "internalType": "uint256",
              "name": "unique",
              "type": "uint256"
            }
          ],
          "internalType": "struct Employee.EmployeeData",
          "name": "",
          "type": "tuple"
        }
      ],
      "stateMutability": "view",
      "type": "function"
    },
    {
      "inputs": [],
      "name": "id",
      "outputs": [
        {
          "internalType": "uint256",
          "name": "",
          "type": "uint256"
        }
      ],
      "stateMutability": "view",
      "type": "function"
    }
  ],
  "bytecode": "0x608060405234801561001057600080fd5b506000600181905550611339806100286000396000f3fe608060405234801561001057600080fd5b506004361061007d5760003560e01c80638da824951161005b5780638da82495146100ee578063af640d0f1461010c578063b48729511461012a578063fc0fbe2c146101465761007d565b80632f510a471461008257806371e5ee5f1461009e57806374c3a39f146100d2575b600080fd5b61009c60048036038101906100979190610cac565b610176565b005b6100b860048036038101906100b39190610c83565b610317565b6040516100c9959493929190610fa6565b60405180910390f35b6100ec60048036038101906100e79190610bf0565b61048d565b005b6100f66105ae565b6040516101039190610f84565b60405180910390f35b61011461079b565b6040516101219190611029565b60405180910390f35b610144600480360381019061013f9190610c83565b6107a1565b005b610160600480360381019061015b9190610c83565b610846565b60405161016d9190611007565b60405180910390f35b83600086815481106101b1577f4e487b7100000000000000000000000000000000000000000000000000000000600052603260045260246000fd5b906000526020600020906005020160000190805190602001906101d5929190610a36565b508260008681548110610211577f4e487b7100000000000000000000000000000000000000000000000000000000600052603260045260246000fd5b9060005260206000209060050201600101819055508160008681548110610261577f4e487b7100000000000000000000000000000000000000000000000000000000600052603260045260246000fd5b90600052602060002090600502016002019080519060200190610285929190610a36565b5080600086815481106102c1577f4e487b7100000000000000000000000000000000000000000000000000000000600052603260045260246000fd5b906000526020600020906005020160030160006101000a81548173ffffffffffffffffffffffffffffffffffffffff021916908373ffffffffffffffffffffffffffffffffffffffff1602179055505050505050565b6000818154811061032757600080fd5b906000526020600020906005020160009150905080600001805461034a906111d4565b80601f0160208091040260200160405190810160405280929190818152602001828054610376906111d4565b80156103c35780601f10610398576101008083540402835291602001916103c3565b820191906000526020600020905b8154815290600101906020018083116103a657829003601f168201915b5050505050908060010154908060020180546103de906111d4565b80601f016020809104026020016040519081016040528092919081815260200182805461040a906111d4565b80156104575780601f1061042c57610100808354040283529160200191610457565b820191906000526020600020905b81548152906001019060200180831161043a57829003601f168201915b5050505050908060030160009054906101000a900473ffffffffffffffffffffffffffffffffffffffff16908060040154905085565b60006040518060a001604052808681526020018581526020018481526020018373ffffffffffffffffffffffffffffffffffffffff168152602001600154815250905060008190806001815401808255809150506001900390600052602060002090600502016000909190919091506000820151816000019080519060200190610518929190610a36565b5060208201518160010155604082015181600201908051906020019061053f929190610a36565b5060608201518160030160006101000a81548173ffffffffffffffffffffffffffffffffffffffff021916908373ffffffffffffffffffffffffffffffffffffffff160217905550608082015181600401555050600180546105a19190611100565b6001819055505050505050565b60606000805480602002602001604051908101604052809291908181526020016000905b8282101561079257838290600052602060002090600502016040518060a0016040529081600082018054610605906111d4565b80601f0160208091040260200160405190810160405280929190818152602001828054610631906111d4565b801561067e5780601f106106535761010080835404028352916020019161067e565b820191906000526020600020905b81548152906001019060200180831161066157829003601f168201915b50505050508152602001600182015481526020016002820180546106a1906111d4565b80601f01602080910402602001604051908101604052809291908181526020018280546106cd906111d4565b801561071a5780601f106106ef5761010080835404028352916020019161071a565b820191906000526020600020905b8154815290600101906020018083116106fd57829003601f168201915b505050505081526020016003820160009054906101000a900473ffffffffffffffffffffffffffffffffffffffff1673ffffffffffffffffffffffffffffffffffffffff1673ffffffffffffffffffffffffffffffffffffffff168152602001600482015481525050815260200190600101906105d2565b50505050905090565b60015481565b600081815481106107db577f4e487b7100000000000000000000000000000000000000000000000000000000600052603260045260246000fd5b9060005260206000209060050201600080820160006107fa9190610abc565b60018201600090556002820160006108129190610abc565b6003820160006101000a81549073ffffffffffffffffffffffffffffffffffffffff02191690556004820160009055505050565b61084e610afc565b60008281548110610888577f4e487b7100000000000000000000000000000000000000000000000000000000600052603260045260246000fd5b90600052602060002090600502016040518060a00160405290816000820180546108b1906111d4565b80601f01602080910402602001604051908101604052809291908181526020018280546108dd906111d4565b801561092a5780601f106108ff5761010080835404028352916020019161092a565b820191906000526020600020905b81548152906001019060200180831161090d57829003601f168201915b505050505081526020016001820154815260200160028201805461094d906111d4565b80601f0160208091040260200160405190810160405280929190818152602001828054610979906111d4565b80156109c65780601f1061099b576101008083540402835291602001916109c6565b820191906000526020600020905b8154815290600101906020018083116109a957829003601f168201915b505050505081526020016003820160009054906101000a900473ffffffffffffffffffffffffffffffffffffffff1673ffffffffffffffffffffffffffffffffffffffff1673ffffffffffffffffffffffffffffffffffffffff1681526020016004820154815250509050919050565b828054610a42906111d4565b90600052602060002090601f016020900481019282610a645760008555610aab565b82601f10610a7d57805160ff1916838001178555610aab565b82800160010185558215610aab579182015b82811115610aaa578251825591602001919060010190610a8f565b5b509050610ab89190610b41565b5090565b508054610ac8906111d4565b6000825580601f10610ada5750610af9565b601f016020900490600052602060002090810190610af89190610b41565b5b50565b6040518060a00160405280606081526020016000815260200160608152602001600073ffffffffffffffffffffffffffffffffffffffff168152602001600081525090565b5b80821115610b5a576000816000905550600101610b42565b5090565b6000610b71610b6c84611069565b611044565b905082815260208101848484011115610b8957600080fd5b610b94848285611192565b509392505050565b600081359050610bab816112d5565b92915050565b600082601f830112610bc257600080fd5b8135610bd2848260208601610b5e565b91505092915050565b600081359050610bea816112ec565b92915050565b60008060008060808587031215610c0657600080fd5b600085013567ffffffffffffffff811115610c2057600080fd5b610c2c87828801610bb1565b9450506020610c3d87828801610bdb565b935050604085013567ffffffffffffffff811115610c5a57600080fd5b610c6687828801610bb1565b9250506060610c7787828801610b9c565b91505092959194509250565b600060208284031215610c9557600080fd5b6000610ca384828501610bdb565b91505092915050565b600080600080600060a08688031215610cc457600080fd5b6000610cd288828901610bdb565b955050602086013567ffffffffffffffff811115610cef57600080fd5b610cfb88828901610bb1565b9450506040610d0c88828901610bdb565b935050606086013567ffffffffffffffff811115610d2957600080fd5b610d3588828901610bb1565b9250506080610d4688828901610b9c565b9150509295509295909350565b6000610d5f8383610e6c565b905092915050565b610d7081611156565b82525050565b610d7f81611156565b82525050565b6000610d90826110aa565b610d9a81856110cd565b935083602082028501610dac8561109a565b8060005b85811015610de85784840389528151610dc98582610d53565b9450610dd4836110c0565b925060208a01995050600181019050610db0565b50829750879550505050505092915050565b6000610e05826110b5565b610e0f81856110de565b9350610e1f8185602086016111a1565b610e28816112c4565b840191505092915050565b6000610e3e826110b5565b610e4881856110ef565b9350610e588185602086016111a1565b610e61816112c4565b840191505092915050565b600060a0830160008301518482036000860152610e898282610dfa565b9150506020830151610e9e6020860182610f66565b5060408301518482036040860152610eb68282610dfa565b9150506060830151610ecb6060860182610d67565b506080830151610ede6080860182610f66565b508091505092915050565b600060a0830160008301518482036000860152610f068282610dfa565b9150506020830151610f1b6020860182610f66565b5060408301518482036040860152610f338282610dfa565b9150506060830151610f486060860182610d67565b506080830151610f5b6080860182610f66565b508091505092915050565b610f6f81611188565b82525050565b610f7e81611188565b82525050565b60006020820190508181036000830152610f9e8184610d85565b905092915050565b600060a0820190508181036000830152610fc08188610e33565b9050610fcf6020830187610f75565b8181036040830152610fe18186610e33565b9050610ff06060830185610d76565b610ffd6080830184610f75565b9695505050505050565b600060208201905081810360008301526110218184610ee9565b905092915050565b600060208201905061103e6000830184610f75565b92915050565b600061104e61105f565b905061105a8282611206565b919050565b6000604051905090565b600067ffffffffffffffff82111561108457611083611295565b5b61108d826112c4565b9050602081019050919050565b6000819050602082019050919050565b600081519050919050565b600081519050919050565b6000602082019050919050565b600082825260208201905092915050565b600082825260208201905092915050565b600082825260208201905092915050565b600061110b82611188565b915061111683611188565b9250827fffffffffffffffffffffffffffffffffffffffffffffffffffffffffffffffff0382111561114b5761114a611237565b5b828201905092915050565b600061116182611168565b9050919050565b600073ffffffffffffffffffffffffffffffffffffffff82169050919050565b6000819050919050565b82818337600083830152505050565b60005b838110156111bf5780820151818401526020810190506111a4565b838111156111ce576000848401525b50505050565b600060028204905060018216806111ec57607f821691505b60208210811415611200576111ff611266565b5b50919050565b61120f826112c4565b810181811067ffffffffffffffff8211171561122e5761122d611295565b5b80604052505050565b7f4e487b7100000000000000000000000000000000000000000000000000000000600052601160045260246000fd5b7f4e487b7100000000000000000000000000000000000000000000000000000000600052602260045260246000fd5b7f4e487b7100000000000000000000000000000000000000000000000000000000600052604160045260246000fd5b6000601f19601f8301169050919050565b6112de81611156565b81146112e957600080fd5b50565b6112f581611188565b811461130057600080fd5b5056fea264697066735822122044e2db77caf5341d42e60692ab73a992f47d0dc7855bfb0baf79411eaa392e2d64736f6c63430008040033",
  "linkReferences": {},
  "deployedLinkReferences": {}
}