{
  "contractName": "MultiSigner",
  "abi": [
    {
      "inputs": [
        {
          "internalType": "address[]",
          "name": "_owner",
          "type": "address[]"
        },
        {
          "internalType": "uint256",
          "name": "_limit",
          "type": "uint256"
        }
      ],
      "stateMutability": "nonpayable",
      "type": "constructor"
    },
    {
      "inputs": [],
      "name": "approversLimit",
      "outputs": [
        {
          "internalType": "uint256",
          "name": "",
          "type": "uint256"
        }
      ],
      "stateMutability": "view",
      "type": "function",
      "constant": true
    },
    {
      "inputs": [
        {
          "internalType": "uint256",
          "name": "",
          "type": "uint256"
        }
      ],
      "name": "transactions",
      "outputs": [
        {
          "internalType": "address payable",
          "name": "to",
          "type": "address"
        },
        {
          "internalType": "uint256",
          "name": "value",
          "type": "uint256"
        },
        {
          "internalType": "bool",
          "name": "executed",
          "type": "bool"
        },
        {
          "internalType": "uint256",
          "name": "limit",
          "type": "uint256"
        },
        {
          "internalType": "uint256",
          "name": "id",
          "type": "uint256"
        }
      ],
      "stateMutability": "view",
      "type": "function",
      "constant": true
    },
    {
      "inputs": [
        {
          "internalType": "address payable",
          "name": "_to",
          "type": "address"
        },
        {
          "internalType": "uint256",
          "name": "_value",
          "type": "uint256"
        }
      ],
      "name": "submitTransaction",
      "outputs": [],
      "stateMutability": "nonpayable",
      "type": "function"
    },
    {
      "inputs": [
        {
          "internalType": "uint256",
          "name": "_txId",
          "type": "uint256"
        }
      ],
      "name": "coniformTransaction",
      "outputs": [],
      "stateMutability": "nonpayable",
      "type": "function"
    },
    {
      "inputs": [
        {
          "internalType": "uint256",
          "name": "_txId",
          "type": "uint256"
        }
      ],
      "name": "executeTransaction",
      "outputs": [],
      "stateMutability": "nonpayable",
      "type": "function"
    }
  ],
  "bytecode": "0x60806040523480156200001157600080fd5b50604051620016433803806200164383398181016040528101906200003791906200050f565b60008251116200007e576040517f08c379a00000000000000000000000000000000000000000000000000000000081526004016200007590620005d6565b60405180910390fd5b60008111801562000090575081518111155b620000d2576040517f08c379a0000000000000000000000000000000000000000000000000000000008152600401620000c9906200066e565b60405180910390fd5b60005b8251811015620002d6576000838281518110620000f757620000f662000690565b5b60200260200101519050600073ffffffffffffffffffffffffffffffffffffffff168173ffffffffffffffffffffffffffffffffffffffff16141562000174576040517f08c379a00000000000000000000000000000000000000000000000000000000081526004016200016b906200070f565b60405180910390fd5b600360008273ffffffffffffffffffffffffffffffffffffffff1673ffffffffffffffffffffffffffffffffffffffff16815260200190815260200160002060009054906101000a900460ff161562000204576040517f08c379a0000000000000000000000000000000000000000000000000000000008152600401620001fb9062000781565b60405180910390fd5b6001600360008373ffffffffffffffffffffffffffffffffffffffff1673ffffffffffffffffffffffffffffffffffffffff16815260200190815260200160002060006101000a81548160ff0219169083151502179055506001819080600181540180825580915050600190039060005260206000200160009091909190916101000a81548173ffffffffffffffffffffffffffffffffffffffff021916908373ffffffffffffffffffffffffffffffffffffffff160217905550508080620002cd90620007d2565b915050620000d5565b5080600281905550505062000820565b6000604051905090565b600080fd5b600080fd5b600080fd5b6000601f19601f8301169050919050565b7f4e487b7100000000000000000000000000000000000000000000000000000000600052604160045260246000fd5b6200034a82620002ff565b810181811067ffffffffffffffff821117156200036c576200036b62000310565b5b80604052505050565b600062000381620002e6565b90506200038f82826200033f565b919050565b600067ffffffffffffffff821115620003b257620003b162000310565b5b602082029050602081019050919050565b600080fd5b600073ffffffffffffffffffffffffffffffffffffffff82169050919050565b6000620003f582620003c8565b9050919050565b6200040781620003e8565b81146200041357600080fd5b50565b6000815190506200042781620003fc565b92915050565b6000620004446200043e8462000394565b62000375565b905080838252602082019050602084028301858111156200046a5762000469620003c3565b5b835b8181101562000497578062000482888262000416565b8452602084019350506020810190506200046c565b5050509392505050565b600082601f830112620004b957620004b8620002fa565b5b8151620004cb8482602086016200042d565b91505092915050565b6000819050919050565b620004e981620004d4565b8114620004f557600080fd5b50565b6000815190506200050981620004de565b92915050565b60008060408385031215620005295762000528620002f0565b5b600083015167ffffffffffffffff8111156200054a5762000549620002f5565b5b6200055885828601620004a1565b92505060206200056b85828601620004f8565b9150509250929050565b600082825260208201905092915050565b7f4f776e6572732052657175697265642021000000000000000000000000000000600082015250565b6000620005be60118362000575565b9150620005cb8262000586565b602082019050919050565b60006020820190508181036000830152620005f181620005af565b9050919050565b7f496e76616c6964206e756d626572206f6620726571756972656420617070726f60008201527f7665722773202100000000000000000000000000000000000000000000000000602082015250565b60006200065660278362000575565b91506200066382620005f8565b604082019050919050565b60006020820190508181036000830152620006898162000647565b9050919050565b7f4e487b7100000000000000000000000000000000000000000000000000000000600052603260045260246000fd5b7f496e76616c6964204f776e657220210000000000000000000000000000000000600082015250565b6000620006f7600f8362000575565b91506200070482620006bf565b602082019050919050565b600060208201905081810360008301526200072a81620006e8565b9050919050565b7f4f776e6572206e6f7420756e6971756500000000000000000000000000000000600082015250565b60006200076960108362000575565b9150620007768262000731565b602082019050919050565b600060208201905081810360008301526200079c816200075a565b9050919050565b7f4e487b7100000000000000000000000000000000000000000000000000000000600052601160045260246000fd5b6000620007df82620004d4565b91507fffffffffffffffffffffffffffffffffffffffffffffffffffffffffffffffff821415620008155762000814620007a3565b5b600182019050919050565b610e1380620008306000396000f3fe608060405234801561001057600080fd5b50600436106100575760003560e01c806314cece361461005c5780631d43b6531461007a57806391e089e5146100965780639ace38c2146100b2578063ee22610b146100e6575b600080fd5b610064610102565b6040516100719190610836565b60405180910390f35b610094600480360381019061008f91906108e0565b610108565b005b6100b060048036038101906100ab9190610920565b610242565b005b6100cc60048036038101906100c79190610920565b6104dd565b6040516100dd959493929190610977565b60405180910390f35b61010060048036038101906100fb9190610920565b610550565b005b60025481565b600360003373ffffffffffffffffffffffffffffffffffffffff1673ffffffffffffffffffffffffffffffffffffffff16815260200190815260200160002060009054906101000a900460ff16610194576040517f08c379a000000000000000000000000000000000000000000000000000000000815260040161018b90610a27565b60405180910390fd5b6000808054905090506000806001816001815401808255809150500390600052602060002090600602019050838160000160006101000a81548173ffffffffffffffffffffffffffffffffffffffff021916908373ffffffffffffffffffffffffffffffffffffffff16021790555082816001018190555081816004018190555060008160020160006101000a81548160ff0219169083151502179055506000816003018190555050505050565b600360003373ffffffffffffffffffffffffffffffffffffffff1673ffffffffffffffffffffffffffffffffffffffff16815260200190815260200160002060009054906101000a900460ff166102ce576040517f08c379a00000000000000000000000000000000000000000000000000000000081526004016102c590610a27565b60405180910390fd5b806000805490508110610316576040517f08c379a000000000000000000000000000000000000000000000000000000000815260040161030d90610a93565b60405180910390fd5b816000818154811061032b5761032a610ab3565b5b906000526020600020906006020160020160009054906101000a900460ff161561038a576040517f08c379a000000000000000000000000000000000000000000000000000000000815260040161038190610b2e565b60405180910390fd5b826000818154811061039f5761039e610ab3565b5b906000526020600020906006020160050160003373ffffffffffffffffffffffffffffffffffffffff1673ffffffffffffffffffffffffffffffffffffffff16815260200190815260200160002060009054906101000a900460ff161561043b576040517f08c379a000000000000000000000000000000000000000000000000000000000815260040161043290610b9a565b60405180910390fd5b60008085815481106104505761044f610ab3565b5b9060005260206000209060060201905060018160050160003373ffffffffffffffffffffffffffffffffffffffff1673ffffffffffffffffffffffffffffffffffffffff16815260200190815260200160002060006101000a81548160ff02191690831515021790555060018160030160008282546104cf9190610be9565b925050819055505050505050565b600081815481106104ed57600080fd5b90600052602060002090600602016000915090508060000160009054906101000a900473ffffffffffffffffffffffffffffffffffffffff16908060010154908060020160009054906101000a900460ff16908060030154908060040154905085565b600360003373ffffffffffffffffffffffffffffffffffffffff1673ffffffffffffffffffffffffffffffffffffffff16815260200190815260200160002060009054906101000a900460ff166105dc576040517f08c379a00000000000000000000000000000000000000000000000000000000081526004016105d390610a27565b60405180910390fd5b806000805490508110610624576040517f08c379a000000000000000000000000000000000000000000000000000000000815260040161061b90610a93565b60405180910390fd5b816000818154811061063957610638610ab3565b5b906000526020600020906006020160020160009054906101000a900460ff1615610698576040517f08c379a000000000000000000000000000000000000000000000000000000000815260040161068f90610b2e565b60405180910390fd5b60008084815481106106ad576106ac610ab3565b5b9060005260206000209060060201905060025481600301541015610706576040517f08c379a00000000000000000000000000000000000000000000000000000000081526004016106fd90610cb1565b60405180910390fd5b60018160020160006101000a81548160ff0219169083151502179055506000670de0b6b3a7640000826001015461073d9190610cd1565b905060008260000160009054906101000a900473ffffffffffffffffffffffffffffffffffffffff16905060008173ffffffffffffffffffffffffffffffffffffffff168360405161078e90610d5c565b60006040518083038185875af1925050503d80600081146107cb576040519150601f19603f3d011682016040523d82523d6000602084013e6107d0565b606091505b5050905080610814576040517f08c379a000000000000000000000000000000000000000000000000000000000815260040161080b90610dbd565b60405180910390fd5b50505050505050565b6000819050919050565b6108308161081d565b82525050565b600060208201905061084b6000830184610827565b92915050565b600080fd5b600073ffffffffffffffffffffffffffffffffffffffff82169050919050565b600061088182610856565b9050919050565b61089181610876565b811461089c57600080fd5b50565b6000813590506108ae81610888565b92915050565b6108bd8161081d565b81146108c857600080fd5b50565b6000813590506108da816108b4565b92915050565b600080604083850312156108f7576108f6610851565b5b60006109058582860161089f565b9250506020610916858286016108cb565b9150509250929050565b60006020828403121561093657610935610851565b5b6000610944848285016108cb565b91505092915050565b61095681610876565b82525050565b60008115159050919050565b6109718161095c565b82525050565b600060a08201905061098c600083018861094d565b6109996020830187610827565b6109a66040830186610968565b6109b36060830185610827565b6109c06080830184610827565b9695505050505050565b600082825260208201905092915050565b7f6e6f74206f776e65720000000000000000000000000000000000000000000000600082015250565b6000610a116009836109ca565b9150610a1c826109db565b602082019050919050565b60006020820190508181036000830152610a4081610a04565b9050919050565b7f7472616e73616374696f6e20646f6573206e6f74206578697400000000000000600082015250565b6000610a7d6019836109ca565b9150610a8882610a47565b602082019050919050565b60006020820190508181036000830152610aac81610a70565b9050919050565b7f4e487b7100000000000000000000000000000000000000000000000000000000600052603260045260246000fd5b7f7472616e73616374696f6e20616c726561647920657865637574656400000000600082015250565b6000610b18601c836109ca565b9150610b2382610ae2565b602082019050919050565b60006020820190508181036000830152610b4781610b0b565b9050919050565b7f7472616e73616374696f6e20616c726561647920636f6e69666f726d65640000600082015250565b6000610b84601e836109ca565b9150610b8f82610b4e565b602082019050919050565b60006020820190508181036000830152610bb381610b77565b9050919050565b7f4e487b7100000000000000000000000000000000000000000000000000000000600052601160045260246000fd5b6000610bf48261081d565b9150610bff8361081d565b9250827fffffffffffffffffffffffffffffffffffffffffffffffffffffffffffffffff03821115610c3457610c33610bba565b5b828201905092915050565b7f636f6e6e6f7420657865637574652c20736f6d6520617070726f76657227732060008201527f6e6f7420617070726f7665207472616e73616374696f6e202100000000000000602082015250565b6000610c9b6039836109ca565b9150610ca682610c3f565b604082019050919050565b60006020820190508181036000830152610cca81610c8e565b9050919050565b6000610cdc8261081d565b9150610ce78361081d565b9250817fffffffffffffffffffffffffffffffffffffffffffffffffffffffffffffffff0483118215151615610d2057610d1f610bba565b5b828202905092915050565b600081905092915050565b50565b6000610d46600083610d2b565b9150610d5182610d36565b600082019050919050565b6000610d6782610d39565b9150819050919050565b7f7472616e73666572206661696c65640000000000000000000000000000000000600082015250565b6000610da7600f836109ca565b9150610db282610d71565b602082019050919050565b60006020820190508181036000830152610dd681610d9a565b905091905056fea2646970667358221220187b2dbe9587b47afacf19aeddb3af9e5da1ea1b235e7b2f28d76486c79a2f3d64736f6c634300080b0033",
  "immutableReferences": {},
  "source": "// SPDX-License-Identifier: GPL-3.0\n\npragma solidity >=0.7.0 <0.9.0;\n\n/**\n * @title Storage\n * @dev Store & retrieve value in a variable\n */\ncontract MultiSigner {\n\n    struct Transaction {\n        address payable to;\n        uint value;\n        bool executed;\n        uint limit;\n        uint id;\n        mapping(address => bool) isConiformed;\n    }\n    Transaction[] public transactions;\n    address[] owners;\n    uint public approversLimit;\n    mapping(address => bool) isOwner;\n\n    constructor(address[] memory _owner, uint _limit){\n        require(_owner.length > 0, \"Owners Required !\");\n        require(_limit > 0 && _limit <= _owner.length, \"Invalid number of required approver's !\");\n        for(uint i = 0; i < _owner.length; i++){\n            address owner = _owner[i];\n            require(owner != address(0), \"Invalid Owner !\");\n            require(!isOwner[owner], \"Owner not unique\");\n            isOwner[owner] = true;\n            owners.push(owner);\n        }\n        approversLimit = _limit;\n    }\n\n    modifier onlyOwner(){\n        require(isOwner[msg.sender], \"not owner\");\n        _;\n    }\n\n    modifier txExits(uint _txId){\n        require(_txId < transactions.length, \"transaction does not exit\");\n        _;\n    }\n\n    modifier notExecuted(uint _txId){\n        require(!transactions[_txId].executed, \"transaction already executed\");\n        _;\n    }\n\n    modifier notConiform(uint _txId){\n        require(!transactions[_txId].isConiformed[msg.sender], \"transaction already coniformed\");\n        _;\n    }\n\n    function submitTransaction(address payable _to, uint _value) public onlyOwner {\n        uint nextId = transactions.length;\n        Transaction storage txd = transactions.push();\n        txd.to = _to;\n        txd.value = _value;\n        txd.id = nextId;\n        txd.executed = false;\n        txd.limit = 0;\n    }\n\n    function coniformTransaction(uint _txId) public onlyOwner txExits(_txId) notExecuted(_txId) notConiform(_txId) {\n        Transaction storage txd = transactions[_txId];\n        txd.isConiformed[msg.sender] = true;\n        txd.limit += 1;\n    }\n\n    function executeTransaction(uint _txId) public onlyOwner txExits(_txId) notExecuted(_txId){\n        Transaction storage txd = transactions[_txId];\n        require(txd.limit >= approversLimit, \"connot execute, some approver's not approve transaction !\");\n        txd.executed = true;\n        uint amount = txd.value * 10 ** 18;\n        address payable to = txd.to;\n        (bool sent, ) = to.call{value: amount}(\"\");\n        require(sent, \"transfer failed\");\n    }\n}\n",
  "sourcePath": "/Users/rohan1.ranjan/Desktop/BlockC/Chapter-1/Rohan Ranjan/Truffle-MultiSigner/contracts/MultiSigner.sol",
  "compiler": {
    "name": "solc",
    "version": "0.8.11+commit.d7f03943.Emscripten.clang"
  },
  "schemaVersion": "3.4.4",
  "updatedAt": "2022-02-06T18:25:26.686Z",
  "networkType": "ethereum",
  "devdoc": {
    "details": "Store & retrieve value in a variable",
    "kind": "dev",
    "methods": {},
    "title": "Storage",
    "version": 1
  },
  "userdoc": {
    "kind": "user",
    "methods": {},
    "version": 1
  }
}