{
  "contractName": "AccessControl",
  "abi": [
    {
      "inputs": [
        {
          "internalType": "uint256",
          "name": "_price",
          "type": "uint256"
        }
      ],
      "stateMutability": "nonpayable",
      "type": "constructor"
    },
    {
      "anonymous": false,
      "inputs": [
        {
          "indexed": false,
          "internalType": "uint256",
          "name": "amount",
          "type": "uint256"
        },
        {
          "indexed": false,
          "internalType": "bool",
          "name": "agree",
          "type": "bool"
        }
      ],
      "name": "approval",
      "type": "event"
    },
    {
      "inputs": [
        {
          "internalType": "address",
          "name": "",
          "type": "address"
        }
      ],
      "name": "agreed",
      "outputs": [
        {
          "internalType": "bool",
          "name": "",
          "type": "bool"
        }
      ],
      "stateMutability": "view",
      "type": "function",
      "constant": true
    },
    {
      "inputs": [],
      "name": "price",
      "outputs": [
        {
          "internalType": "uint256",
          "name": "",
          "type": "uint256"
        }
      ],
      "stateMutability": "view",
      "type": "function",
      "constant": true
    },
    {
      "inputs": [
        {
          "internalType": "uint256",
          "name": "_price",
          "type": "uint256"
        }
      ],
      "name": "updatePrice",
      "outputs": [],
      "stateMutability": "nonpayable",
      "type": "function"
    },
    {
      "inputs": [
        {
          "internalType": "uint256",
          "name": "_price",
          "type": "uint256"
        },
        {
          "internalType": "bool",
          "name": "agree",
          "type": "bool"
        }
      ],
      "name": "restrictedPrice",
      "outputs": [],
      "stateMutability": "nonpayable",
      "type": "function"
    },
    {
      "inputs": [
        {
          "internalType": "address",
          "name": "_newOwner",
          "type": "address"
        }
      ],
      "name": "transferOwnership",
      "outputs": [],
      "stateMutability": "view",
      "type": "function",
      "constant": true
    }
  ],
  "bytecode": "0x608060405234801561001057600080fd5b506040516107d83803806107d883398181016040528101906100329190610088565b600160009054906101000a90505080600081905550506100b5565b600080fd5b6000819050919050565b61006581610052565b811461007057600080fd5b50565b6000815190506100828161005c565b92915050565b60006020828403121561009e5761009d61004d565b5b60006100ac84828501610073565b91505092915050565b610714806100c46000396000f3fe608060405234801561001057600080fd5b50600436106100575760003560e01c80638d6cc56d1461005c5780639253b38e14610078578063a035b1fe14610094578063a5b8f210146100b2578063f2fde38b146100e2575b600080fd5b610076600480360381019061007191906103b6565b6100fe565b005b610092600480360381019061008d919061041b565b610198565b005b61009c6102ae565b6040516100a9919061046a565b60405180910390f35b6100cc60048036038101906100c791906104e3565b6102b4565b6040516100d9919061051f565b60405180910390f35b6100fc60048036038101906100f791906104e3565b6102d4565b005b600160009054906101000a900473ffffffffffffffffffffffffffffffffffffffff1673ffffffffffffffffffffffffffffffffffffffff163373ffffffffffffffffffffffffffffffffffffffff161461018e576040517f08c379a0000000000000000000000000000000000000000000000000000000008152600401610185906105bd565b60405180910390fd5b8060008190555050565b600160009054906101000a905050600160009054906101000a90505060001515811515146101fb576040517f08c379a00000000000000000000000000000000000000000000000000000000081526004016101f290610629565b60405180910390fd5b60026000600160009054906101000a900473ffffffffffffffffffffffffffffffffffffffff1673ffffffffffffffffffffffffffffffffffffffff1673ffffffffffffffffffffffffffffffffffffffff16815260200190815260200160002060009054906101000a905050816000819055507f1af92aa254d9a4c7f80f4b970dfebf7c5797dde8a06feb6453a44dd17b38b9d4600054826040516102a2929190610649565b60405180910390a15050565b60005481565b60026020528060005260406000206000915054906101000a900460ff1681565b600160009054906101000a905050600073ffffffffffffffffffffffffffffffffffffffff168173ffffffffffffffffffffffffffffffffffffffff161415610352576040517f08c379a0000000000000000000000000000000000000000000000000000000008152600401610349906106be565b60405180910390fd5b8073ffffffffffffffffffffffffffffffffffffffff16600160009054906101000a9050505050565b600080fd5b6000819050919050565b61039381610380565b811461039e57600080fd5b50565b6000813590506103b08161038a565b92915050565b6000602082840312156103cc576103cb61037b565b5b60006103da848285016103a1565b91505092915050565b60008115159050919050565b6103f8816103e3565b811461040357600080fd5b50565b600081359050610415816103ef565b92915050565b600080604083850312156104325761043161037b565b5b6000610440858286016103a1565b925050602061045185828601610406565b9150509250929050565b61046481610380565b82525050565b600060208201905061047f600083018461045b565b92915050565b600073ffffffffffffffffffffffffffffffffffffffff82169050919050565b60006104b082610485565b9050919050565b6104c0816104a5565b81146104cb57600080fd5b50565b6000813590506104dd816104b7565b92915050565b6000602082840312156104f9576104f861037b565b5b6000610507848285016104ce565b91505092915050565b610519816103e3565b82525050565b60006020820190506105346000830184610510565b92915050565b600082825260208201905092915050565b7f4f6e6c79206f776e65722073686f756c64206368616e6765207468652070726960008201527f6365000000000000000000000000000000000000000000000000000000000000602082015250565b60006105a760228361053a565b91506105b28261054b565b604082019050919050565b600060208201905081810360008301526105d68161059a565b9050919050565b7f616c726561647920617070726f76656400000000000000000000000000000000600082015250565b600061061360108361053a565b915061061e826105dd565b602082019050919050565b6000602082019050818103600083015261064281610606565b9050919050565b600060408201905061065e600083018561045b565b61066b6020830184610510565b9392505050565b7f446f6e27742073657420697420746f2061646472657373203020000000000000600082015250565b60006106a8601a8361053a565b91506106b382610672565b602082019050919050565b600060208201905081810360008301526106d78161069b565b905091905056fea2646970667358221220a55e0c34dea2496137a4bbaa81e7e45347f4cbd1d60491c2bfbfa45a513356f064736f6c634300080b0033",
  "immutableReferences": {},
  "source": "// SPDX-License-Identifier: MIT\n\npragma solidity ^0.8.9;\n\ncontract AccessControl {\n\n\tevent approval(uint256 amount,bool agree);\n\n\tuint256 public price;\n\taddress private owner;\n\t// Deploye: Set the price\n\tconstructor(uint256 _price) onlyOwner{\n\t\tprice = _price;\t\n\t}\n\t// Address: owner is Deployed address \n\tmodifier onlyOwner() {\n\t\tmsg.sender == owner;\n\t\t_;\n\t}\n    // Price: Owner can changes the price\n\tfunction updatePrice(uint256 _price) external {\n\t\trequire(msg.sender == owner, 'Only owner should change the price');\n\t\tprice = _price;\n\t}\n\tmapping(address => bool) public agreed;\n\t// OwnerPermission: Permission to change price\n\tfunction restrictedPrice(uint256 _price, bool agree) public onlyOwner{\n\t\tmsg.sender == owner;\n\t\trequire(agree == false, \"already approved\");\n\t\tagreed[owner];\n\t\tprice = _price;\n\t\temit approval(price, agree);\t\t\n\t}\n\t// TransferOwnership: To New Address\n\tfunction transferOwnership(address _newOwner) external view onlyOwner{\n\t\trequire(_newOwner != address(0), \"Don't set it to address 0 \");\n\t\towner == _newOwner;\n\t}\n}\n\n// it(\"Should set price at deployment\", async function () {\n\t\t\t    \n//     });\n\n//     it(\"Should set the deployer account as the owner at deployment\", async function () {\n      \n//     });\n\n//     it(\"Should be possible for the owner to change price\", async function () {\n    \n//     });\n\n//     it(\"Should NOT be possible for other than the owner to change price\", async function () {\n      \n//     });\n\n//     it(\"Should be possible for the owner to transfer ownership\", async function () {\n     \n//     });\n\n//     it(\"Should be possible for a new owner to call updatePrice\", async function () {\n     \n//     });\n\n//     it(\"Should not be possible for other than the owner to transfer ownership\", a",
  "sourcePath": "/Users/vikashpathak/works/block-c/Chapter-1/Vikash-Pathak/week-8/security/contracts/AccessControl.sol",
  "compiler": {
    "name": "solc",
    "version": "0.8.11+commit.d7f03943.Emscripten.clang"
  },
  "schemaVersion": "3.4.5",
  "updatedAt": "2022-03-03T21:36:11.308Z",
  "networkType": "ethereum",
  "devdoc": {
    "kind": "dev",
    "methods": {},
    "version": 1
  },
  "userdoc": {
    "kind": "user",
    "methods": {},
    "version": 1
  }
}