{
  "contractName": "Multi_sig",
  "abi": [
    {
      "inputs": [],
      "stateMutability": "nonpayable",
      "type": "constructor"
    },
    {
      "anonymous": false,
      "inputs": [
        {
          "indexed": true,
          "internalType": "address",
          "name": "owner",
          "type": "address"
        },
        {
          "indexed": true,
          "internalType": "address",
          "name": "spender",
          "type": "address"
        },
        {
          "indexed": false,
          "internalType": "uint256",
          "name": "value",
          "type": "uint256"
        }
      ],
      "name": "Approval",
      "type": "event"
    },
    {
      "anonymous": false,
      "inputs": [
        {
          "indexed": false,
          "internalType": "address",
          "name": "from",
          "type": "address"
        },
        {
          "indexed": false,
          "internalType": "uint256",
          "name": "amount",
          "type": "uint256"
        },
        {
          "indexed": false,
          "internalType": "uint256",
          "name": "index",
          "type": "uint256"
        }
      ],
      "name": "funds_deposited",
      "type": "event"
    },
    {
      "anonymous": false,
      "inputs": [
        {
          "indexed": false,
          "internalType": "address",
          "name": "from",
          "type": "address"
        },
        {
          "indexed": false,
          "internalType": "uint256",
          "name": "amount",
          "type": "uint256"
        },
        {
          "indexed": false,
          "internalType": "uint256",
          "name": "index",
          "type": "uint256"
        }
      ],
      "name": "funds_withdrawd",
      "type": "event"
    },
    {
      "anonymous": false,
      "inputs": [
        {
          "indexed": false,
          "internalType": "address",
          "name": "sender",
          "type": "address"
        },
        {
          "indexed": false,
          "internalType": "address",
          "name": "receiver",
          "type": "address"
        },
        {
          "indexed": false,
          "internalType": "uint256",
          "name": "amount",
          "type": "uint256"
        },
        {
          "indexed": false,
          "internalType": "uint256",
          "name": "id",
          "type": "uint256"
        },
        {
          "indexed": false,
          "internalType": "uint256",
          "name": "approval",
          "type": "uint256"
        },
        {
          "indexed": false,
          "internalType": "uint256",
          "name": "timestamp",
          "type": "uint256"
        }
      ],
      "name": "tranfer_created",
      "type": "event"
    },
    {
      "anonymous": false,
      "inputs": [
        {
          "indexed": false,
          "internalType": "address",
          "name": "addedyBy",
          "type": "address"
        },
        {
          "indexed": false,
          "internalType": "address",
          "name": "newOwner",
          "type": "address"
        },
        {
          "indexed": false,
          "internalType": "uint256",
          "name": "index",
          "type": "uint256"
        }
      ],
      "name": "wallet_ownerAdded",
      "type": "event"
    },
    {
      "anonymous": false,
      "inputs": [
        {
          "indexed": false,
          "internalType": "address",
          "name": "removedBy",
          "type": "address"
        },
        {
          "indexed": false,
          "internalType": "address",
          "name": "owner_removed",
          "type": "address"
        },
        {
          "indexed": false,
          "internalType": "uint256",
          "name": "index",
          "type": "uint256"
        }
      ],
      "name": "wallet_ownerRemoved",
      "type": "event"
    },
    {
      "inputs": [
        {
          "internalType": "address",
          "name": "owner",
          "type": "address"
        },
        {
          "internalType": "address",
          "name": "spender",
          "type": "address"
        }
      ],
      "name": "allowance",
      "outputs": [
        {
          "internalType": "uint256",
          "name": "",
          "type": "uint256"
        }
      ],
      "stateMutability": "view",
      "type": "function",
      "constant": true
    },
    {
      "inputs": [
        {
          "internalType": "address",
          "name": "owner",
          "type": "address"
        }
      ],
      "name": "addOwner",
      "outputs": [],
      "stateMutability": "nonpayable",
      "type": "function"
    },
    {
      "inputs": [
        {
          "internalType": "address",
          "name": "owner",
          "type": "address"
        }
      ],
      "name": "delOwner",
      "outputs": [],
      "stateMutability": "nonpayable",
      "type": "function"
    },
    {
      "inputs": [
        {
          "internalType": "uint256",
          "name": "amount",
          "type": "uint256"
        }
      ],
      "name": "deposit",
      "outputs": [],
      "stateMutability": "payable",
      "type": "function",
      "payable": true
    },
    {
      "inputs": [
        {
          "internalType": "uint256",
          "name": "amount",
          "type": "uint256"
        }
      ],
      "name": "withdraw",
      "outputs": [],
      "stateMutability": "nonpayable",
      "type": "function"
    },
    {
      "inputs": [
        {
          "internalType": "address",
          "name": "receiver",
          "type": "address"
        },
        {
          "internalType": "uint256",
          "name": "amount",
          "type": "uint256"
        }
      ],
      "name": "createTransaction",
      "outputs": [],
      "stateMutability": "nonpayable",
      "type": "function"
    },
    {
      "inputs": [],
      "name": "getbalance",
      "outputs": [
        {
          "internalType": "uint256",
          "name": "",
          "type": "uint256"
        }
      ],
      "stateMutability": "view",
      "type": "function",
      "constant": true
    },
    {
      "inputs": [
        {
          "internalType": "address",
          "name": "owner",
          "type": "address"
        },
        {
          "internalType": "address",
          "name": "spender",
          "type": "address"
        },
        {
          "internalType": "uint256",
          "name": "amount",
          "type": "uint256"
        }
      ],
      "name": "approve",
      "outputs": [
        {
          "internalType": "bool",
          "name": "",
          "type": "bool"
        }
      ],
      "stateMutability": "nonpayable",
      "type": "function"
    },
    {
      "inputs": [
        {
          "internalType": "uint256",
          "name": "id",
          "type": "uint256"
        }
      ],
      "name": "cancelTransfer",
      "outputs": [],
      "stateMutability": "view",
      "type": "function",
      "constant": true
    },
    {
      "inputs": [],
      "name": "getWalletOwner",
      "outputs": [
        {
          "internalType": "address[]",
          "name": "",
          "type": "address[]"
        }
      ],
      "stateMutability": "view",
      "type": "function",
      "constant": true
    },
    {
      "inputs": [],
      "name": "getContractBalance",
      "outputs": [
        {
          "internalType": "uint256",
          "name": "",
          "type": "uint256"
        }
      ],
      "stateMutability": "view",
      "type": "function",
      "constant": true
    }
  ],
  "bytecode": "0x6080604052600060025534801561001557600080fd5b50336000806101000a81548173ffffffffffffffffffffffffffffffffffffffff021916908373ffffffffffffffffffffffffffffffffffffffff1602179055506001339080600181540180825580915050600190039060005260206000200160009091909190916101000a81548173ffffffffffffffffffffffffffffffffffffffff021916908373ffffffffffffffffffffffffffffffffffffffff16021790555061227d806100c86000396000f3fe60806040526004361061009c5760003560e01c80637065cb48116100645780637065cb4814610172578063739841881461019b578063755765ab146101c4578063b6b55f25146101ef578063dd62ed3e1461020b578063e1f21c67146102485761009c565b80631e7f8f0f146100a15780632e1a7d4d146100ca5780634d9b3d5d146100f357806359caecb51461011e5780636f9fb98a14610147575b600080fd5b3480156100ad57600080fd5b506100c860048036038101906100c391906117b1565b610285565b005b3480156100d657600080fd5b506100f160048036038101906100ec91906117f1565b6105fd565b005b3480156100ff57600080fd5b506101086108be565b6040516101159190611d52565b60405180910390f35b34801561012a57600080fd5b50610145600480360381019061014091906117f1565b610905565b005b34801561015357600080fd5b5061015c610b66565b6040516101699190611d52565b60405180910390f35b34801561017e57600080fd5b50610199600480360381019061019491906116f1565b610b6e565b005b3480156101a757600080fd5b506101c260048036038101906101bd91906116f1565b610dd8565b005b3480156101d057600080fd5b506101d96110e0565b6040516101e69190611b75565b60405180910390f35b610209600480360381019061020491906117f1565b61116e565b005b34801561021757600080fd5b50610232600480360381019061022d919061171e565b61146e565b60405161023f9190611d52565b60405180910390f35b34801561025457600080fd5b5061026f600480360381019061026a919061175e565b6114f5565b60405161027c9190611b97565b60405180910390f35b6000805b600180549050811015610324573373ffffffffffffffffffffffffffffffffffffffff16600182815481106102c1576102c0611eec565b5b9060005260206000200160009054906101000a900473ffffffffffffffffffffffffffffffffffffffff1673ffffffffffffffffffffffffffffffffffffffff1614156103115760019150610324565b808061031c90611e45565b915050610289565b50600115158115151461036c576040517f08c379a000000000000000000000000000000000000000000000000000000000815260040161036390611c52565b60405180910390fd5b8273ffffffffffffffffffffffffffffffffffffffff163373ffffffffffffffffffffffffffffffffffffffff1614156103db576040517f08c379a00000000000000000000000000000000000000000000000000000000081526004016103d290611cd2565b60405180910390fd5b81600460003373ffffffffffffffffffffffffffffffffffffffff1673ffffffffffffffffffffffffffffffffffffffff16815260200190815260200160002054101561045d576040517f08c379a000000000000000000000000000000000000000000000000000000000815260040161045490611c32565b60405180910390fd5b60066040518060c001604052803373ffffffffffffffffffffffffffffffffffffffff1681526020018573ffffffffffffffffffffffffffffffffffffffff16815260200184815260200160025481526020016000815260200142815250908060018154018082558091505060019003906000526020600020906006020160009091909190915060008201518160000160006101000a81548173ffffffffffffffffffffffffffffffffffffffff021916908373ffffffffffffffffffffffffffffffffffffffff16021790555060208201518160010160006101000a81548173ffffffffffffffffffffffffffffffffffffffff021916908373ffffffffffffffffffffffffffffffffffffffff16021790555060408201518160020155606082015181600301556080820151816004015560a082015181600501555050600260008154809291906105af90611e45565b91905055507f5ff3e472ba185501cb0edc31da0a7169f5bc104d84a6cdb58b780b5f1a5eeeec3384846002546000426040516105f096959493929190611add565b60405180910390a1505050565b6000805b60018054905081101561069c573373ffffffffffffffffffffffffffffffffffffffff166001828154811061063957610638611eec565b5b9060005260206000200160009054906101000a900473ffffffffffffffffffffffffffffffffffffffff1673ffffffffffffffffffffffffffffffffffffffff161415610689576001915061069c565b808061069490611e45565b915050610601565b5060011515811515146106e4576040517f08c379a00000000000000000000000000000000000000000000000000000000081526004016106db90611c52565b60405180910390fd5b60008211610727576040517f08c379a000000000000000000000000000000000000000000000000000000000815260040161071e90611cb2565b60405180910390fd5b6000600460003373ffffffffffffffffffffffffffffffffffffffff1673ffffffffffffffffffffffffffffffffffffffff1681526020019081526020016000205410156107aa576040517f08c379a00000000000000000000000000000000000000000000000000000000081526004016107a190611c32565b60405180910390fd5b81600460003373ffffffffffffffffffffffffffffffffffffffff1673ffffffffffffffffffffffffffffffffffffffff168152602001908152602001600020546107f59190611db7565b600460003373ffffffffffffffffffffffffffffffffffffffff1673ffffffffffffffffffffffffffffffffffffffff168152602001908152602001600020819055503373ffffffffffffffffffffffffffffffffffffffff166108fc839081150290604051600060405180830381858888f1935050505015801561087e573d6000803e3d6000fd5b507f3362d6ef7884fb56653be076b2f9a0f5a1bd8cb8accc6fda15c1728a328031683383426040516108b293929190611b3e565b60405180910390a15050565b6000600460003373ffffffffffffffffffffffffffffffffffffffff1673ffffffffffffffffffffffffffffffffffffffff16815260200190815260200160002054905090565b6000805b6001805490508110156109a4573373ffffffffffffffffffffffffffffffffffffffff166001828154811061094157610940611eec565b5b9060005260206000200160009054906101000a900473ffffffffffffffffffffffffffffffffffffffff1673ffffffffffffffffffffffffffffffffffffffff16141561099157600191506109a4565b808061099c90611e45565b915050610909565b5060011515811515146109ec576040517f08c379a00000000000000000000000000000000000000000000000000000000081526004016109e390611c52565b60405180910390fd5b60008060005b6001600680549050610a049190611db7565b811015610a65578460068281548110610a2057610a1f611eec565b5b9060005260206000209060060201600301541415610a445760019250809150610a65565b8180610a4f90611e45565b9250508080610a5d90611e45565b9150506109f2565b506001151582151514610aad576040517f08c379a0000000000000000000000000000000000000000000000000000000008152600401610aa490611d32565b60405180910390fd5b60068181548110610ac157610ac0611eec565b5b906000526020600020906006020160000160009054906101000a900473ffffffffffffffffffffffffffffffffffffffff1673ffffffffffffffffffffffffffffffffffffffff163373ffffffffffffffffffffffffffffffffffffffff1614610b60576040517f08c379a0000000000000000000000000000000000000000000000000000000008152600401610b5790611d12565b60405180910390fd5b50505050565b600047905090565b6000805b600180549050811015610c0d573373ffffffffffffffffffffffffffffffffffffffff1660018281548110610baa57610ba9611eec565b5b9060005260206000200160009054906101000a900473ffffffffffffffffffffffffffffffffffffffff1673ffffffffffffffffffffffffffffffffffffffff161415610bfa5760019150610c0d565b8080610c0590611e45565b915050610b72565b506001151581151514610c55576040517f08c379a0000000000000000000000000000000000000000000000000000000008152600401610c4c90611c52565b60405180910390fd5b60005b600180549050811015610d25578273ffffffffffffffffffffffffffffffffffffffff1660018281548110610c9057610c8f611eec565b5b9060005260206000200160009054906101000a900473ffffffffffffffffffffffffffffffffffffffff1673ffffffffffffffffffffffffffffffffffffffff161415610d12576040517f08c379a0000000000000000000000000000000000000000000000000000000008152600401610d0990611c12565b60405180910390fd5b8080610d1d90611e45565b915050610c58565b506001829080600181540180825580915050600190039060005260206000200160009091909190916101000a81548173ffffffffffffffffffffffffffffffffffffffff021916908373ffffffffffffffffffffffffffffffffffffffff1602179055507f5a0017c91b45cf7ee5bb329d06649ab5c9700dc8a58c1af4d9fd1de2b09bedc5338360018080549050610dbd9190611db7565b604051610dcc93929190611aa6565b60405180910390a15050565b6000805b600180549050811015610e77573373ffffffffffffffffffffffffffffffffffffffff1660018281548110610e1457610e13611eec565b5b9060005260206000200160009054906101000a900473ffffffffffffffffffffffffffffffffffffffff1673ffffffffffffffffffffffffffffffffffffffff161415610e645760019150610e77565b8080610e6f90611e45565b915050610ddc565b506001151581151514610ebf576040517f08c379a0000000000000000000000000000000000000000000000000000000008152600401610eb690611c52565b60405180910390fd5b60008080600090505b600180549050811015610f66578473ffffffffffffffffffffffffffffffffffffffff1660018281548110610f0057610eff611eec565b5b9060005260206000200160009054906101000a900473ffffffffffffffffffffffffffffffffffffffff1673ffffffffffffffffffffffffffffffffffffffff161415610f535760019250809150610f66565b8080610f5e90611e45565b915050610ec8565b506001151582151514610fae576040517f08c379a0000000000000000000000000000000000000000000000000000000008152600401610fa590611c92565b60405180910390fd5b6001808080549050610fc09190611db7565b81548110610fd157610fd0611eec565b5b9060005260206000200160009054906101000a900473ffffffffffffffffffffffffffffffffffffffff16600182815481106110105761100f611eec565b5b9060005260206000200160006101000a81548173ffffffffffffffffffffffffffffffffffffffff021916908373ffffffffffffffffffffffffffffffffffffffff160217905550600180548061106a57611069611ebd565b5b6001900381819060005260206000200160006101000a81549073ffffffffffffffffffffffffffffffffffffffff021916905590557fb2fc7bd05555890bb159a1291438a5bfc02a5051e052be42ba90c859f1c481743385426040516110d293929190611aa6565b60405180910390a150505050565b6060600180548060200260200160405190810160405280929190818152602001828054801561116457602002820191906000526020600020905b8160009054906101000a900473ffffffffffffffffffffffffffffffffffffffff1673ffffffffffffffffffffffffffffffffffffffff168152602001906001019080831161111a575b5050505050905090565b6000805b60018054905081101561120d573373ffffffffffffffffffffffffffffffffffffffff16600182815481106111aa576111a9611eec565b5b9060005260206000200160009054906101000a900473ffffffffffffffffffffffffffffffffffffffff1673ffffffffffffffffffffffffffffffffffffffff1614156111fa576001915061120d565b808061120590611e45565b915050611172565b506001151581151514611255576040517f08c379a000000000000000000000000000000000000000000000000000000000815260040161124c90611c52565b60405180910390fd5b81341015611298576040517f08c379a000000000000000000000000000000000000000000000000000000000815260040161128f90611bb2565b60405180910390fd5b600082116112db576040517f08c379a00000000000000000000000000000000000000000000000000000000081526004016112d290611c72565b60405180910390fd5b60008054906101000a900473ffffffffffffffffffffffffffffffffffffffff1673ffffffffffffffffffffffffffffffffffffffff163373ffffffffffffffffffffffffffffffffffffffff1614611369576040517f08c379a000000000000000000000000000000000000000000000000000000000815260040161136090611bf2565b60405180910390fd5b34600460003373ffffffffffffffffffffffffffffffffffffffff1673ffffffffffffffffffffffffffffffffffffffff1681526020019081526020016000205410156113eb576040517f08c379a00000000000000000000000000000000000000000000000000000000081526004016113e290611c32565b60405180910390fd5b34600460003373ffffffffffffffffffffffffffffffffffffffff1673ffffffffffffffffffffffffffffffffffffffff168152602001908152602001600020819055507fb66661433873fff328d8a2f5b7e257d68f7861f4b0d1677c55a796caa6c22abe33344260405161146293929190611b3e565b60405180910390a15050565b6000600560008473ffffffffffffffffffffffffffffffffffffffff1673ffffffffffffffffffffffffffffffffffffffff16815260200190815260200160002060008373ffffffffffffffffffffffffffffffffffffffff1673ffffffffffffffffffffffffffffffffffffffff16815260200190815260200160002054905092915050565b60008073ffffffffffffffffffffffffffffffffffffffff168473ffffffffffffffffffffffffffffffffffffffff161415611566576040517f08c379a000000000000000000000000000000000000000000000000000000000815260040161155d90611cf2565b60405180910390fd5b600073ffffffffffffffffffffffffffffffffffffffff168373ffffffffffffffffffffffffffffffffffffffff1614156115d6576040517f08c379a00000000000000000000000000000000000000000000000000000000081526004016115cd90611bd2565b60405180910390fd5b81600560008673ffffffffffffffffffffffffffffffffffffffff1673ffffffffffffffffffffffffffffffffffffffff16815260200190815260200160002060008573ffffffffffffffffffffffffffffffffffffffff1673ffffffffffffffffffffffffffffffffffffffff168152602001908152602001600020819055508273ffffffffffffffffffffffffffffffffffffffff168473ffffffffffffffffffffffffffffffffffffffff167f8c5be1e5ebec7d5bd14f71427d1e84f3dd0314c0f7b2291e5b200ac8c7c3b925846040516116b49190611d52565b60405180910390a3600190509392505050565b6000813590506116d681612219565b92915050565b6000813590506116eb81612230565b92915050565b60006020828403121561170757611706611f1b565b5b6000611715848285016116c7565b91505092915050565b6000806040838503121561173557611734611f1b565b5b6000611743858286016116c7565b9250506020611754858286016116c7565b9150509250929050565b60008060006060848603121561177757611776611f1b565b5b6000611785868287016116c7565b9350506020611796868287016116c7565b92505060406117a7868287016116dc565b9150509250925092565b600080604083850312156117c8576117c7611f1b565b5b60006117d6858286016116c7565b92505060206117e7858286016116dc565b9150509250929050565b60006020828403121561180757611806611f1b565b5b6000611815848285016116dc565b91505092915050565b600061182a8383611836565b60208301905092915050565b61183f81611deb565b82525050565b61184e81611deb565b82525050565b600061185f82611d7d565b6118698185611d95565b935061187483611d6d565b8060005b838110156118a557815161188c888261181e565b975061189783611d88565b925050600181019050611878565b5085935050505092915050565b6118bb81611dfd565b82525050565b6118ca81611e33565b82525050565b60006118dd603a83611da6565b91506118e882611f20565b604082019050919050565b6000611900602283611da6565b915061190b82611f6f565b604082019050919050565b6000611923601b83611da6565b915061192e82611fbe565b602082019050919050565b6000611946601a83611da6565b915061195182611fe7565b602082019050919050565b6000611969601483611da6565b915061197482612010565b602082019050919050565b600061198c602583611da6565b915061199782612039565b604082019050919050565b60006119af602583611da6565b91506119ba82612088565b604082019050919050565b60006119d2601383611da6565b91506119dd826120d7565b602082019050919050565b60006119f5602683611da6565b9150611a0082612100565b604082019050919050565b6000611a18600883611da6565b9150611a238261214f565b602082019050919050565b6000611a3b602483611da6565b9150611a4682612178565b604082019050919050565b6000611a5e601f83611da6565b9150611a69826121c7565b602082019050919050565b6000611a81601283611da6565b9150611a8c826121f0565b602082019050919050565b611aa081611e29565b82525050565b6000606082019050611abb6000830186611845565b611ac86020830185611845565b611ad56040830184611a97565b949350505050565b600060c082019050611af26000830189611845565b611aff6020830188611845565b611b0c6040830187611a97565b611b196060830186611a97565b611b2660808301856118c1565b611b3360a0830184611a97565b979650505050505050565b6000606082019050611b536000830186611845565b611b606020830185611a97565b611b6d6040830184611a97565b949350505050565b60006020820190508181036000830152611b8f8184611854565b905092915050565b6000602082019050611bac60008301846118b2565b92915050565b60006020820190508181036000830152611bcb816118d0565b9050919050565b60006020820190508181036000830152611beb816118f3565b9050919050565b60006020820190508181036000830152611c0b81611916565b9050919050565b60006020820190508181036000830152611c2b81611939565b9050919050565b60006020820190508181036000830152611c4b8161195c565b9050919050565b60006020820190508181036000830152611c6b8161197f565b9050919050565b60006020820190508181036000830152611c8b816119a2565b9050919050565b60006020820190508181036000830152611cab816119c5565b9050919050565b60006020820190508181036000830152611ccb816119e8565b9050919050565b60006020820190508181036000830152611ceb81611a0b565b9050919050565b60006020820190508181036000830152611d0b81611a2e565b9050919050565b60006020820190508181036000830152611d2b81611a51565b9050919050565b60006020820190508181036000830152611d4b81611a74565b9050919050565b6000602082019050611d676000830184611a97565b92915050565b6000819050602082019050919050565b600081519050919050565b6000602082019050919050565b600082825260208201905092915050565b600082825260208201905092915050565b6000611dc282611e29565b9150611dcd83611e29565b925082821015611de057611ddf611e8e565b5b828203905092915050565b6000611df682611e09565b9050919050565b60008115159050919050565b600073ffffffffffffffffffffffffffffffffffffffff82169050919050565b6000819050919050565b6000611e3e82611e29565b9050919050565b6000611e5082611e29565b91507fffffffffffffffffffffffffffffffffffffffffffffffffffffffffffffffff821415611e8357611e82611e8e565b5b600182019050919050565b7f4e487b7100000000000000000000000000000000000000000000000000000000600052601160045260246000fd5b7f4e487b7100000000000000000000000000000000000000000000000000000000600052603160045260246000fd5b7f4e487b7100000000000000000000000000000000000000000000000000000000600052603260045260246000fd5b600080fd5b7f6465706f73697420616d6f756e74206d7573742062652067726561746572207460008201527f68616e206f7220657175616c20746f2074686520616d6f756e74000000000000602082015250565b7f45524332303a20617070726f766520746f20746865207a65726f20616464726560008201527f7373000000000000000000000000000000000000000000000000000000000000602082015250565b7f6f6e6c79206d61696e206f776e65722063616e206465706f7369740000000000600082015250565b7f63616e6e6f7420616464206475706c6963617465206f776e6572000000000000600082015250565b7f696e73756666696369656e742062616c616e6365000000000000000000000000600082015250565b7f6f6e6c792077616c6c6574206f776e6572732063616c6c20746869732066756e60008201527f6374696f6e000000000000000000000000000000000000000000000000000000602082015250565b7f6465706f73697420616d6f756e74206d7573742062652067726561746572207460008201527f68616e2030000000000000000000000000000000000000000000000000000000602082015250565b7f206f776e6572206e6f7420646574656374656400000000000000000000000000600082015250565b7f776974686472617720616d6f756e74206d75737420626520677265617465722060008201527f7468616e20300000000000000000000000000000000000000000000000000000602082015250565b7f6e6f206672617564000000000000000000000000000000000000000000000000600082015250565b7f45524332303a20617070726f76652066726f6d20746865207a65726f2061646460008201527f7265737300000000000000000000000000000000000000000000000000000000602082015250565b7f6f6e6c792073656e6465722063616e2063616e63656c207472616e7366657200600082015250565b7f7472616e73666572206e6f7420666f756e640000000000000000000000000000600082015250565b61222281611deb565b811461222d57600080fd5b50565b61223981611e29565b811461224457600080fd5b5056fea2646970667358221220e73d51d6dcff62fd00903c6c84fccd101a2ecb35f5dda631843b4a874004207264736f6c63430008060033",
  "immutableReferences": {},
  "source": "// SPDX-License-Identifier: Apache-2.0\n\npragma solidity ^0.8.6;\n\ncontract Multi_sig{\n    // requirement for multi-sig wallet\n    address mainOwner;\n    address[] walletOwners;\n    uint transferId = 0;\n\n    uint balances;\n    mapping(address => uint) balance;\n\n    struct Transaction{\n        address sender;\n        address receiver;\n        uint amount;\n        uint transferId;\n        uint approvalCount;\n        uint approval_TransactionTime;\n    }\n\n    mapping (address => mapping (address => uint256)) private _allowances;\n    Transaction[] transaction_request;\n\n    event wallet_ownerAdded(address addedyBy, address newOwner, uint index);\n    event wallet_ownerRemoved(address removedBy, address owner_removed, uint index);\n    event funds_deposited(address from, uint amount, uint index);\n    event funds_withdrawd(address from, uint amount, uint index);\n    event tranfer_created(address sender,address receiver,uint amount, uint id, uint approval,uint timestamp);\n    event Approval(address indexed owner, address indexed spender, uint256 value);\n    // event SubmitTransaction(\n    //     address indexed owner,\n    //     uint indexed txIndex,\n    //     address indexed to,\n    //     uint value,\n    //     bytes data\n    // );\n\n\n\n    constructor() {\n        mainOwner = msg.sender;\n        walletOwners.push(msg.sender);\n        } \n\n    modifier onlyOwner() {\n         bool isOwner = false;\n        for (uint i =0; i < walletOwners.length; i++) {\n            if (walletOwners[i] == msg.sender) {\n                isOwner = true;\n                break;\n            }\n        }\n        require(isOwner == true, 'only wallet owners call this function');\n        _;\n    }\n    function allowance(address owner, address spender) public view returns (uint256) {\n        return _allowances[owner][spender];\n    }\n    function addOwner(address owner) public onlyOwner{    \n        for (uint i =0; i < walletOwners.length; i++) {\n            if (walletOwners[i] == owner) {\n                revert('cannot add duplicate owner');\n            }\n        }\n        walletOwners.push(owner);\n        emit wallet_ownerAdded(msg.sender, owner, walletOwners.length - 1);\n    }\n    function delOwner(address owner) public onlyOwner {\n        bool alreadyDeleted = false;\n        uint ownerIndex;\n        for (uint i =0; i < walletOwners.length; i++) {\n            if (walletOwners[i] == owner) {\n                alreadyDeleted = true;\n                ownerIndex = i;\n                break;\n            }\n        }\n        require(alreadyDeleted == true, ' owner not detected');\n        walletOwners[ownerIndex] = walletOwners[walletOwners.length - 1];\n        walletOwners.pop();\n        emit wallet_ownerRemoved(msg.sender, owner, block.timestamp);\n    }\n    function deposit(uint amount) public payable onlyOwner{\n        require(msg.value >= amount, 'deposit amount must be greater than or equal to the amount');\n        require(amount > 0, 'deposit amount must be greater than 0');\n        require(msg.sender == mainOwner, 'only main owner can deposit');\n        require(balance[msg.sender] >= msg.value, 'insufficient balance');\n        balance[msg.sender] = msg.value;\n        emit funds_deposited(msg.sender, msg.value, block.timestamp);\n    }\n    function withdraw(uint amount) public onlyOwner{\n        require(amount > 0, 'withdraw amount must be greater than 0');\n        require(balance[msg.sender] >= 0, 'insufficient balance');\n        balance[msg.sender] = balance[msg.sender] - amount;\n        payable(msg.sender).transfer(amount);\n        emit funds_withdrawd(msg.sender, amount, block.timestamp);\n    }\n    function createTransaction(address receiver, uint amount) public onlyOwner{\n        require(msg.sender != receiver, 'no fraud');\n        require(balance[msg.sender] >= amount, 'insufficient balance');\n        // Transaction.push(transfer(msg.sender, receiver, amount , ))\n        transaction_request.push(Transaction(msg.sender, receiver, amount, transferId, 0, block.timestamp)); \n        transferId++;\n\n        emit tranfer_created(msg.sender, receiver, amount, transferId, 0, block.timestamp);\n    }\n    function getbalance() public view returns (uint){\n        return balance[msg.sender];\n    }\n\n    function approve(address owner, address spender, uint256 amount) public returns (bool) {\n        require(owner != address(0), \"ERC20: approve from the zero address\");\n        require(spender != address(0), \"ERC20: approve to the zero address\");\n\n        _allowances[owner][spender] = amount;\n        emit Approval(owner, spender, amount);\n        return true;\n    }\n    function cancelTransfer(uint id) public view onlyOwner{\n        bool hasbeenfound = false;\n        uint transferindex =  0;\n        for(uint i = 0; i < transaction_request.length - 1; i++){\n            if(transaction_request[i].transferId == id){\n                hasbeenfound = true;\n                transferindex = i;\n                break;\n            }\n            transferindex++;\n        }\n        require(hasbeenfound == true, 'transfer not found');\n        require(msg.sender == transaction_request[transferindex].sender, 'only sender can cancel transfer');\n    }\n\n    function getWalletOwner( ) public view returns (address[] memory) {\n        return walletOwners;\n    }\n    function getContractBalance() public view returns (uint){\n        return address(this).balance;\n    }\n}\n\n",
  "sourcePath": "/Users/vikashpathak/works/block-c/Chapter-1/Vikash-Pathak/multisig-wallet/contracts/Multi_sig.sol",
  "compiler": {
    "name": "solc",
    "version": "0.8.6+commit.11564f7e.Emscripten.clang"
  },
  "schemaVersion": "3.4.4",
  "updatedAt": "2022-02-04T07:17:59.047Z",
  "networkType": "ethereum",
  "devdoc": {
    "kind": "dev",
    "methods": {},
    "version": 1
  },
  "userdoc": {
    "kind": "user",
    "methods": {},
    "version": 1
  }
}