{
  "contractName": "MultiSignerWallet",
  "abi": [
    {
      "inputs": [
        {
          "internalType": "address[]",
          "name": "_owners",
          "type": "address[]"
        }
      ],
      "stateMutability": "nonpayable",
      "type": "constructor"
    },
    {
      "inputs": [
        {
          "internalType": "address payable",
          "name": "_to",
          "type": "address"
        },
        {
          "internalType": "uint256",
          "name": "_amount",
          "type": "uint256"
        }
      ],
      "name": "createTransaction",
      "outputs": [
        {
          "internalType": "uint256",
          "name": "",
          "type": "uint256"
        }
      ],
      "stateMutability": "nonpayable",
      "type": "function"
    },
    {
      "inputs": [
        {
          "internalType": "uint256",
          "name": "_id",
          "type": "uint256"
        }
      ],
      "name": "signTransaction",
      "outputs": [],
      "stateMutability": "nonpayable",
      "type": "function"
    },
    {
      "inputs": [
        {
          "internalType": "uint256",
          "name": "_id",
          "type": "uint256"
        }
      ],
      "name": "sendTransaction",
      "outputs": [],
      "stateMutability": "nonpayable",
      "type": "function"
    },
    {
      "inputs": [
        {
          "internalType": "address",
          "name": "_newOwner",
          "type": "address"
        }
      ],
      "name": "assignOwner",
      "outputs": [],
      "stateMutability": "nonpayable",
      "type": "function"
    },
    {
      "inputs": [],
      "name": "getOwners",
      "outputs": [
        {
          "internalType": "address[]",
          "name": "",
          "type": "address[]"
        }
      ],
      "stateMutability": "view",
      "type": "function",
      "constant": true
    }
  ],
  "bytecode": "0x6080604052600080553480156200001557600080fd5b50604051620014823803806200148283398181016040528101906200003b9190620002f7565b8060019080519060200190620000539291906200005b565b505062000348565b828054828255906000526020600020908101928215620000d7579160200282015b82811115620000d65782518260006101000a81548173ffffffffffffffffffffffffffffffffffffffff021916908373ffffffffffffffffffffffffffffffffffffffff160217905550916020019190600101906200007c565b5b509050620000e69190620000ea565b5090565b5b8082111562000105576000816000905550600101620000eb565b5090565b6000604051905090565b600080fd5b600080fd5b600080fd5b6000601f19601f8301169050919050565b7f4e487b7100000000000000000000000000000000000000000000000000000000600052604160045260246000fd5b6200016d8262000122565b810181811067ffffffffffffffff821117156200018f576200018e62000133565b5b80604052505050565b6000620001a462000109565b9050620001b2828262000162565b919050565b600067ffffffffffffffff821115620001d557620001d462000133565b5b602082029050602081019050919050565b600080fd5b600073ffffffffffffffffffffffffffffffffffffffff82169050919050565b60006200021882620001eb565b9050919050565b6200022a816200020b565b81146200023657600080fd5b50565b6000815190506200024a816200021f565b92915050565b6000620002676200026184620001b7565b62000198565b905080838252602082019050602084028301858111156200028d576200028c620001e6565b5b835b81811015620002ba5780620002a5888262000239565b8452602084019350506020810190506200028f565b5050509392505050565b600082601f830112620002dc57620002db6200011d565b5b8151620002ee84826020860162000250565b91505092915050565b60006020828403121562000310576200030f62000113565b5b600082015167ffffffffffffffff81111562000331576200033062000118565b5b6200033f84828501620002c4565b91505092915050565b61112a80620003586000396000f3fe608060405234801561001057600080fd5b50600436106100575760003560e01c80631e7f8f0f1461005c5780635d9ec2101461008c5780636fe3cc32146100a85780637f12caaa146100c4578063a0e67e2b146100e0575b600080fd5b61007660048036038101906100719190610c0a565b6100fe565b6040516100839190610c59565b60405180910390f35b6100a660048036038101906100a19190610c74565b6102ee565b005b6100c260048036038101906100bd9190610c74565b61056b565b005b6100de60048036038101906100d99190610cdf565b6107df565b005b6100e8610a06565b6040516100f59190610dca565b60405180910390f35b6000806000905060005b60018054905081101561019f573373ffffffffffffffffffffffffffffffffffffffff16600182815481106101405761013f610dec565b5b9060005260206000200160009054906101000a900473ffffffffffffffffffffffffffffffffffffffff1673ffffffffffffffffffffffffffffffffffffffff16141561018c57600191505b808061019790610e4a565b915050610108565b50806101e0576040517f08c379a00000000000000000000000000000000000000000000000000000000081526004016101d790610ef0565b60405180910390fd5b6040518060a0016040528060005481526020018573ffffffffffffffffffffffffffffffffffffffff168152602001848152602001600015158152602001600081525060036000805481526020019081526020016000206000820151816000015560208201518160010160006101000a81548173ffffffffffffffffffffffffffffffffffffffff021916908373ffffffffffffffffffffffffffffffffffffffff1602179055506040820151816002015560608201518160030160006101000a81548160ff021916908315150217905550608082015181600401559050506000808154809291906102d190610e4a565b919050555060016000546102e59190610f10565b91505092915050565b6000805b600180549050811015610389573373ffffffffffffffffffffffffffffffffffffffff166001828154811061032a57610329610dec565b5b9060005260206000200160009054906101000a900473ffffffffffffffffffffffffffffffffffffffff1673ffffffffffffffffffffffffffffffffffffffff16141561037657600191505b808061038190610e4a565b9150506102f2565b50806103ca576040517f08c379a00000000000000000000000000000000000000000000000000000000081526004016103c190610ef0565b60405180910390fd5b60001515600260003373ffffffffffffffffffffffffffffffffffffffff1673ffffffffffffffffffffffffffffffffffffffff168152602001908152602001600020600084815260200190815260200160002060009054906101000a900460ff16151514156104ca576001600260003373ffffffffffffffffffffffffffffffffffffffff1673ffffffffffffffffffffffffffffffffffffffff168152602001908152602001600020600084815260200190815260200160002060006101000a81548160ff0219169083151502179055506003600083815260200190815260200160002060040160008154809291906104c490610e4a565b91905055505b600260003373ffffffffffffffffffffffffffffffffffffffff1673ffffffffffffffffffffffffffffffffffffffff168152602001908152602001600020600083815260200190815260200160002060009054906101000a900460ff16610567576040517f08c379a000000000000000000000000000000000000000000000000000000000815260040161055e90610f90565b60405180910390fd5b5050565b6000805b600180549050811015610606573373ffffffffffffffffffffffffffffffffffffffff16600182815481106105a7576105a6610dec565b5b9060005260206000200160009054906101000a900473ffffffffffffffffffffffffffffffffffffffff1673ffffffffffffffffffffffffffffffffffffffff1614156105f357600191505b80806105fe90610e4a565b91505061056f565b5080610647576040517f08c379a000000000000000000000000000000000000000000000000000000000815260040161063e90610ef0565b60405180910390fd5b81600015156003600083815260200190815260200160002060030160009054906101000a900460ff161515146106b2576040517f08c379a00000000000000000000000000000000000000000000000000000000081526004016106a990610ffc565b60405180910390fd5b8260018054905060036000838152602001908152602001600020600401541015610711576040517f08c379a000000000000000000000000000000000000000000000000000000000815260040161070890611068565b60405180910390fd5b60016003600086815260200190815260200160002060030160006101000a81548160ff02191690831515021790555060006003600086815260200190815260200160002060010160009054906101000a900473ffffffffffffffffffffffffffffffffffffffff1690508073ffffffffffffffffffffffffffffffffffffffff166108fc60036000888152602001908152602001600020600201549081150290604051600060405180830381858888f193505050501580156107d7573d6000803e3d6000fd5b505050505050565b6000805b60018054905081101561087a573373ffffffffffffffffffffffffffffffffffffffff166001828154811061081b5761081a610dec565b5b9060005260206000200160009054906101000a900473ffffffffffffffffffffffffffffffffffffffff1673ffffffffffffffffffffffffffffffffffffffff16141561086757600191505b808061087290610e4a565b9150506107e3565b50806108bb576040517f08c379a00000000000000000000000000000000000000000000000000000000081526004016108b290610ef0565b60405180910390fd5b8160006001905060005b60018054905081101561095c578273ffffffffffffffffffffffffffffffffffffffff16600182815481106108fd576108fc610dec565b5b9060005260206000200160009054906101000a900473ffffffffffffffffffffffffffffffffffffffff1673ffffffffffffffffffffffffffffffffffffffff16141561094957600091505b808061095490610e4a565b9150506108c5565b508061099d576040517f08c379a0000000000000000000000000000000000000000000000000000000008152600401610994906110d4565b60405180910390fd5b6001849080600181540180825580915050600190039060005260206000200160009091909190916101000a81548173ffffffffffffffffffffffffffffffffffffffff021916908373ffffffffffffffffffffffffffffffffffffffff16021790555050505050565b60606000805b600180549050811015610aa3573373ffffffffffffffffffffffffffffffffffffffff1660018281548110610a4457610a43610dec565b5b9060005260206000200160009054906101000a900473ffffffffffffffffffffffffffffffffffffffff1673ffffffffffffffffffffffffffffffffffffffff161415610a9057600191505b8080610a9b90610e4a565b915050610a0c565b5080610ae4576040517f08c379a0000000000000000000000000000000000000000000000000000000008152600401610adb90610ef0565b60405180910390fd5b6001805480602002602001604051908101604052809291908181526020018280548015610b6657602002820191906000526020600020905b8160009054906101000a900473ffffffffffffffffffffffffffffffffffffffff1673ffffffffffffffffffffffffffffffffffffffff1681526020019060010190808311610b1c575b505050505091505090565b600080fd5b600073ffffffffffffffffffffffffffffffffffffffff82169050919050565b6000610ba182610b76565b9050919050565b610bb181610b96565b8114610bbc57600080fd5b50565b600081359050610bce81610ba8565b92915050565b6000819050919050565b610be781610bd4565b8114610bf257600080fd5b50565b600081359050610c0481610bde565b92915050565b60008060408385031215610c2157610c20610b71565b5b6000610c2f85828601610bbf565b9250506020610c4085828601610bf5565b9150509250929050565b610c5381610bd4565b82525050565b6000602082019050610c6e6000830184610c4a565b92915050565b600060208284031215610c8a57610c89610b71565b5b6000610c9884828501610bf5565b91505092915050565b6000610cac82610b76565b9050919050565b610cbc81610ca1565b8114610cc757600080fd5b50565b600081359050610cd981610cb3565b92915050565b600060208284031215610cf557610cf4610b71565b5b6000610d0384828501610cca565b91505092915050565b600081519050919050565b600082825260208201905092915050565b6000819050602082019050919050565b610d4181610ca1565b82525050565b6000610d538383610d38565b60208301905092915050565b6000602082019050919050565b6000610d7782610d0c565b610d818185610d17565b9350610d8c83610d28565b8060005b83811015610dbd578151610da48882610d47565b9750610daf83610d5f565b925050600181019050610d90565b5085935050505092915050565b60006020820190508181036000830152610de48184610d6c565b905092915050565b7f4e487b7100000000000000000000000000000000000000000000000000000000600052603260045260246000fd5b7f4e487b7100000000000000000000000000000000000000000000000000000000600052601160045260246000fd5b6000610e5582610bd4565b91507fffffffffffffffffffffffffffffffffffffffffffffffffffffffffffffffff821415610e8857610e87610e1b565b5b600182019050919050565b600082825260208201905092915050565b7f596f7520617265206e6f7420746865204f776e65720000000000000000000000600082015250565b6000610eda601583610e93565b9150610ee582610ea4565b602082019050919050565b60006020820190508181036000830152610f0981610ecd565b9050919050565b6000610f1b82610bd4565b9150610f2683610bd4565b925082821015610f3957610f38610e1b565b5b828203905092915050565b7f416c7265616479205369676e656420627920596f752e2e2e0000000000000000600082015250565b6000610f7a601883610e93565b9150610f8582610f44565b602082019050919050565b60006020820190508181036000830152610fa981610f6d565b9050919050565b7f5472616e73616374696f6e20697320616c72656164792053656e740000000000600082015250565b6000610fe6601b83610e93565b9150610ff182610fb0565b602082019050919050565b6000602082019050818103600083015261101581610fd9565b9050919050565b7f5472616e73616374696f6e20526571756972657320417070726f76616c730000600082015250565b6000611052601e83610e93565b915061105d8261101c565b602082019050919050565b6000602082019050818103600083015261108181611045565b9050919050565b7f4e6577204f776e657220697320416c726561647920616e204f776e6572000000600082015250565b60006110be601d83610e93565b91506110c982611088565b602082019050919050565b600060208201905081810360008301526110ed816110b1565b905091905056fea26469706673582212204f20a5d89b0fcadac1793e9669a127f2f48f76361897169a959f6e72014c740a64736f6c634300080b0033",
  "immutableReferences": {},
  "source": "//SPDX-License-Identifier: Unlicense\r\npragma solidity ^0.8.0;\r\n\r\ncontract MultiSignerWallet {\r\n\r\n    struct Transaction{\r\n        uint id;\r\n        address payable to;\r\n        uint amount;\r\n        bool isSent;\r\n        uint approvals;\r\n    }\r\n\r\n    uint transactionIndex=0;\r\n\r\n    address[] private owners;\r\n\r\n    mapping(address => mapping(uint=>bool)) approvals;  //Approvals Object\r\n    mapping(uint => Transaction) transactions;  //Transaction Object\r\n\r\n    /**\r\n    const owner1=\"0x12\";\r\n    const owner2=\"0x13\";\r\n\r\n    Txn1={\r\n        id: 1\r\n    }\r\n    Txn2={\r\n        id: 2\r\n    }\r\n\r\n    const approvals={\r\n        \"0x12\":{\r\n            \"1\":true,\r\n            \"2\": false\r\n        },\r\n        \"0x13\":{\r\n            \"1\":true,\r\n            \"2\": true\r\n        },\r\n    }\r\n    **/\r\n\r\n    constructor(address[] memory _owners) {\r\n        owners=_owners;\r\n    }\r\n\r\n\r\n    modifier authenticate(){\r\n        bool isAllowed=false;\r\n\r\n        for(uint i=0; i<owners.length; i++){\r\n            if(owners[i] == msg.sender){\r\n                isAllowed = true;\r\n            }\r\n        }\r\n\r\n        require(isAllowed, \"You are not the Owner\");\r\n        _;\r\n    }\r\n\r\n    modifier ifNotAnOwner(address _newOwner){\r\n        bool isAllowed=true;\r\n\r\n        for(uint i=0; i<owners.length; i++){\r\n            if(owners[i] == _newOwner){\r\n                isAllowed = false;\r\n            }\r\n        }\r\n\r\n        require(isAllowed, \"New Owner is Already an Owner\");\r\n        _;\r\n    }\r\n\r\n    modifier checkSentOrNot(uint _id){\r\n        require(transactions[_id].isSent == false, \"Transaction is already Sent\");\r\n        _;\r\n    }\r\n\r\n    modifier checkApprovals(uint _id){\r\n        require(transactions[_id].approvals >= owners.length, \"Transaction Requires Approvals\");\r\n        _;\r\n    }\r\n\r\n\r\n    function createTransaction(address payable _to, uint _amount) external authenticate returns(uint){\r\n        transactions[transactionIndex] = Transaction(transactionIndex, _to, _amount, false, 0);\r\n        transactionIndex ++;\r\n        return transactionIndex - 1;\r\n    }\r\n\r\n    function signTransaction(uint _id) external authenticate{\r\n\r\n        if(approvals[msg.sender][_id]  == false){\r\n            approvals[msg.sender][_id]=true;\r\n            transactions[_id].approvals ++;\r\n        }\r\n\r\n        require(approvals[msg.sender][_id], \"Already Signed by You...\");\r\n    }\r\n\r\n\r\n    function sendTransaction(uint _id) external authenticate checkSentOrNot(_id) checkApprovals( _id){\r\n        transactions[_id].isSent=true;\r\n        address payable to=transactions[_id].to;\r\n        to.transfer(transactions[_id].amount);\r\n        \r\n    }\r\n\r\n\r\n    \r\n\r\n    function assignOwner(address _newOwner) external authenticate ifNotAnOwner(_newOwner){\r\n        owners.push(_newOwner);\r\n    }\r\n\r\n    function getOwners() external view authenticate returns(address[] memory){\r\n        return owners;\r\n    }\r\n\r\n}",
  "sourcePath": "C:\\Users\\Suman\\Desktop\\Blockchain\\Blockchain\\Chapter-1\\Chapter-1\\Suman_Chakraborty\\Week4\\GanacheSetup\\local-setup\\contracts\\MultiSignerWallet.sol",
  "compiler": {
    "name": "solc",
    "version": "0.8.11+commit.d7f03943.Emscripten.clang"
  },
  "schemaVersion": "3.4.4",
  "updatedAt": "2022-02-06T11:37:58.456Z",
  "networkType": "ethereum",
  "devdoc": {
    "kind": "dev",
    "methods": {},
    "version": 1
  },
  "userdoc": {
    "kind": "user",
    "methods": {
      "constructor": {
        "notice": "const owner1=\"0x12\"; const owner2=\"0x13\"; Txn1={ id: 1 } Txn2={ id: 2 } const approvals={ \"0x12\":{ \"1\":true, \"2\": false }, \"0x13\":{ \"1\":true, \"2\": true }, }*"
      }
    },
    "version": 1
  }
}